{
	"contracts/NameRegistry.sol": {
		"NameRegistry": {
			"abi": [
				{
					"inputs": [],
					"stateMutability": "nonpayable",
					"type": "constructor"
				},
				{
					"inputs": [],
					"name": "getAddress",
					"outputs": [
						{
							"internalType": "address",
							"name": "",
							"type": "address"
						}
					],
					"stateMutability": "view",
					"type": "function"
				},
				{
					"inputs": [
						{
							"internalType": "uint256",
							"name": "_index",
							"type": "uint256"
						}
					],
					"name": "getArr",
					"outputs": [
						{
							"internalType": "uint256",
							"name": "",
							"type": "uint256"
						}
					],
					"stateMutability": "view",
					"type": "function"
				},
				{
					"inputs": [
						{
							"internalType": "address",
							"name": "_address",
							"type": "address"
						}
					],
					"name": "getName",
					"outputs": [
						{
							"internalType": "string",
							"name": "",
							"type": "string"
						}
					],
					"stateMutability": "view",
					"type": "function"
				},
				{
					"inputs": [
						{
							"internalType": "address",
							"name": "",
							"type": "address"
						}
					],
					"name": "names",
					"outputs": [
						{
							"internalType": "string",
							"name": "",
							"type": "string"
						}
					],
					"stateMutability": "view",
					"type": "function"
				},
				{
					"inputs": [
						{
							"internalType": "uint256",
							"name": "_value",
							"type": "uint256"
						},
						{
							"internalType": "uint256",
							"name": "_index",
							"type": "uint256"
						}
					],
					"name": "setArr",
					"outputs": [],
					"stateMutability": "nonpayable",
					"type": "function"
				},
				{
					"inputs": [
						{
							"internalType": "string",
							"name": "_name",
							"type": "string"
						}
					],
					"name": "setName",
					"outputs": [],
					"stateMutability": "nonpayable",
					"type": "function"
				}
			],
			"devdoc": {
				"kind": "dev",
				"methods": {},
				"version": 1
			},
			"evm": {
				"assembly": "    /* \"contracts/NameRegistry.sol\":66:711  contract NameRegistry{... */\n  mstore(0x40, 0x80)\n    /* \"contracts/NameRegistry.sol\":157:177  constructor(){... */\n  callvalue\n  dup1\n  iszero\n  tag_1\n  jumpi\n  0x00\n  dup1\n  revert\ntag_1:\n  pop\n    /* \"contracts/NameRegistry.sol\":66:711  contract NameRegistry{... */\n  dataSize(sub_0)\n  dup1\n  dataOffset(sub_0)\n  0x00\n  codecopy\n  0x00\n  return\nstop\n\nsub_0: assembly {\n        /* \"contracts/NameRegistry.sol\":66:711  contract NameRegistry{... */\n      mstore(0x40, 0x80)\n      callvalue\n      dup1\n      iszero\n      tag_1\n      jumpi\n      0x00\n      dup1\n      revert\n    tag_1:\n      pop\n      jumpi(tag_2, lt(calldatasize, 0x04))\n      shr(0xe0, calldataload(0x00))\n      dup1\n      0x38cc4831\n      eq\n      tag_3\n      jumpi\n      dup1\n      0x4308cf35\n      eq\n      tag_4\n      jumpi\n      dup1\n      0x5cf3d346\n      eq\n      tag_5\n      jumpi\n      dup1\n      0x5fd4b08a\n      eq\n      tag_6\n      jumpi\n      dup1\n      0x7ff04d48\n      eq\n      tag_7\n      jumpi\n      dup1\n      0xc47f0027\n      eq\n      tag_8\n      jumpi\n    tag_2:\n      0x00\n      dup1\n      revert\n        /* \"contracts/NameRegistry.sol\":183:269  function getAddress() public view returns (address) {... */\n    tag_3:\n      tag_9\n      tag_10\n      jump\t// in\n    tag_9:\n      mload(0x40)\n      tag_11\n      swap2\n      swap1\n      tag_12\n      jump\t// in\n    tag_11:\n      mload(0x40)\n      dup1\n      swap2\n      sub\n      swap1\n      return\n        /* \"contracts/NameRegistry.sol\":599:709  function getArr(uint _index) public view returns (uint){... */\n    tag_4:\n      tag_13\n      0x04\n      dup1\n      calldatasize\n      sub\n      dup2\n      add\n      swap1\n      tag_14\n      swap2\n      swap1\n      tag_15\n      jump\t// in\n    tag_14:\n      tag_16\n      jump\t// in\n    tag_13:\n      mload(0x40)\n      tag_17\n      swap2\n      swap1\n      tag_18\n      jump\t// in\n    tag_17:\n      mload(0x40)\n      dup1\n      swap2\n      sub\n      swap1\n      return\n        /* \"contracts/NameRegistry.sol\":94:133  mapping (address=>string) public  names */\n    tag_5:\n      tag_19\n      0x04\n      dup1\n      calldatasize\n      sub\n      dup2\n      add\n      swap1\n      tag_20\n      swap2\n      swap1\n      tag_21\n      jump\t// in\n    tag_20:\n      tag_22\n      jump\t// in\n    tag_19:\n      mload(0x40)\n      tag_23\n      swap2\n      swap1\n      tag_24\n      jump\t// in\n    tag_23:\n      mload(0x40)\n      dup1\n      swap2\n      sub\n      swap1\n      return\n        /* \"contracts/NameRegistry.sol\":362:471  function getName(address _address) public view returns (string memory ) {... */\n    tag_6:\n      tag_25\n      0x04\n      dup1\n      calldatasize\n      sub\n      dup2\n      add\n      swap1\n      tag_26\n      swap2\n      swap1\n      tag_21\n      jump\t// in\n    tag_26:\n      tag_27\n      jump\t// in\n    tag_25:\n      mload(0x40)\n      tag_28\n      swap2\n      swap1\n      tag_24\n      jump\t// in\n    tag_28:\n      mload(0x40)\n      dup1\n      swap2\n      sub\n      swap1\n      return\n        /* \"contracts/NameRegistry.sol\":477:594  function setArr(uint _value,uint _index) public{... */\n    tag_7:\n      tag_29\n      0x04\n      dup1\n      calldatasize\n      sub\n      dup2\n      add\n      swap1\n      tag_30\n      swap2\n      swap1\n      tag_31\n      jump\t// in\n    tag_30:\n      tag_32\n      jump\t// in\n    tag_29:\n      stop\n        /* \"contracts/NameRegistry.sol\":275:356  function setName(string memory _name)public {... */\n    tag_8:\n      tag_33\n      0x04\n      dup1\n      calldatasize\n      sub\n      dup2\n      add\n      swap1\n      tag_34\n      swap2\n      swap1\n      tag_35\n      jump\t// in\n    tag_34:\n      tag_36\n      jump\t// in\n    tag_33:\n      stop\n        /* \"contracts/NameRegistry.sol\":183:269  function getAddress() public view returns (address) {... */\n    tag_10:\n        /* \"contracts/NameRegistry.sol\":226:233  address */\n      0x00\n        /* \"contracts/NameRegistry.sol\":252:262  msg.sender */\n      caller\n        /* \"contracts/NameRegistry.sol\":245:262  return msg.sender */\n      swap1\n      pop\n        /* \"contracts/NameRegistry.sol\":183:269  function getAddress() public view returns (address) {... */\n      swap1\n      jump\t// out\n        /* \"contracts/NameRegistry.sol\":599:709  function getArr(uint _index) public view returns (uint){... */\n    tag_16:\n        /* \"contracts/NameRegistry.sol\":649:653  uint */\n      0x00\n        /* \"contracts/NameRegistry.sol\":675:676  4 */\n      0x04\n        /* \"contracts/NameRegistry.sol\":668:674  _index */\n      dup3\n        /* \"contracts/NameRegistry.sol\":668:676  _index<4 */\n      lt\n        /* \"contracts/NameRegistry.sol\":660:677  require(_index<4) */\n      tag_39\n      jumpi\n      0x00\n      dup1\n      revert\n    tag_39:\n        /* \"contracts/NameRegistry.sol\":691:694  arr */\n      0x01\n        /* \"contracts/NameRegistry.sol\":695:701  _index */\n      dup3\n        /* \"contracts/NameRegistry.sol\":691:702  arr[_index] */\n      0x03\n      dup2\n      lt\n      tag_40\n      jumpi\n      tag_41\n      tag_42\n      jump\t// in\n    tag_41:\n    tag_40:\n      add\n      sload\n        /* \"contracts/NameRegistry.sol\":684:702  return arr[_index] */\n      swap1\n      pop\n        /* \"contracts/NameRegistry.sol\":599:709  function getArr(uint _index) public view returns (uint){... */\n      swap2\n      swap1\n      pop\n      jump\t// out\n        /* \"contracts/NameRegistry.sol\":94:133  mapping (address=>string) public  names */\n    tag_22:\n      mstore(0x20, 0x00)\n      dup1\n      0x00\n      mstore\n      keccak256(0x00, 0x40)\n      0x00\n      swap2\n      pop\n      swap1\n      pop\n      dup1\n      sload\n      tag_44\n      swap1\n      tag_45\n      jump\t// in\n    tag_44:\n      dup1\n      0x1f\n      add\n      0x20\n      dup1\n      swap2\n      div\n      mul\n      0x20\n      add\n      mload(0x40)\n      swap1\n      dup2\n      add\n      0x40\n      mstore\n      dup1\n      swap3\n      swap2\n      swap1\n      dup2\n      dup2\n      mstore\n      0x20\n      add\n      dup3\n      dup1\n      sload\n      tag_46\n      swap1\n      tag_45\n      jump\t// in\n    tag_46:\n      dup1\n      iszero\n      tag_47\n      jumpi\n      dup1\n      0x1f\n      lt\n      tag_48\n      jumpi\n      0x0100\n      dup1\n      dup4\n      sload\n      div\n      mul\n      dup4\n      mstore\n      swap2\n      0x20\n      add\n      swap2\n      jump(tag_47)\n    tag_48:\n      dup3\n      add\n      swap2\n      swap1\n      0x00\n      mstore\n      keccak256(0x00, 0x20)\n      swap1\n    tag_49:\n      dup2\n      sload\n      dup2\n      mstore\n      swap1\n      0x01\n      add\n      swap1\n      0x20\n      add\n      dup1\n      dup4\n      gt\n      tag_49\n      jumpi\n      dup3\n      swap1\n      sub\n      0x1f\n      and\n      dup3\n      add\n      swap2\n    tag_47:\n      pop\n      pop\n      pop\n      pop\n      pop\n      dup2\n      jump\t// out\n        /* \"contracts/NameRegistry.sol\":362:471  function getName(address _address) public view returns (string memory ) {... */\n    tag_27:\n        /* \"contracts/NameRegistry.sol\":418:431  string memory */\n      0x60\n        /* \"contracts/NameRegistry.sol\":449:454  names */\n      0x00\n        /* \"contracts/NameRegistry.sol\":449:464  names[_address] */\n      dup1\n        /* \"contracts/NameRegistry.sol\":455:463  _address */\n      dup4\n        /* \"contracts/NameRegistry.sol\":449:464  names[_address] */\n      0xffffffffffffffffffffffffffffffffffffffff\n      and\n      0xffffffffffffffffffffffffffffffffffffffff\n      and\n      dup2\n      mstore\n      0x20\n      add\n      swap1\n      dup2\n      mstore\n      0x20\n      add\n      0x00\n      keccak256\n        /* \"contracts/NameRegistry.sol\":442:464  return names[_address] */\n      dup1\n      sload\n      tag_51\n      swap1\n      tag_45\n      jump\t// in\n    tag_51:\n      dup1\n      0x1f\n      add\n      0x20\n      dup1\n      swap2\n      div\n      mul\n      0x20\n      add\n      mload(0x40)\n      swap1\n      dup2\n      add\n      0x40\n      mstore\n      dup1\n      swap3\n      swap2\n      swap1\n      dup2\n      dup2\n      mstore\n      0x20\n      add\n      dup3\n      dup1\n      sload\n      tag_52\n      swap1\n      tag_45\n      jump\t// in\n    tag_52:\n      dup1\n      iszero\n      tag_53\n      jumpi\n      dup1\n      0x1f\n      lt\n      tag_54\n      jumpi\n      0x0100\n      dup1\n      dup4\n      sload\n      div\n      mul\n      dup4\n      mstore\n      swap2\n      0x20\n      add\n      swap2\n      jump(tag_53)\n    tag_54:\n      dup3\n      add\n      swap2\n      swap1\n      0x00\n      mstore\n      keccak256(0x00, 0x20)\n      swap1\n    tag_55:\n      dup2\n      sload\n      dup2\n      mstore\n      swap1\n      0x01\n      add\n      swap1\n      0x20\n      add\n      dup1\n      dup4\n      gt\n      tag_55\n      jumpi\n      dup3\n      swap1\n      sub\n      0x1f\n      and\n      dup3\n      add\n      swap2\n    tag_53:\n      pop\n      pop\n      pop\n      pop\n      pop\n      swap1\n      pop\n        /* \"contracts/NameRegistry.sol\":362:471  function getName(address _address) public view returns (string memory ) {... */\n      swap2\n      swap1\n      pop\n      jump\t// out\n        /* \"contracts/NameRegistry.sol\":477:594  function setArr(uint _value,uint _index) public{... */\n    tag_32:\n        /* \"contracts/NameRegistry.sol\":549:550  4 */\n      0x04\n        /* \"contracts/NameRegistry.sol\":542:548  _index */\n      dup2\n        /* \"contracts/NameRegistry.sol\":542:550  _index<4 */\n      lt\n        /* \"contracts/NameRegistry.sol\":534:551  require(_index<4) */\n      tag_57\n      jumpi\n      0x00\n      dup1\n      revert\n    tag_57:\n        /* \"contracts/NameRegistry.sol\":573:579  _value */\n      dup2\n        /* \"contracts/NameRegistry.sol\":561:564  arr */\n      0x01\n        /* \"contracts/NameRegistry.sol\":565:571  _index */\n      dup3\n        /* \"contracts/NameRegistry.sol\":561:572  arr[_index] */\n      0x03\n      dup2\n      lt\n      tag_58\n      jumpi\n      tag_59\n      tag_42\n      jump\t// in\n    tag_59:\n    tag_58:\n      add\n        /* \"contracts/NameRegistry.sol\":561:579  arr[_index]=_value */\n      dup2\n      swap1\n      sstore\n      pop\n        /* \"contracts/NameRegistry.sol\":477:594  function setArr(uint _value,uint _index) public{... */\n      pop\n      pop\n      jump\t// out\n        /* \"contracts/NameRegistry.sol\":275:356  function setName(string memory _name)public {... */\n    tag_36:\n        /* \"contracts/NameRegistry.sol\":344:349  _name */\n      dup1\n        /* \"contracts/NameRegistry.sol\":326:331  names */\n      0x00\n        /* \"contracts/NameRegistry.sol\":326:343  names[msg.sender] */\n      dup1\n        /* \"contracts/NameRegistry.sol\":332:342  msg.sender */\n      caller\n        /* \"contracts/NameRegistry.sol\":326:343  names[msg.sender] */\n      0xffffffffffffffffffffffffffffffffffffffff\n      and\n      0xffffffffffffffffffffffffffffffffffffffff\n      and\n      dup2\n      mstore\n      0x20\n      add\n      swap1\n      dup2\n      mstore\n      0x20\n      add\n      0x00\n      keccak256\n        /* \"contracts/NameRegistry.sol\":326:349  names[msg.sender]=_name */\n      swap1\n      dup2\n      tag_62\n      swap2\n      swap1\n      tag_63\n      jump\t// in\n    tag_62:\n      pop\n        /* \"contracts/NameRegistry.sol\":275:356  function setName(string memory _name)public {... */\n      pop\n      jump\t// out\n        /* \"#utility.yul\":7:133   */\n    tag_64:\n        /* \"#utility.yul\":44:51   */\n      0x00\n        /* \"#utility.yul\":84:126   */\n      0xffffffffffffffffffffffffffffffffffffffff\n        /* \"#utility.yul\":77:82   */\n      dup3\n        /* \"#utility.yul\":73:127   */\n      and\n        /* \"#utility.yul\":62:127   */\n      swap1\n      pop\n        /* \"#utility.yul\":7:133   */\n      swap2\n      swap1\n      pop\n      jump\t// out\n        /* \"#utility.yul\":139:235   */\n    tag_65:\n        /* \"#utility.yul\":176:183   */\n      0x00\n        /* \"#utility.yul\":205:229   */\n      tag_109\n        /* \"#utility.yul\":223:228   */\n      dup3\n        /* \"#utility.yul\":205:229   */\n      tag_64\n      jump\t// in\n    tag_109:\n        /* \"#utility.yul\":194:229   */\n      swap1\n      pop\n        /* \"#utility.yul\":139:235   */\n      swap2\n      swap1\n      pop\n      jump\t// out\n        /* \"#utility.yul\":241:359   */\n    tag_66:\n        /* \"#utility.yul\":328:352   */\n      tag_111\n        /* \"#utility.yul\":346:351   */\n      dup2\n        /* \"#utility.yul\":328:352   */\n      tag_65\n      jump\t// in\n    tag_111:\n        /* \"#utility.yul\":323:326   */\n      dup3\n        /* \"#utility.yul\":316:353   */\n      mstore\n        /* \"#utility.yul\":241:359   */\n      pop\n      pop\n      jump\t// out\n        /* \"#utility.yul\":365:587   */\n    tag_12:\n        /* \"#utility.yul\":458:462   */\n      0x00\n        /* \"#utility.yul\":496:498   */\n      0x20\n        /* \"#utility.yul\":485:494   */\n      dup3\n        /* \"#utility.yul\":481:499   */\n      add\n        /* \"#utility.yul\":473:499   */\n      swap1\n      pop\n        /* \"#utility.yul\":509:580   */\n      tag_113\n        /* \"#utility.yul\":577:578   */\n      0x00\n        /* \"#utility.yul\":566:575   */\n      dup4\n        /* \"#utility.yul\":562:579   */\n      add\n        /* \"#utility.yul\":553:559   */\n      dup5\n        /* \"#utility.yul\":509:580   */\n      tag_66\n      jump\t// in\n    tag_113:\n        /* \"#utility.yul\":365:587   */\n      swap3\n      swap2\n      pop\n      pop\n      jump\t// out\n        /* \"#utility.yul\":593:668   */\n    tag_67:\n        /* \"#utility.yul\":626:632   */\n      0x00\n        /* \"#utility.yul\":659:661   */\n      0x40\n        /* \"#utility.yul\":653:662   */\n      mload\n        /* \"#utility.yul\":643:662   */\n      swap1\n      pop\n        /* \"#utility.yul\":593:668   */\n      swap1\n      jump\t// out\n        /* \"#utility.yul\":674:791   */\n    tag_68:\n        /* \"#utility.yul\":783:784   */\n      0x00\n        /* \"#utility.yul\":780:781   */\n      dup1\n        /* \"#utility.yul\":773:785   */\n      revert\n        /* \"#utility.yul\":797:914   */\n    tag_69:\n        /* \"#utility.yul\":906:907   */\n      0x00\n        /* \"#utility.yul\":903:904   */\n      dup1\n        /* \"#utility.yul\":896:908   */\n      revert\n        /* \"#utility.yul\":920:997   */\n    tag_70:\n        /* \"#utility.yul\":957:964   */\n      0x00\n        /* \"#utility.yul\":986:991   */\n      dup2\n        /* \"#utility.yul\":975:991   */\n      swap1\n      pop\n        /* \"#utility.yul\":920:997   */\n      swap2\n      swap1\n      pop\n      jump\t// out\n        /* \"#utility.yul\":1003:1125   */\n    tag_71:\n        /* \"#utility.yul\":1076:1100   */\n      tag_119\n        /* \"#utility.yul\":1094:1099   */\n      dup2\n        /* \"#utility.yul\":1076:1100   */\n      tag_70\n      jump\t// in\n    tag_119:\n        /* \"#utility.yul\":1069:1074   */\n      dup2\n        /* \"#utility.yul\":1066:1101   */\n      eq\n        /* \"#utility.yul\":1056:1119   */\n      tag_120\n      jumpi\n        /* \"#utility.yul\":1115:1116   */\n      0x00\n        /* \"#utility.yul\":1112:1113   */\n      dup1\n        /* \"#utility.yul\":1105:1117   */\n      revert\n        /* \"#utility.yul\":1056:1119   */\n    tag_120:\n        /* \"#utility.yul\":1003:1125   */\n      pop\n      jump\t// out\n        /* \"#utility.yul\":1131:1270   */\n    tag_72:\n        /* \"#utility.yul\":1177:1182   */\n      0x00\n        /* \"#utility.yul\":1215:1221   */\n      dup2\n        /* \"#utility.yul\":1202:1222   */\n      calldataload\n        /* \"#utility.yul\":1193:1222   */\n      swap1\n      pop\n        /* \"#utility.yul\":1231:1264   */\n      tag_122\n        /* \"#utility.yul\":1258:1263   */\n      dup2\n        /* \"#utility.yul\":1231:1264   */\n      tag_71\n      jump\t// in\n    tag_122:\n        /* \"#utility.yul\":1131:1270   */\n      swap3\n      swap2\n      pop\n      pop\n      jump\t// out\n        /* \"#utility.yul\":1276:1605   */\n    tag_15:\n        /* \"#utility.yul\":1335:1341   */\n      0x00\n        /* \"#utility.yul\":1384:1386   */\n      0x20\n        /* \"#utility.yul\":1372:1381   */\n      dup3\n        /* \"#utility.yul\":1363:1370   */\n      dup5\n        /* \"#utility.yul\":1359:1382   */\n      sub\n        /* \"#utility.yul\":1355:1387   */\n      slt\n        /* \"#utility.yul\":1352:1471   */\n      iszero\n      tag_124\n      jumpi\n        /* \"#utility.yul\":1390:1469   */\n      tag_125\n      tag_68\n      jump\t// in\n    tag_125:\n        /* \"#utility.yul\":1352:1471   */\n    tag_124:\n        /* \"#utility.yul\":1510:1511   */\n      0x00\n        /* \"#utility.yul\":1535:1588   */\n      tag_126\n        /* \"#utility.yul\":1580:1587   */\n      dup5\n        /* \"#utility.yul\":1571:1577   */\n      dup3\n        /* \"#utility.yul\":1560:1569   */\n      dup6\n        /* \"#utility.yul\":1556:1578   */\n      add\n        /* \"#utility.yul\":1535:1588   */\n      tag_72\n      jump\t// in\n    tag_126:\n        /* \"#utility.yul\":1525:1588   */\n      swap2\n      pop\n        /* \"#utility.yul\":1481:1598   */\n      pop\n        /* \"#utility.yul\":1276:1605   */\n      swap3\n      swap2\n      pop\n      pop\n      jump\t// out\n        /* \"#utility.yul\":1611:1729   */\n    tag_73:\n        /* \"#utility.yul\":1698:1722   */\n      tag_128\n        /* \"#utility.yul\":1716:1721   */\n      dup2\n        /* \"#utility.yul\":1698:1722   */\n      tag_70\n      jump\t// in\n    tag_128:\n        /* \"#utility.yul\":1693:1696   */\n      dup3\n        /* \"#utility.yul\":1686:1723   */\n      mstore\n        /* \"#utility.yul\":1611:1729   */\n      pop\n      pop\n      jump\t// out\n        /* \"#utility.yul\":1735:1957   */\n    tag_18:\n        /* \"#utility.yul\":1828:1832   */\n      0x00\n        /* \"#utility.yul\":1866:1868   */\n      0x20\n        /* \"#utility.yul\":1855:1864   */\n      dup3\n        /* \"#utility.yul\":1851:1869   */\n      add\n        /* \"#utility.yul\":1843:1869   */\n      swap1\n      pop\n        /* \"#utility.yul\":1879:1950   */\n      tag_130\n        /* \"#utility.yul\":1947:1948   */\n      0x00\n        /* \"#utility.yul\":1936:1945   */\n      dup4\n        /* \"#utility.yul\":1932:1949   */\n      add\n        /* \"#utility.yul\":1923:1929   */\n      dup5\n        /* \"#utility.yul\":1879:1950   */\n      tag_73\n      jump\t// in\n    tag_130:\n        /* \"#utility.yul\":1735:1957   */\n      swap3\n      swap2\n      pop\n      pop\n      jump\t// out\n        /* \"#utility.yul\":1963:2085   */\n    tag_74:\n        /* \"#utility.yul\":2036:2060   */\n      tag_132\n        /* \"#utility.yul\":2054:2059   */\n      dup2\n        /* \"#utility.yul\":2036:2060   */\n      tag_65\n      jump\t// in\n    tag_132:\n        /* \"#utility.yul\":2029:2034   */\n      dup2\n        /* \"#utility.yul\":2026:2061   */\n      eq\n        /* \"#utility.yul\":2016:2079   */\n      tag_133\n      jumpi\n        /* \"#utility.yul\":2075:2076   */\n      0x00\n        /* \"#utility.yul\":2072:2073   */\n      dup1\n        /* \"#utility.yul\":2065:2077   */\n      revert\n        /* \"#utility.yul\":2016:2079   */\n    tag_133:\n        /* \"#utility.yul\":1963:2085   */\n      pop\n      jump\t// out\n        /* \"#utility.yul\":2091:2230   */\n    tag_75:\n        /* \"#utility.yul\":2137:2142   */\n      0x00\n        /* \"#utility.yul\":2175:2181   */\n      dup2\n        /* \"#utility.yul\":2162:2182   */\n      calldataload\n        /* \"#utility.yul\":2153:2182   */\n      swap1\n      pop\n        /* \"#utility.yul\":2191:2224   */\n      tag_135\n        /* \"#utility.yul\":2218:2223   */\n      dup2\n        /* \"#utility.yul\":2191:2224   */\n      tag_74\n      jump\t// in\n    tag_135:\n        /* \"#utility.yul\":2091:2230   */\n      swap3\n      swap2\n      pop\n      pop\n      jump\t// out\n        /* \"#utility.yul\":2236:2565   */\n    tag_21:\n        /* \"#utility.yul\":2295:2301   */\n      0x00\n        /* \"#utility.yul\":2344:2346   */\n      0x20\n        /* \"#utility.yul\":2332:2341   */\n      dup3\n        /* \"#utility.yul\":2323:2330   */\n      dup5\n        /* \"#utility.yul\":2319:2342   */\n      sub\n        /* \"#utility.yul\":2315:2347   */\n      slt\n        /* \"#utility.yul\":2312:2431   */\n      iszero\n      tag_137\n      jumpi\n        /* \"#utility.yul\":2350:2429   */\n      tag_138\n      tag_68\n      jump\t// in\n    tag_138:\n        /* \"#utility.yul\":2312:2431   */\n    tag_137:\n        /* \"#utility.yul\":2470:2471   */\n      0x00\n        /* \"#utility.yul\":2495:2548   */\n      tag_139\n        /* \"#utility.yul\":2540:2547   */\n      dup5\n        /* \"#utility.yul\":2531:2537   */\n      dup3\n        /* \"#utility.yul\":2520:2529   */\n      dup6\n        /* \"#utility.yul\":2516:2538   */\n      add\n        /* \"#utility.yul\":2495:2548   */\n      tag_75\n      jump\t// in\n    tag_139:\n        /* \"#utility.yul\":2485:2548   */\n      swap2\n      pop\n        /* \"#utility.yul\":2441:2558   */\n      pop\n        /* \"#utility.yul\":2236:2565   */\n      swap3\n      swap2\n      pop\n      pop\n      jump\t// out\n        /* \"#utility.yul\":2571:2670   */\n    tag_76:\n        /* \"#utility.yul\":2623:2629   */\n      0x00\n        /* \"#utility.yul\":2657:2662   */\n      dup2\n        /* \"#utility.yul\":2651:2663   */\n      mload\n        /* \"#utility.yul\":2641:2663   */\n      swap1\n      pop\n        /* \"#utility.yul\":2571:2670   */\n      swap2\n      swap1\n      pop\n      jump\t// out\n        /* \"#utility.yul\":2676:2845   */\n    tag_77:\n        /* \"#utility.yul\":2760:2771   */\n      0x00\n        /* \"#utility.yul\":2794:2800   */\n      dup3\n        /* \"#utility.yul\":2789:2792   */\n      dup3\n        /* \"#utility.yul\":2782:2801   */\n      mstore\n        /* \"#utility.yul\":2834:2838   */\n      0x20\n        /* \"#utility.yul\":2829:2832   */\n      dup3\n        /* \"#utility.yul\":2825:2839   */\n      add\n        /* \"#utility.yul\":2810:2839   */\n      swap1\n      pop\n        /* \"#utility.yul\":2676:2845   */\n      swap3\n      swap2\n      pop\n      pop\n      jump\t// out\n        /* \"#utility.yul\":2851:2990   */\n    tag_78:\n        /* \"#utility.yul\":2940:2946   */\n      dup3\n        /* \"#utility.yul\":2935:2938   */\n      dup2\n        /* \"#utility.yul\":2930:2933   */\n      dup4\n        /* \"#utility.yul\":2924:2947   */\n      mcopy\n        /* \"#utility.yul\":2981:2982   */\n      0x00\n        /* \"#utility.yul\":2972:2978   */\n      dup4\n        /* \"#utility.yul\":2967:2970   */\n      dup4\n        /* \"#utility.yul\":2963:2979   */\n      add\n        /* \"#utility.yul\":2956:2983   */\n      mstore\n        /* \"#utility.yul\":2851:2990   */\n      pop\n      pop\n      pop\n      jump\t// out\n        /* \"#utility.yul\":2996:3098   */\n    tag_79:\n        /* \"#utility.yul\":3037:3043   */\n      0x00\n        /* \"#utility.yul\":3088:3090   */\n      0x1f\n        /* \"#utility.yul\":3084:3091   */\n      not\n        /* \"#utility.yul\":3079:3081   */\n      0x1f\n        /* \"#utility.yul\":3072:3077   */\n      dup4\n        /* \"#utility.yul\":3068:3082   */\n      add\n        /* \"#utility.yul\":3064:3092   */\n      and\n        /* \"#utility.yul\":3054:3092   */\n      swap1\n      pop\n        /* \"#utility.yul\":2996:3098   */\n      swap2\n      swap1\n      pop\n      jump\t// out\n        /* \"#utility.yul\":3104:3481   */\n    tag_80:\n        /* \"#utility.yul\":3192:3195   */\n      0x00\n        /* \"#utility.yul\":3220:3259   */\n      tag_145\n        /* \"#utility.yul\":3253:3258   */\n      dup3\n        /* \"#utility.yul\":3220:3259   */\n      tag_76\n      jump\t// in\n    tag_145:\n        /* \"#utility.yul\":3275:3346   */\n      tag_146\n        /* \"#utility.yul\":3339:3345   */\n      dup2\n        /* \"#utility.yul\":3334:3337   */\n      dup6\n        /* \"#utility.yul\":3275:3346   */\n      tag_77\n      jump\t// in\n    tag_146:\n        /* \"#utility.yul\":3268:3346   */\n      swap4\n      pop\n        /* \"#utility.yul\":3355:3420   */\n      tag_147\n        /* \"#utility.yul\":3413:3419   */\n      dup2\n        /* \"#utility.yul\":3408:3411   */\n      dup6\n        /* \"#utility.yul\":3401:3405   */\n      0x20\n        /* \"#utility.yul\":3394:3399   */\n      dup7\n        /* \"#utility.yul\":3390:3406   */\n      add\n        /* \"#utility.yul\":3355:3420   */\n      tag_78\n      jump\t// in\n    tag_147:\n        /* \"#utility.yul\":3445:3474   */\n      tag_148\n        /* \"#utility.yul\":3467:3473   */\n      dup2\n        /* \"#utility.yul\":3445:3474   */\n      tag_79\n      jump\t// in\n    tag_148:\n        /* \"#utility.yul\":3440:3443   */\n      dup5\n        /* \"#utility.yul\":3436:3475   */\n      add\n        /* \"#utility.yul\":3429:3475   */\n      swap2\n      pop\n        /* \"#utility.yul\":3196:3481   */\n      pop\n        /* \"#utility.yul\":3104:3481   */\n      swap3\n      swap2\n      pop\n      pop\n      jump\t// out\n        /* \"#utility.yul\":3487:3800   */\n    tag_24:\n        /* \"#utility.yul\":3600:3604   */\n      0x00\n        /* \"#utility.yul\":3638:3640   */\n      0x20\n        /* \"#utility.yul\":3627:3636   */\n      dup3\n        /* \"#utility.yul\":3623:3641   */\n      add\n        /* \"#utility.yul\":3615:3641   */\n      swap1\n      pop\n        /* \"#utility.yul\":3687:3696   */\n      dup2\n        /* \"#utility.yul\":3681:3685   */\n      dup2\n        /* \"#utility.yul\":3677:3697   */\n      sub\n        /* \"#utility.yul\":3673:3674   */\n      0x00\n        /* \"#utility.yul\":3662:3671   */\n      dup4\n        /* \"#utility.yul\":3658:3675   */\n      add\n        /* \"#utility.yul\":3651:3698   */\n      mstore\n        /* \"#utility.yul\":3715:3793   */\n      tag_150\n        /* \"#utility.yul\":3788:3792   */\n      dup2\n        /* \"#utility.yul\":3779:3785   */\n      dup5\n        /* \"#utility.yul\":3715:3793   */\n      tag_80\n      jump\t// in\n    tag_150:\n        /* \"#utility.yul\":3707:3793   */\n      swap1\n      pop\n        /* \"#utility.yul\":3487:3800   */\n      swap3\n      swap2\n      pop\n      pop\n      jump\t// out\n        /* \"#utility.yul\":3806:4280   */\n    tag_31:\n        /* \"#utility.yul\":3874:3880   */\n      0x00\n        /* \"#utility.yul\":3882:3888   */\n      dup1\n        /* \"#utility.yul\":3931:3933   */\n      0x40\n        /* \"#utility.yul\":3919:3928   */\n      dup4\n        /* \"#utility.yul\":3910:3917   */\n      dup6\n        /* \"#utility.yul\":3906:3929   */\n      sub\n        /* \"#utility.yul\":3902:3934   */\n      slt\n        /* \"#utility.yul\":3899:4018   */\n      iszero\n      tag_152\n      jumpi\n        /* \"#utility.yul\":3937:4016   */\n      tag_153\n      tag_68\n      jump\t// in\n    tag_153:\n        /* \"#utility.yul\":3899:4018   */\n    tag_152:\n        /* \"#utility.yul\":4057:4058   */\n      0x00\n        /* \"#utility.yul\":4082:4135   */\n      tag_154\n        /* \"#utility.yul\":4127:4134   */\n      dup6\n        /* \"#utility.yul\":4118:4124   */\n      dup3\n        /* \"#utility.yul\":4107:4116   */\n      dup7\n        /* \"#utility.yul\":4103:4125   */\n      add\n        /* \"#utility.yul\":4082:4135   */\n      tag_72\n      jump\t// in\n    tag_154:\n        /* \"#utility.yul\":4072:4135   */\n      swap3\n      pop\n        /* \"#utility.yul\":4028:4145   */\n      pop\n        /* \"#utility.yul\":4184:4186   */\n      0x20\n        /* \"#utility.yul\":4210:4263   */\n      tag_155\n        /* \"#utility.yul\":4255:4262   */\n      dup6\n        /* \"#utility.yul\":4246:4252   */\n      dup3\n        /* \"#utility.yul\":4235:4244   */\n      dup7\n        /* \"#utility.yul\":4231:4253   */\n      add\n        /* \"#utility.yul\":4210:4263   */\n      tag_72\n      jump\t// in\n    tag_155:\n        /* \"#utility.yul\":4200:4263   */\n      swap2\n      pop\n        /* \"#utility.yul\":4155:4273   */\n      pop\n        /* \"#utility.yul\":3806:4280   */\n      swap3\n      pop\n      swap3\n      swap1\n      pop\n      jump\t// out\n        /* \"#utility.yul\":4286:4403   */\n    tag_81:\n        /* \"#utility.yul\":4395:4396   */\n      0x00\n        /* \"#utility.yul\":4392:4393   */\n      dup1\n        /* \"#utility.yul\":4385:4397   */\n      revert\n        /* \"#utility.yul\":4409:4526   */\n    tag_82:\n        /* \"#utility.yul\":4518:4519   */\n      0x00\n        /* \"#utility.yul\":4515:4516   */\n      dup1\n        /* \"#utility.yul\":4508:4520   */\n      revert\n        /* \"#utility.yul\":4532:4712   */\n    tag_83:\n        /* \"#utility.yul\":4580:4657   */\n      0x4e487b7100000000000000000000000000000000000000000000000000000000\n        /* \"#utility.yul\":4577:4578   */\n      0x00\n        /* \"#utility.yul\":4570:4658   */\n      mstore\n        /* \"#utility.yul\":4677:4681   */\n      0x41\n        /* \"#utility.yul\":4674:4675   */\n      0x04\n        /* \"#utility.yul\":4667:4682   */\n      mstore\n        /* \"#utility.yul\":4701:4705   */\n      0x24\n        /* \"#utility.yul\":4698:4699   */\n      0x00\n        /* \"#utility.yul\":4691:4706   */\n      revert\n        /* \"#utility.yul\":4718:4999   */\n    tag_84:\n        /* \"#utility.yul\":4801:4828   */\n      tag_160\n        /* \"#utility.yul\":4823:4827   */\n      dup3\n        /* \"#utility.yul\":4801:4828   */\n      tag_79\n      jump\t// in\n    tag_160:\n        /* \"#utility.yul\":4793:4799   */\n      dup2\n        /* \"#utility.yul\":4789:4829   */\n      add\n        /* \"#utility.yul\":4931:4937   */\n      dup2\n        /* \"#utility.yul\":4919:4929   */\n      dup2\n        /* \"#utility.yul\":4916:4938   */\n      lt\n        /* \"#utility.yul\":4895:4913   */\n      0xffffffffffffffff\n        /* \"#utility.yul\":4883:4893   */\n      dup3\n        /* \"#utility.yul\":4880:4914   */\n      gt\n        /* \"#utility.yul\":4877:4939   */\n      or\n        /* \"#utility.yul\":4874:4962   */\n      iszero\n      tag_161\n      jumpi\n        /* \"#utility.yul\":4942:4960   */\n      tag_162\n      tag_83\n      jump\t// in\n    tag_162:\n        /* \"#utility.yul\":4874:4962   */\n    tag_161:\n        /* \"#utility.yul\":4982:4992   */\n      dup1\n        /* \"#utility.yul\":4978:4980   */\n      0x40\n        /* \"#utility.yul\":4971:4993   */\n      mstore\n        /* \"#utility.yul\":4761:4999   */\n      pop\n        /* \"#utility.yul\":4718:4999   */\n      pop\n      pop\n      jump\t// out\n        /* \"#utility.yul\":5005:5134   */\n    tag_85:\n        /* \"#utility.yul\":5039:5045   */\n      0x00\n        /* \"#utility.yul\":5066:5086   */\n      tag_164\n      tag_67\n      jump\t// in\n    tag_164:\n        /* \"#utility.yul\":5056:5086   */\n      swap1\n      pop\n        /* \"#utility.yul\":5095:5128   */\n      tag_165\n        /* \"#utility.yul\":5123:5127   */\n      dup3\n        /* \"#utility.yul\":5115:5121   */\n      dup3\n        /* \"#utility.yul\":5095:5128   */\n      tag_84\n      jump\t// in\n    tag_165:\n        /* \"#utility.yul\":5005:5134   */\n      swap2\n      swap1\n      pop\n      jump\t// out\n        /* \"#utility.yul\":5140:5448   */\n    tag_86:\n        /* \"#utility.yul\":5202:5206   */\n      0x00\n        /* \"#utility.yul\":5292:5310   */\n      0xffffffffffffffff\n        /* \"#utility.yul\":5284:5290   */\n      dup3\n        /* \"#utility.yul\":5281:5311   */\n      gt\n        /* \"#utility.yul\":5278:5334   */\n      iszero\n      tag_167\n      jumpi\n        /* \"#utility.yul\":5314:5332   */\n      tag_168\n      tag_83\n      jump\t// in\n    tag_168:\n        /* \"#utility.yul\":5278:5334   */\n    tag_167:\n        /* \"#utility.yul\":5352:5381   */\n      tag_169\n        /* \"#utility.yul\":5374:5380   */\n      dup3\n        /* \"#utility.yul\":5352:5381   */\n      tag_79\n      jump\t// in\n    tag_169:\n        /* \"#utility.yul\":5344:5381   */\n      swap1\n      pop\n        /* \"#utility.yul\":5436:5440   */\n      0x20\n        /* \"#utility.yul\":5430:5434   */\n      dup2\n        /* \"#utility.yul\":5426:5441   */\n      add\n        /* \"#utility.yul\":5418:5441   */\n      swap1\n      pop\n        /* \"#utility.yul\":5140:5448   */\n      swap2\n      swap1\n      pop\n      jump\t// out\n        /* \"#utility.yul\":5454:5602   */\n    tag_87:\n        /* \"#utility.yul\":5552:5558   */\n      dup3\n        /* \"#utility.yul\":5547:5550   */\n      dup2\n        /* \"#utility.yul\":5542:5545   */\n      dup4\n        /* \"#utility.yul\":5529:5559   */\n      calldatacopy\n        /* \"#utility.yul\":5593:5594   */\n      0x00\n        /* \"#utility.yul\":5584:5590   */\n      dup4\n        /* \"#utility.yul\":5579:5582   */\n      dup4\n        /* \"#utility.yul\":5575:5591   */\n      add\n        /* \"#utility.yul\":5568:5595   */\n      mstore\n        /* \"#utility.yul\":5454:5602   */\n      pop\n      pop\n      pop\n      jump\t// out\n        /* \"#utility.yul\":5608:6033   */\n    tag_88:\n        /* \"#utility.yul\":5686:5691   */\n      0x00\n        /* \"#utility.yul\":5711:5777   */\n      tag_172\n        /* \"#utility.yul\":5727:5776   */\n      tag_173\n        /* \"#utility.yul\":5769:5775   */\n      dup5\n        /* \"#utility.yul\":5727:5776   */\n      tag_86\n      jump\t// in\n    tag_173:\n        /* \"#utility.yul\":5711:5777   */\n      tag_85\n      jump\t// in\n    tag_172:\n        /* \"#utility.yul\":5702:5777   */\n      swap1\n      pop\n        /* \"#utility.yul\":5800:5806   */\n      dup3\n        /* \"#utility.yul\":5793:5798   */\n      dup2\n        /* \"#utility.yul\":5786:5807   */\n      mstore\n        /* \"#utility.yul\":5838:5842   */\n      0x20\n        /* \"#utility.yul\":5831:5836   */\n      dup2\n        /* \"#utility.yul\":5827:5843   */\n      add\n        /* \"#utility.yul\":5876:5879   */\n      dup5\n        /* \"#utility.yul\":5867:5873   */\n      dup5\n        /* \"#utility.yul\":5862:5865   */\n      dup5\n        /* \"#utility.yul\":5858:5874   */\n      add\n        /* \"#utility.yul\":5855:5880   */\n      gt\n        /* \"#utility.yul\":5852:5964   */\n      iszero\n      tag_174\n      jumpi\n        /* \"#utility.yul\":5883:5962   */\n      tag_175\n      tag_82\n      jump\t// in\n    tag_175:\n        /* \"#utility.yul\":5852:5964   */\n    tag_174:\n        /* \"#utility.yul\":5973:6027   */\n      tag_176\n        /* \"#utility.yul\":6020:6026   */\n      dup5\n        /* \"#utility.yul\":6015:6018   */\n      dup3\n        /* \"#utility.yul\":6010:6013   */\n      dup6\n        /* \"#utility.yul\":5973:6027   */\n      tag_87\n      jump\t// in\n    tag_176:\n        /* \"#utility.yul\":5692:6033   */\n      pop\n        /* \"#utility.yul\":5608:6033   */\n      swap4\n      swap3\n      pop\n      pop\n      pop\n      jump\t// out\n        /* \"#utility.yul\":6053:6393   */\n    tag_89:\n        /* \"#utility.yul\":6109:6114   */\n      0x00\n        /* \"#utility.yul\":6158:6161   */\n      dup3\n        /* \"#utility.yul\":6151:6155   */\n      0x1f\n        /* \"#utility.yul\":6143:6149   */\n      dup4\n        /* \"#utility.yul\":6139:6156   */\n      add\n        /* \"#utility.yul\":6135:6162   */\n      slt\n        /* \"#utility.yul\":6125:6247   */\n      tag_178\n      jumpi\n        /* \"#utility.yul\":6166:6245   */\n      tag_179\n      tag_81\n      jump\t// in\n    tag_179:\n        /* \"#utility.yul\":6125:6247   */\n    tag_178:\n        /* \"#utility.yul\":6283:6289   */\n      dup2\n        /* \"#utility.yul\":6270:6290   */\n      calldataload\n        /* \"#utility.yul\":6308:6387   */\n      tag_180\n        /* \"#utility.yul\":6383:6386   */\n      dup5\n        /* \"#utility.yul\":6375:6381   */\n      dup3\n        /* \"#utility.yul\":6368:6372   */\n      0x20\n        /* \"#utility.yul\":6360:6366   */\n      dup7\n        /* \"#utility.yul\":6356:6373   */\n      add\n        /* \"#utility.yul\":6308:6387   */\n      tag_88\n      jump\t// in\n    tag_180:\n        /* \"#utility.yul\":6299:6387   */\n      swap2\n      pop\n        /* \"#utility.yul\":6115:6393   */\n      pop\n        /* \"#utility.yul\":6053:6393   */\n      swap3\n      swap2\n      pop\n      pop\n      jump\t// out\n        /* \"#utility.yul\":6399:6908   */\n    tag_35:\n        /* \"#utility.yul\":6468:6474   */\n      0x00\n        /* \"#utility.yul\":6517:6519   */\n      0x20\n        /* \"#utility.yul\":6505:6514   */\n      dup3\n        /* \"#utility.yul\":6496:6503   */\n      dup5\n        /* \"#utility.yul\":6492:6515   */\n      sub\n        /* \"#utility.yul\":6488:6520   */\n      slt\n        /* \"#utility.yul\":6485:6604   */\n      iszero\n      tag_182\n      jumpi\n        /* \"#utility.yul\":6523:6602   */\n      tag_183\n      tag_68\n      jump\t// in\n    tag_183:\n        /* \"#utility.yul\":6485:6604   */\n    tag_182:\n        /* \"#utility.yul\":6671:6672   */\n      0x00\n        /* \"#utility.yul\":6660:6669   */\n      dup3\n        /* \"#utility.yul\":6656:6673   */\n      add\n        /* \"#utility.yul\":6643:6674   */\n      calldataload\n        /* \"#utility.yul\":6701:6719   */\n      0xffffffffffffffff\n        /* \"#utility.yul\":6693:6699   */\n      dup2\n        /* \"#utility.yul\":6690:6720   */\n      gt\n        /* \"#utility.yul\":6687:6804   */\n      iszero\n      tag_184\n      jumpi\n        /* \"#utility.yul\":6723:6802   */\n      tag_185\n      tag_69\n      jump\t// in\n    tag_185:\n        /* \"#utility.yul\":6687:6804   */\n    tag_184:\n        /* \"#utility.yul\":6828:6891   */\n      tag_186\n        /* \"#utility.yul\":6883:6890   */\n      dup5\n        /* \"#utility.yul\":6874:6880   */\n      dup3\n        /* \"#utility.yul\":6863:6872   */\n      dup6\n        /* \"#utility.yul\":6859:6881   */\n      add\n        /* \"#utility.yul\":6828:6891   */\n      tag_89\n      jump\t// in\n    tag_186:\n        /* \"#utility.yul\":6818:6891   */\n      swap2\n      pop\n        /* \"#utility.yul\":6614:6901   */\n      pop\n        /* \"#utility.yul\":6399:6908   */\n      swap3\n      swap2\n      pop\n      pop\n      jump\t// out\n        /* \"#utility.yul\":6914:7094   */\n    tag_42:\n        /* \"#utility.yul\":6962:7039   */\n      0x4e487b7100000000000000000000000000000000000000000000000000000000\n        /* \"#utility.yul\":6959:6960   */\n      0x00\n        /* \"#utility.yul\":6952:7040   */\n      mstore\n        /* \"#utility.yul\":7059:7063   */\n      0x32\n        /* \"#utility.yul\":7056:7057   */\n      0x04\n        /* \"#utility.yul\":7049:7064   */\n      mstore\n        /* \"#utility.yul\":7083:7087   */\n      0x24\n        /* \"#utility.yul\":7080:7081   */\n      0x00\n        /* \"#utility.yul\":7073:7088   */\n      revert\n        /* \"#utility.yul\":7100:7280   */\n    tag_90:\n        /* \"#utility.yul\":7148:7225   */\n      0x4e487b7100000000000000000000000000000000000000000000000000000000\n        /* \"#utility.yul\":7145:7146   */\n      0x00\n        /* \"#utility.yul\":7138:7226   */\n      mstore\n        /* \"#utility.yul\":7245:7249   */\n      0x22\n        /* \"#utility.yul\":7242:7243   */\n      0x04\n        /* \"#utility.yul\":7235:7250   */\n      mstore\n        /* \"#utility.yul\":7269:7273   */\n      0x24\n        /* \"#utility.yul\":7266:7267   */\n      0x00\n        /* \"#utility.yul\":7259:7274   */\n      revert\n        /* \"#utility.yul\":7286:7606   */\n    tag_45:\n        /* \"#utility.yul\":7330:7336   */\n      0x00\n        /* \"#utility.yul\":7367:7368   */\n      0x02\n        /* \"#utility.yul\":7361:7365   */\n      dup3\n        /* \"#utility.yul\":7357:7369   */\n      div\n        /* \"#utility.yul\":7347:7369   */\n      swap1\n      pop\n        /* \"#utility.yul\":7414:7415   */\n      0x01\n        /* \"#utility.yul\":7408:7412   */\n      dup3\n        /* \"#utility.yul\":7404:7416   */\n      and\n        /* \"#utility.yul\":7435:7453   */\n      dup1\n        /* \"#utility.yul\":7425:7506   */\n      tag_190\n      jumpi\n        /* \"#utility.yul\":7491:7495   */\n      0x7f\n        /* \"#utility.yul\":7483:7489   */\n      dup3\n        /* \"#utility.yul\":7479:7496   */\n      and\n        /* \"#utility.yul\":7469:7496   */\n      swap2\n      pop\n        /* \"#utility.yul\":7425:7506   */\n    tag_190:\n        /* \"#utility.yul\":7553:7555   */\n      0x20\n        /* \"#utility.yul\":7545:7551   */\n      dup3\n        /* \"#utility.yul\":7542:7556   */\n      lt\n        /* \"#utility.yul\":7522:7540   */\n      dup2\n        /* \"#utility.yul\":7519:7557   */\n      sub\n        /* \"#utility.yul\":7516:7600   */\n      tag_191\n      jumpi\n        /* \"#utility.yul\":7572:7590   */\n      tag_192\n      tag_90\n      jump\t// in\n    tag_192:\n        /* \"#utility.yul\":7516:7600   */\n    tag_191:\n        /* \"#utility.yul\":7337:7606   */\n      pop\n        /* \"#utility.yul\":7286:7606   */\n      swap2\n      swap1\n      pop\n      jump\t// out\n        /* \"#utility.yul\":7612:7753   */\n    tag_91:\n        /* \"#utility.yul\":7661:7665   */\n      0x00\n        /* \"#utility.yul\":7684:7687   */\n      dup2\n        /* \"#utility.yul\":7676:7687   */\n      swap1\n      pop\n        /* \"#utility.yul\":7707:7710   */\n      dup2\n        /* \"#utility.yul\":7704:7705   */\n      0x00\n        /* \"#utility.yul\":7697:7711   */\n      mstore\n        /* \"#utility.yul\":7741:7745   */\n      0x20\n        /* \"#utility.yul\":7738:7739   */\n      0x00\n        /* \"#utility.yul\":7728:7746   */\n      keccak256\n        /* \"#utility.yul\":7720:7746   */\n      swap1\n      pop\n        /* \"#utility.yul\":7612:7753   */\n      swap2\n      swap1\n      pop\n      jump\t// out\n        /* \"#utility.yul\":7759:7852   */\n    tag_92:\n        /* \"#utility.yul\":7796:7802   */\n      0x00\n        /* \"#utility.yul\":7843:7845   */\n      0x20\n        /* \"#utility.yul\":7838:7840   */\n      0x1f\n        /* \"#utility.yul\":7831:7836   */\n      dup4\n        /* \"#utility.yul\":7827:7841   */\n      add\n        /* \"#utility.yul\":7823:7846   */\n      div\n        /* \"#utility.yul\":7813:7846   */\n      swap1\n      pop\n        /* \"#utility.yul\":7759:7852   */\n      swap2\n      swap1\n      pop\n      jump\t// out\n        /* \"#utility.yul\":7858:7965   */\n    tag_93:\n        /* \"#utility.yul\":7902:7910   */\n      0x00\n        /* \"#utility.yul\":7952:7957   */\n      dup3\n        /* \"#utility.yul\":7946:7950   */\n      dup3\n        /* \"#utility.yul\":7942:7958   */\n      shl\n        /* \"#utility.yul\":7921:7958   */\n      swap1\n      pop\n        /* \"#utility.yul\":7858:7965   */\n      swap3\n      swap2\n      pop\n      pop\n      jump\t// out\n        /* \"#utility.yul\":7971:8364   */\n    tag_94:\n        /* \"#utility.yul\":8040:8046   */\n      0x00\n        /* \"#utility.yul\":8090:8091   */\n      0x08\n        /* \"#utility.yul\":8078:8088   */\n      dup4\n        /* \"#utility.yul\":8074:8092   */\n      mul\n        /* \"#utility.yul\":8113:8210   */\n      tag_197\n        /* \"#utility.yul\":8143:8209   */\n      0xffffffffffffffffffffffffffffffffffffffffffffffffffffffffffffffff\n        /* \"#utility.yul\":8132:8141   */\n      dup3\n        /* \"#utility.yul\":8113:8210   */\n      tag_93\n      jump\t// in\n    tag_197:\n        /* \"#utility.yul\":8231:8270   */\n      tag_198\n        /* \"#utility.yul\":8261:8269   */\n      dup7\n        /* \"#utility.yul\":8250:8259   */\n      dup4\n        /* \"#utility.yul\":8231:8270   */\n      tag_93\n      jump\t// in\n    tag_198:\n        /* \"#utility.yul\":8219:8270   */\n      swap6\n      pop\n        /* \"#utility.yul\":8303:8307   */\n      dup1\n        /* \"#utility.yul\":8299:8308   */\n      not\n        /* \"#utility.yul\":8292:8297   */\n      dup5\n        /* \"#utility.yul\":8288:8309   */\n      and\n        /* \"#utility.yul\":8279:8309   */\n      swap4\n      pop\n        /* \"#utility.yul\":8352:8356   */\n      dup1\n        /* \"#utility.yul\":8342:8350   */\n      dup7\n        /* \"#utility.yul\":8338:8357   */\n      and\n        /* \"#utility.yul\":8331:8336   */\n      dup5\n        /* \"#utility.yul\":8328:8358   */\n      or\n        /* \"#utility.yul\":8318:8358   */\n      swap3\n      pop\n        /* \"#utility.yul\":8047:8364   */\n      pop\n      pop\n        /* \"#utility.yul\":7971:8364   */\n      swap4\n      swap3\n      pop\n      pop\n      pop\n      jump\t// out\n        /* \"#utility.yul\":8370:8430   */\n    tag_95:\n        /* \"#utility.yul\":8398:8401   */\n      0x00\n        /* \"#utility.yul\":8419:8424   */\n      dup2\n        /* \"#utility.yul\":8412:8424   */\n      swap1\n      pop\n        /* \"#utility.yul\":8370:8430   */\n      swap2\n      swap1\n      pop\n      jump\t// out\n        /* \"#utility.yul\":8436:8578   */\n    tag_96:\n        /* \"#utility.yul\":8486:8495   */\n      0x00\n        /* \"#utility.yul\":8519:8572   */\n      tag_201\n        /* \"#utility.yul\":8537:8571   */\n      tag_202\n        /* \"#utility.yul\":8546:8570   */\n      tag_203\n        /* \"#utility.yul\":8564:8569   */\n      dup5\n        /* \"#utility.yul\":8546:8570   */\n      tag_70\n      jump\t// in\n    tag_203:\n        /* \"#utility.yul\":8537:8571   */\n      tag_95\n      jump\t// in\n    tag_202:\n        /* \"#utility.yul\":8519:8572   */\n      tag_70\n      jump\t// in\n    tag_201:\n        /* \"#utility.yul\":8506:8572   */\n      swap1\n      pop\n        /* \"#utility.yul\":8436:8578   */\n      swap2\n      swap1\n      pop\n      jump\t// out\n        /* \"#utility.yul\":8584:8659   */\n    tag_97:\n        /* \"#utility.yul\":8627:8630   */\n      0x00\n        /* \"#utility.yul\":8648:8653   */\n      dup2\n        /* \"#utility.yul\":8641:8653   */\n      swap1\n      pop\n        /* \"#utility.yul\":8584:8659   */\n      swap2\n      swap1\n      pop\n      jump\t// out\n        /* \"#utility.yul\":8665:8934   */\n    tag_98:\n        /* \"#utility.yul\":8775:8814   */\n      tag_206\n        /* \"#utility.yul\":8806:8813   */\n      dup4\n        /* \"#utility.yul\":8775:8814   */\n      tag_96\n      jump\t// in\n    tag_206:\n        /* \"#utility.yul\":8836:8927   */\n      tag_207\n        /* \"#utility.yul\":8885:8926   */\n      tag_208\n        /* \"#utility.yul\":8909:8925   */\n      dup3\n        /* \"#utility.yul\":8885:8926   */\n      tag_97\n      jump\t// in\n    tag_208:\n        /* \"#utility.yul\":8877:8883   */\n      dup5\n        /* \"#utility.yul\":8870:8874   */\n      dup5\n        /* \"#utility.yul\":8864:8875   */\n      sload\n        /* \"#utility.yul\":8836:8927   */\n      tag_94\n      jump\t// in\n    tag_207:\n        /* \"#utility.yul\":8830:8834   */\n      dup3\n        /* \"#utility.yul\":8823:8928   */\n      sstore\n        /* \"#utility.yul\":8741:8934   */\n      pop\n        /* \"#utility.yul\":8665:8934   */\n      pop\n      pop\n      pop\n      jump\t// out\n        /* \"#utility.yul\":8940:9013   */\n    tag_99:\n        /* \"#utility.yul\":8985:8988   */\n      0x00\n        /* \"#utility.yul\":8940:9013   */\n      swap1\n      jump\t// out\n        /* \"#utility.yul\":9019:9208   */\n    tag_100:\n        /* \"#utility.yul\":9096:9128   */\n      tag_211\n      tag_99\n      jump\t// in\n    tag_211:\n        /* \"#utility.yul\":9137:9202   */\n      tag_212\n        /* \"#utility.yul\":9195:9201   */\n      dup2\n        /* \"#utility.yul\":9187:9193   */\n      dup5\n        /* \"#utility.yul\":9181:9185   */\n      dup5\n        /* \"#utility.yul\":9137:9202   */\n      tag_98\n      jump\t// in\n    tag_212:\n        /* \"#utility.yul\":9072:9208   */\n      pop\n        /* \"#utility.yul\":9019:9208   */\n      pop\n      pop\n      jump\t// out\n        /* \"#utility.yul\":9214:9400   */\n    tag_101:\n        /* \"#utility.yul\":9274:9394   */\n    tag_214:\n        /* \"#utility.yul\":9291:9294   */\n      dup2\n        /* \"#utility.yul\":9284:9289   */\n      dup2\n        /* \"#utility.yul\":9281:9295   */\n      lt\n        /* \"#utility.yul\":9274:9394   */\n      iszero\n      tag_216\n      jumpi\n        /* \"#utility.yul\":9345:9384   */\n      tag_217\n        /* \"#utility.yul\":9382:9383   */\n      0x00\n        /* \"#utility.yul\":9375:9380   */\n      dup3\n        /* \"#utility.yul\":9345:9384   */\n      tag_100\n      jump\t// in\n    tag_217:\n        /* \"#utility.yul\":9318:9319   */\n      0x01\n        /* \"#utility.yul\":9311:9316   */\n      dup2\n        /* \"#utility.yul\":9307:9320   */\n      add\n        /* \"#utility.yul\":9298:9320   */\n      swap1\n      pop\n        /* \"#utility.yul\":9274:9394   */\n      jump(tag_214)\n    tag_216:\n        /* \"#utility.yul\":9214:9400   */\n      pop\n      pop\n      jump\t// out\n        /* \"#utility.yul\":9406:9949   */\n    tag_102:\n        /* \"#utility.yul\":9507:9509   */\n      0x1f\n        /* \"#utility.yul\":9502:9505   */\n      dup3\n        /* \"#utility.yul\":9499:9510   */\n      gt\n        /* \"#utility.yul\":9496:9942   */\n      iszero\n      tag_219\n      jumpi\n        /* \"#utility.yul\":9541:9579   */\n      tag_220\n        /* \"#utility.yul\":9573:9578   */\n      dup2\n        /* \"#utility.yul\":9541:9579   */\n      tag_91\n      jump\t// in\n    tag_220:\n        /* \"#utility.yul\":9625:9654   */\n      tag_221\n        /* \"#utility.yul\":9643:9653   */\n      dup5\n        /* \"#utility.yul\":9625:9654   */\n      tag_92\n      jump\t// in\n    tag_221:\n        /* \"#utility.yul\":9615:9623   */\n      dup2\n        /* \"#utility.yul\":9611:9655   */\n      add\n        /* \"#utility.yul\":9808:9810   */\n      0x20\n        /* \"#utility.yul\":9796:9806   */\n      dup6\n        /* \"#utility.yul\":9793:9811   */\n      lt\n        /* \"#utility.yul\":9790:9839   */\n      iszero\n      tag_222\n      jumpi\n        /* \"#utility.yul\":9829:9837   */\n      dup2\n        /* \"#utility.yul\":9814:9837   */\n      swap1\n      pop\n        /* \"#utility.yul\":9790:9839   */\n    tag_222:\n        /* \"#utility.yul\":9852:9932   */\n      tag_223\n        /* \"#utility.yul\":9908:9930   */\n      tag_224\n        /* \"#utility.yul\":9926:9929   */\n      dup6\n        /* \"#utility.yul\":9908:9930   */\n      tag_92\n      jump\t// in\n    tag_224:\n        /* \"#utility.yul\":9898:9906   */\n      dup4\n        /* \"#utility.yul\":9894:9931   */\n      add\n        /* \"#utility.yul\":9881:9892   */\n      dup3\n        /* \"#utility.yul\":9852:9932   */\n      tag_101\n      jump\t// in\n    tag_223:\n        /* \"#utility.yul\":9511:9942   */\n      pop\n      pop\n        /* \"#utility.yul\":9496:9942   */\n    tag_219:\n        /* \"#utility.yul\":9406:9949   */\n      pop\n      pop\n      pop\n      jump\t// out\n        /* \"#utility.yul\":9955:10072   */\n    tag_103:\n        /* \"#utility.yul\":10009:10017   */\n      0x00\n        /* \"#utility.yul\":10059:10064   */\n      dup3\n        /* \"#utility.yul\":10053:10057   */\n      dup3\n        /* \"#utility.yul\":10049:10065   */\n      shr\n        /* \"#utility.yul\":10028:10065   */\n      swap1\n      pop\n        /* \"#utility.yul\":9955:10072   */\n      swap3\n      swap2\n      pop\n      pop\n      jump\t// out\n        /* \"#utility.yul\":10078:10247   */\n    tag_104:\n        /* \"#utility.yul\":10122:10128   */\n      0x00\n        /* \"#utility.yul\":10155:10206   */\n      tag_227\n        /* \"#utility.yul\":10203:10204   */\n      0x00\n        /* \"#utility.yul\":10199:10205   */\n      not\n        /* \"#utility.yul\":10191:10196   */\n      dup5\n        /* \"#utility.yul\":10188:10189   */\n      0x08\n        /* \"#utility.yul\":10184:10197   */\n      mul\n        /* \"#utility.yul\":10155:10206   */\n      tag_103\n      jump\t// in\n    tag_227:\n        /* \"#utility.yul\":10151:10207   */\n      not\n        /* \"#utility.yul\":10236:10240   */\n      dup1\n        /* \"#utility.yul\":10230:10234   */\n      dup4\n        /* \"#utility.yul\":10226:10241   */\n      and\n        /* \"#utility.yul\":10216:10241   */\n      swap2\n      pop\n        /* \"#utility.yul\":10129:10247   */\n      pop\n        /* \"#utility.yul\":10078:10247   */\n      swap3\n      swap2\n      pop\n      pop\n      jump\t// out\n        /* \"#utility.yul\":10252:10547   */\n    tag_105:\n        /* \"#utility.yul\":10328:10332   */\n      0x00\n        /* \"#utility.yul\":10474:10503   */\n      tag_229\n        /* \"#utility.yul\":10499:10502   */\n      dup4\n        /* \"#utility.yul\":10493:10497   */\n      dup4\n        /* \"#utility.yul\":10474:10503   */\n      tag_104\n      jump\t// in\n    tag_229:\n        /* \"#utility.yul\":10466:10503   */\n      swap2\n      pop\n        /* \"#utility.yul\":10536:10539   */\n      dup3\n        /* \"#utility.yul\":10533:10534   */\n      0x02\n        /* \"#utility.yul\":10529:10540   */\n      mul\n        /* \"#utility.yul\":10523:10527   */\n      dup3\n        /* \"#utility.yul\":10520:10541   */\n      or\n        /* \"#utility.yul\":10512:10541   */\n      swap1\n      pop\n        /* \"#utility.yul\":10252:10547   */\n      swap3\n      swap2\n      pop\n      pop\n      jump\t// out\n        /* \"#utility.yul\":10552:11947   */\n    tag_63:\n        /* \"#utility.yul\":10669:10706   */\n      tag_231\n        /* \"#utility.yul\":10702:10705   */\n      dup3\n        /* \"#utility.yul\":10669:10706   */\n      tag_76\n      jump\t// in\n    tag_231:\n        /* \"#utility.yul\":10771:10789   */\n      0xffffffffffffffff\n        /* \"#utility.yul\":10763:10769   */\n      dup2\n        /* \"#utility.yul\":10760:10790   */\n      gt\n        /* \"#utility.yul\":10757:10813   */\n      iszero\n      tag_232\n      jumpi\n        /* \"#utility.yul\":10793:10811   */\n      tag_233\n      tag_83\n      jump\t// in\n    tag_233:\n        /* \"#utility.yul\":10757:10813   */\n    tag_232:\n        /* \"#utility.yul\":10837:10875   */\n      tag_234\n        /* \"#utility.yul\":10869:10873   */\n      dup3\n        /* \"#utility.yul\":10863:10874   */\n      sload\n        /* \"#utility.yul\":10837:10875   */\n      tag_45\n      jump\t// in\n    tag_234:\n        /* \"#utility.yul\":10922:10989   */\n      tag_235\n        /* \"#utility.yul\":10982:10988   */\n      dup3\n        /* \"#utility.yul\":10974:10980   */\n      dup3\n        /* \"#utility.yul\":10968:10972   */\n      dup6\n        /* \"#utility.yul\":10922:10989   */\n      tag_102\n      jump\t// in\n    tag_235:\n        /* \"#utility.yul\":11016:11017   */\n      0x00\n        /* \"#utility.yul\":11040:11044   */\n      0x20\n        /* \"#utility.yul\":11027:11044   */\n      swap1\n      pop\n        /* \"#utility.yul\":11072:11074   */\n      0x1f\n        /* \"#utility.yul\":11064:11070   */\n      dup4\n        /* \"#utility.yul\":11061:11075   */\n      gt\n        /* \"#utility.yul\":11089:11090   */\n      0x01\n        /* \"#utility.yul\":11084:11702   */\n      dup2\n      eq\n      tag_237\n      jumpi\n        /* \"#utility.yul\":11746:11747   */\n      0x00\n        /* \"#utility.yul\":11763:11769   */\n      dup5\n        /* \"#utility.yul\":11760:11837   */\n      iszero\n      tag_238\n      jumpi\n        /* \"#utility.yul\":11812:11821   */\n      dup3\n        /* \"#utility.yul\":11807:11810   */\n      dup8\n        /* \"#utility.yul\":11803:11822   */\n      add\n        /* \"#utility.yul\":11797:11823   */\n      mload\n        /* \"#utility.yul\":11788:11823   */\n      swap1\n      pop\n        /* \"#utility.yul\":11760:11837   */\n    tag_238:\n        /* \"#utility.yul\":11863:11930   */\n      tag_239\n        /* \"#utility.yul\":11923:11929   */\n      dup6\n        /* \"#utility.yul\":11916:11921   */\n      dup3\n        /* \"#utility.yul\":11863:11930   */\n      tag_105\n      jump\t// in\n    tag_239:\n        /* \"#utility.yul\":11857:11861   */\n      dup7\n        /* \"#utility.yul\":11850:11931   */\n      sstore\n        /* \"#utility.yul\":11719:11941   */\n      pop\n        /* \"#utility.yul\":11054:11941   */\n      jump(tag_236)\n        /* \"#utility.yul\":11084:11702   */\n    tag_237:\n        /* \"#utility.yul\":11136:11140   */\n      0x1f\n        /* \"#utility.yul\":11132:11141   */\n      not\n        /* \"#utility.yul\":11124:11130   */\n      dup5\n        /* \"#utility.yul\":11120:11142   */\n      and\n        /* \"#utility.yul\":11170:11207   */\n      tag_240\n        /* \"#utility.yul\":11202:11206   */\n      dup7\n        /* \"#utility.yul\":11170:11207   */\n      tag_91\n      jump\t// in\n    tag_240:\n        /* \"#utility.yul\":11229:11230   */\n      0x00\n        /* \"#utility.yul\":11243:11451   */\n    tag_241:\n        /* \"#utility.yul\":11257:11264   */\n      dup3\n        /* \"#utility.yul\":11254:11255   */\n      dup2\n        /* \"#utility.yul\":11251:11265   */\n      lt\n        /* \"#utility.yul\":11243:11451   */\n      iszero\n      tag_243\n      jumpi\n        /* \"#utility.yul\":11336:11345   */\n      dup5\n        /* \"#utility.yul\":11331:11334   */\n      dup10\n        /* \"#utility.yul\":11327:11346   */\n      add\n        /* \"#utility.yul\":11321:11347   */\n      mload\n        /* \"#utility.yul\":11313:11319   */\n      dup3\n        /* \"#utility.yul\":11306:11348   */\n      sstore\n        /* \"#utility.yul\":11387:11388   */\n      0x01\n        /* \"#utility.yul\":11379:11385   */\n      dup3\n        /* \"#utility.yul\":11375:11389   */\n      add\n        /* \"#utility.yul\":11365:11389   */\n      swap2\n      pop\n        /* \"#utility.yul\":11434:11436   */\n      0x20\n        /* \"#utility.yul\":11423:11432   */\n      dup6\n        /* \"#utility.yul\":11419:11437   */\n      add\n        /* \"#utility.yul\":11406:11437   */\n      swap5\n      pop\n        /* \"#utility.yul\":11280:11284   */\n      0x20\n        /* \"#utility.yul\":11277:11278   */\n      dup2\n        /* \"#utility.yul\":11273:11285   */\n      add\n        /* \"#utility.yul\":11268:11285   */\n      swap1\n      pop\n        /* \"#utility.yul\":11243:11451   */\n      jump(tag_241)\n    tag_243:\n        /* \"#utility.yul\":11479:11485   */\n      dup7\n        /* \"#utility.yul\":11470:11477   */\n      dup4\n        /* \"#utility.yul\":11467:11486   */\n      lt\n        /* \"#utility.yul\":11464:11643   */\n      iszero\n      tag_244\n      jumpi\n        /* \"#utility.yul\":11537:11546   */\n      dup5\n        /* \"#utility.yul\":11532:11535   */\n      dup10\n        /* \"#utility.yul\":11528:11547   */\n      add\n        /* \"#utility.yul\":11522:11548   */\n      mload\n        /* \"#utility.yul\":11580:11628   */\n      tag_245\n        /* \"#utility.yul\":11622:11626   */\n      0x1f\n        /* \"#utility.yul\":11614:11620   */\n      dup10\n        /* \"#utility.yul\":11610:11627   */\n      and\n        /* \"#utility.yul\":11599:11608   */\n      dup3\n        /* \"#utility.yul\":11580:11628   */\n      tag_104\n      jump\t// in\n    tag_245:\n        /* \"#utility.yul\":11572:11578   */\n      dup4\n        /* \"#utility.yul\":11565:11629   */\n      sstore\n        /* \"#utility.yul\":11487:11643   */\n      pop\n        /* \"#utility.yul\":11464:11643   */\n    tag_244:\n        /* \"#utility.yul\":11689:11690   */\n      0x01\n        /* \"#utility.yul\":11685:11686   */\n      0x02\n        /* \"#utility.yul\":11677:11683   */\n      dup9\n        /* \"#utility.yul\":11673:11687   */\n      mul\n        /* \"#utility.yul\":11669:11691   */\n      add\n        /* \"#utility.yul\":11663:11667   */\n      dup9\n        /* \"#utility.yul\":11656:11692   */\n      sstore\n        /* \"#utility.yul\":11091:11702   */\n      pop\n      pop\n      pop\n        /* \"#utility.yul\":11054:11941   */\n    tag_236:\n      pop\n        /* \"#utility.yul\":10644:11947   */\n      pop\n      pop\n      pop\n        /* \"#utility.yul\":10552:11947   */\n      pop\n      pop\n      jump\t// out\n\n    auxdata: 0xa2646970667358221220955a6318b5f756a883c4396f55db78ca1fc3595ce60a742b5f8ec3c94327571564736f6c634300081a0033\n}\n",
				"bytecode": {
					"linkReferences": {},
					"object": "6080604052348015600e575f80fd5b50610a098061001c5f395ff3fe608060405234801561000f575f80fd5b5060043610610060575f3560e01c806338cc4831146100645780634308cf35146100825780635cf3d346146100b25780635fd4b08a146100e25780637ff04d4814610112578063c47f00271461012e575b5f80fd5b61006c61014a565b6040516100799190610397565b60405180910390f35b61009c600480360381019061009791906103f4565b610151565b6040516100a9919061042e565b60405180910390f35b6100cc60048036038101906100c79190610471565b61017b565b6040516100d9919061050c565b60405180910390f35b6100fc60048036038101906100f79190610471565b610215565b604051610109919061050c565b60405180910390f35b61012c6004803603810190610127919061052c565b6102e1565b005b61014860048036038101906101439190610696565b61030b565b005b5f33905090565b5f6004821061015e575f80fd5b60018260038110610172576101716106dd565b5b01549050919050565b5f602052805f5260405f205f91509050805461019690610737565b80601f01602080910402602001604051908101604052809291908181526020018280546101c290610737565b801561020d5780601f106101e45761010080835404028352916020019161020d565b820191905f5260205f20905b8154815290600101906020018083116101f057829003601f168201915b505050505081565b60605f808373ffffffffffffffffffffffffffffffffffffffff1673ffffffffffffffffffffffffffffffffffffffff1681526020019081526020015f20805461025e90610737565b80601f016020809104026020016040519081016040528092919081815260200182805461028a90610737565b80156102d55780601f106102ac576101008083540402835291602001916102d5565b820191905f5260205f20905b8154815290600101906020018083116102b857829003601f168201915b50505050509050919050565b600481106102ed575f80fd5b8160018260038110610302576103016106dd565b5b01819055505050565b805f803373ffffffffffffffffffffffffffffffffffffffff1673ffffffffffffffffffffffffffffffffffffffff1681526020019081526020015f2090816103549190610904565b5050565b5f73ffffffffffffffffffffffffffffffffffffffff82169050919050565b5f61038182610358565b9050919050565b61039181610377565b82525050565b5f6020820190506103aa5f830184610388565b92915050565b5f604051905090565b5f80fd5b5f80fd5b5f819050919050565b6103d3816103c1565b81146103dd575f80fd5b50565b5f813590506103ee816103ca565b92915050565b5f60208284031215610409576104086103b9565b5b5f610416848285016103e0565b91505092915050565b610428816103c1565b82525050565b5f6020820190506104415f83018461041f565b92915050565b61045081610377565b811461045a575f80fd5b50565b5f8135905061046b81610447565b92915050565b5f60208284031215610486576104856103b9565b5b5f6104938482850161045d565b91505092915050565b5f81519050919050565b5f82825260208201905092915050565b8281835e5f83830152505050565b5f601f19601f8301169050919050565b5f6104de8261049c565b6104e881856104a6565b93506104f88185602086016104b6565b610501816104c4565b840191505092915050565b5f6020820190508181035f83015261052481846104d4565b905092915050565b5f8060408385031215610542576105416103b9565b5b5f61054f858286016103e0565b9250506020610560858286016103e0565b9150509250929050565b5f80fd5b5f80fd5b7f4e487b71000000000000000000000000000000000000000000000000000000005f52604160045260245ffd5b6105a8826104c4565b810181811067ffffffffffffffff821117156105c7576105c6610572565b5b80604052505050565b5f6105d96103b0565b90506105e5828261059f565b919050565b5f67ffffffffffffffff82111561060457610603610572565b5b61060d826104c4565b9050602081019050919050565b828183375f83830152505050565b5f61063a610635846105ea565b6105d0565b9050828152602081018484840111156106565761065561056e565b5b61066184828561061a565b509392505050565b5f82601f83011261067d5761067c61056a565b5b813561068d848260208601610628565b91505092915050565b5f602082840312156106ab576106aa6103b9565b5b5f82013567ffffffffffffffff8111156106c8576106c76103bd565b5b6106d484828501610669565b91505092915050565b7f4e487b71000000000000000000000000000000000000000000000000000000005f52603260045260245ffd5b7f4e487b71000000000000000000000000000000000000000000000000000000005f52602260045260245ffd5b5f600282049050600182168061074e57607f821691505b6020821081036107615761076061070a565b5b50919050565b5f819050815f5260205f209050919050565b5f6020601f8301049050919050565b5f82821b905092915050565b5f600883026107c37fffffffffffffffffffffffffffffffffffffffffffffffffffffffffffffffff82610788565b6107cd8683610788565b95508019841693508086168417925050509392505050565b5f819050919050565b5f6108086108036107fe846103c1565b6107e5565b6103c1565b9050919050565b5f819050919050565b610821836107ee565b61083561082d8261080f565b848454610794565b825550505050565b5f90565b61084961083d565b610854818484610818565b505050565b5b818110156108775761086c5f82610841565b60018101905061085a565b5050565b601f8211156108bc5761088d81610767565b61089684610779565b810160208510156108a5578190505b6108b96108b185610779565b830182610859565b50505b505050565b5f82821c905092915050565b5f6108dc5f19846008026108c1565b1980831691505092915050565b5f6108f483836108cd565b9150826002028217905092915050565b61090d8261049c565b67ffffffffffffffff81111561092657610925610572565b5b6109308254610737565b61093b82828561087b565b5f60209050601f83116001811461096c575f841561095a578287015190505b61096485826108e9565b8655506109cb565b601f19841661097a86610767565b5f5b828110156109a15784890151825560018201915060208501945060208101905061097c565b868310156109be57848901516109ba601f8916826108cd565b8355505b6001600288020188555050505b50505050505056fea2646970667358221220955a6318b5f756a883c4396f55db78ca1fc3595ce60a742b5f8ec3c94327571564736f6c634300081a0033",
					"opcodes": "PUSH1 0x80 PUSH1 0x40 MSTORE CALLVALUE DUP1 ISZERO PUSH1 0xE JUMPI PUSH0 DUP1 REVERT JUMPDEST POP PUSH2 0xA09 DUP1 PUSH2 0x1C PUSH0 CODECOPY PUSH0 RETURN INVALID PUSH1 0x80 PUSH1 0x40 MSTORE CALLVALUE DUP1 ISZERO PUSH2 0xF JUMPI PUSH0 DUP1 REVERT JUMPDEST POP PUSH1 0x4 CALLDATASIZE LT PUSH2 0x60 JUMPI PUSH0 CALLDATALOAD PUSH1 0xE0 SHR DUP1 PUSH4 0x38CC4831 EQ PUSH2 0x64 JUMPI DUP1 PUSH4 0x4308CF35 EQ PUSH2 0x82 JUMPI DUP1 PUSH4 0x5CF3D346 EQ PUSH2 0xB2 JUMPI DUP1 PUSH4 0x5FD4B08A EQ PUSH2 0xE2 JUMPI DUP1 PUSH4 0x7FF04D48 EQ PUSH2 0x112 JUMPI DUP1 PUSH4 0xC47F0027 EQ PUSH2 0x12E JUMPI JUMPDEST PUSH0 DUP1 REVERT JUMPDEST PUSH2 0x6C PUSH2 0x14A JUMP JUMPDEST PUSH1 0x40 MLOAD PUSH2 0x79 SWAP2 SWAP1 PUSH2 0x397 JUMP JUMPDEST PUSH1 0x40 MLOAD DUP1 SWAP2 SUB SWAP1 RETURN JUMPDEST PUSH2 0x9C PUSH1 0x4 DUP1 CALLDATASIZE SUB DUP2 ADD SWAP1 PUSH2 0x97 SWAP2 SWAP1 PUSH2 0x3F4 JUMP JUMPDEST PUSH2 0x151 JUMP JUMPDEST PUSH1 0x40 MLOAD PUSH2 0xA9 SWAP2 SWAP1 PUSH2 0x42E JUMP JUMPDEST PUSH1 0x40 MLOAD DUP1 SWAP2 SUB SWAP1 RETURN JUMPDEST PUSH2 0xCC PUSH1 0x4 DUP1 CALLDATASIZE SUB DUP2 ADD SWAP1 PUSH2 0xC7 SWAP2 SWAP1 PUSH2 0x471 JUMP JUMPDEST PUSH2 0x17B JUMP JUMPDEST PUSH1 0x40 MLOAD PUSH2 0xD9 SWAP2 SWAP1 PUSH2 0x50C JUMP JUMPDEST PUSH1 0x40 MLOAD DUP1 SWAP2 SUB SWAP1 RETURN JUMPDEST PUSH2 0xFC PUSH1 0x4 DUP1 CALLDATASIZE SUB DUP2 ADD SWAP1 PUSH2 0xF7 SWAP2 SWAP1 PUSH2 0x471 JUMP JUMPDEST PUSH2 0x215 JUMP JUMPDEST PUSH1 0x40 MLOAD PUSH2 0x109 SWAP2 SWAP1 PUSH2 0x50C JUMP JUMPDEST PUSH1 0x40 MLOAD DUP1 SWAP2 SUB SWAP1 RETURN JUMPDEST PUSH2 0x12C PUSH1 0x4 DUP1 CALLDATASIZE SUB DUP2 ADD SWAP1 PUSH2 0x127 SWAP2 SWAP1 PUSH2 0x52C JUMP JUMPDEST PUSH2 0x2E1 JUMP JUMPDEST STOP JUMPDEST PUSH2 0x148 PUSH1 0x4 DUP1 CALLDATASIZE SUB DUP2 ADD SWAP1 PUSH2 0x143 SWAP2 SWAP1 PUSH2 0x696 JUMP JUMPDEST PUSH2 0x30B JUMP JUMPDEST STOP JUMPDEST PUSH0 CALLER SWAP1 POP SWAP1 JUMP JUMPDEST PUSH0 PUSH1 0x4 DUP3 LT PUSH2 0x15E JUMPI PUSH0 DUP1 REVERT JUMPDEST PUSH1 0x1 DUP3 PUSH1 0x3 DUP2 LT PUSH2 0x172 JUMPI PUSH2 0x171 PUSH2 0x6DD JUMP JUMPDEST JUMPDEST ADD SLOAD SWAP1 POP SWAP2 SWAP1 POP JUMP JUMPDEST PUSH0 PUSH1 0x20 MSTORE DUP1 PUSH0 MSTORE PUSH1 0x40 PUSH0 KECCAK256 PUSH0 SWAP2 POP SWAP1 POP DUP1 SLOAD PUSH2 0x196 SWAP1 PUSH2 0x737 JUMP JUMPDEST DUP1 PUSH1 0x1F ADD PUSH1 0x20 DUP1 SWAP2 DIV MUL PUSH1 0x20 ADD PUSH1 0x40 MLOAD SWAP1 DUP2 ADD PUSH1 0x40 MSTORE DUP1 SWAP3 SWAP2 SWAP1 DUP2 DUP2 MSTORE PUSH1 0x20 ADD DUP3 DUP1 SLOAD PUSH2 0x1C2 SWAP1 PUSH2 0x737 JUMP JUMPDEST DUP1 ISZERO PUSH2 0x20D JUMPI DUP1 PUSH1 0x1F LT PUSH2 0x1E4 JUMPI PUSH2 0x100 DUP1 DUP4 SLOAD DIV MUL DUP4 MSTORE SWAP2 PUSH1 0x20 ADD SWAP2 PUSH2 0x20D JUMP JUMPDEST DUP3 ADD SWAP2 SWAP1 PUSH0 MSTORE PUSH1 0x20 PUSH0 KECCAK256 SWAP1 JUMPDEST DUP2 SLOAD DUP2 MSTORE SWAP1 PUSH1 0x1 ADD SWAP1 PUSH1 0x20 ADD DUP1 DUP4 GT PUSH2 0x1F0 JUMPI DUP3 SWAP1 SUB PUSH1 0x1F AND DUP3 ADD SWAP2 JUMPDEST POP POP POP POP POP DUP2 JUMP JUMPDEST PUSH1 0x60 PUSH0 DUP1 DUP4 PUSH20 0xFFFFFFFFFFFFFFFFFFFFFFFFFFFFFFFFFFFFFFFF AND PUSH20 0xFFFFFFFFFFFFFFFFFFFFFFFFFFFFFFFFFFFFFFFF AND DUP2 MSTORE PUSH1 0x20 ADD SWAP1 DUP2 MSTORE PUSH1 0x20 ADD PUSH0 KECCAK256 DUP1 SLOAD PUSH2 0x25E SWAP1 PUSH2 0x737 JUMP JUMPDEST DUP1 PUSH1 0x1F ADD PUSH1 0x20 DUP1 SWAP2 DIV MUL PUSH1 0x20 ADD PUSH1 0x40 MLOAD SWAP1 DUP2 ADD PUSH1 0x40 MSTORE DUP1 SWAP3 SWAP2 SWAP1 DUP2 DUP2 MSTORE PUSH1 0x20 ADD DUP3 DUP1 SLOAD PUSH2 0x28A SWAP1 PUSH2 0x737 JUMP JUMPDEST DUP1 ISZERO PUSH2 0x2D5 JUMPI DUP1 PUSH1 0x1F LT PUSH2 0x2AC JUMPI PUSH2 0x100 DUP1 DUP4 SLOAD DIV MUL DUP4 MSTORE SWAP2 PUSH1 0x20 ADD SWAP2 PUSH2 0x2D5 JUMP JUMPDEST DUP3 ADD SWAP2 SWAP1 PUSH0 MSTORE PUSH1 0x20 PUSH0 KECCAK256 SWAP1 JUMPDEST DUP2 SLOAD DUP2 MSTORE SWAP1 PUSH1 0x1 ADD SWAP1 PUSH1 0x20 ADD DUP1 DUP4 GT PUSH2 0x2B8 JUMPI DUP3 SWAP1 SUB PUSH1 0x1F AND DUP3 ADD SWAP2 JUMPDEST POP POP POP POP POP SWAP1 POP SWAP2 SWAP1 POP JUMP JUMPDEST PUSH1 0x4 DUP2 LT PUSH2 0x2ED JUMPI PUSH0 DUP1 REVERT JUMPDEST DUP2 PUSH1 0x1 DUP3 PUSH1 0x3 DUP2 LT PUSH2 0x302 JUMPI PUSH2 0x301 PUSH2 0x6DD JUMP JUMPDEST JUMPDEST ADD DUP2 SWAP1 SSTORE POP POP POP JUMP JUMPDEST DUP1 PUSH0 DUP1 CALLER PUSH20 0xFFFFFFFFFFFFFFFFFFFFFFFFFFFFFFFFFFFFFFFF AND PUSH20 0xFFFFFFFFFFFFFFFFFFFFFFFFFFFFFFFFFFFFFFFF AND DUP2 MSTORE PUSH1 0x20 ADD SWAP1 DUP2 MSTORE PUSH1 0x20 ADD PUSH0 KECCAK256 SWAP1 DUP2 PUSH2 0x354 SWAP2 SWAP1 PUSH2 0x904 JUMP JUMPDEST POP POP JUMP JUMPDEST PUSH0 PUSH20 0xFFFFFFFFFFFFFFFFFFFFFFFFFFFFFFFFFFFFFFFF DUP3 AND SWAP1 POP SWAP2 SWAP1 POP JUMP JUMPDEST PUSH0 PUSH2 0x381 DUP3 PUSH2 0x358 JUMP JUMPDEST SWAP1 POP SWAP2 SWAP1 POP JUMP JUMPDEST PUSH2 0x391 DUP2 PUSH2 0x377 JUMP JUMPDEST DUP3 MSTORE POP POP JUMP JUMPDEST PUSH0 PUSH1 0x20 DUP3 ADD SWAP1 POP PUSH2 0x3AA PUSH0 DUP4 ADD DUP5 PUSH2 0x388 JUMP JUMPDEST SWAP3 SWAP2 POP POP JUMP JUMPDEST PUSH0 PUSH1 0x40 MLOAD SWAP1 POP SWAP1 JUMP JUMPDEST PUSH0 DUP1 REVERT JUMPDEST PUSH0 DUP1 REVERT JUMPDEST PUSH0 DUP2 SWAP1 POP SWAP2 SWAP1 POP JUMP JUMPDEST PUSH2 0x3D3 DUP2 PUSH2 0x3C1 JUMP JUMPDEST DUP2 EQ PUSH2 0x3DD JUMPI PUSH0 DUP1 REVERT JUMPDEST POP JUMP JUMPDEST PUSH0 DUP2 CALLDATALOAD SWAP1 POP PUSH2 0x3EE DUP2 PUSH2 0x3CA JUMP JUMPDEST SWAP3 SWAP2 POP POP JUMP JUMPDEST PUSH0 PUSH1 0x20 DUP3 DUP5 SUB SLT ISZERO PUSH2 0x409 JUMPI PUSH2 0x408 PUSH2 0x3B9 JUMP JUMPDEST JUMPDEST PUSH0 PUSH2 0x416 DUP5 DUP3 DUP6 ADD PUSH2 0x3E0 JUMP JUMPDEST SWAP2 POP POP SWAP3 SWAP2 POP POP JUMP JUMPDEST PUSH2 0x428 DUP2 PUSH2 0x3C1 JUMP JUMPDEST DUP3 MSTORE POP POP JUMP JUMPDEST PUSH0 PUSH1 0x20 DUP3 ADD SWAP1 POP PUSH2 0x441 PUSH0 DUP4 ADD DUP5 PUSH2 0x41F JUMP JUMPDEST SWAP3 SWAP2 POP POP JUMP JUMPDEST PUSH2 0x450 DUP2 PUSH2 0x377 JUMP JUMPDEST DUP2 EQ PUSH2 0x45A JUMPI PUSH0 DUP1 REVERT JUMPDEST POP JUMP JUMPDEST PUSH0 DUP2 CALLDATALOAD SWAP1 POP PUSH2 0x46B DUP2 PUSH2 0x447 JUMP JUMPDEST SWAP3 SWAP2 POP POP JUMP JUMPDEST PUSH0 PUSH1 0x20 DUP3 DUP5 SUB SLT ISZERO PUSH2 0x486 JUMPI PUSH2 0x485 PUSH2 0x3B9 JUMP JUMPDEST JUMPDEST PUSH0 PUSH2 0x493 DUP5 DUP3 DUP6 ADD PUSH2 0x45D JUMP JUMPDEST SWAP2 POP POP SWAP3 SWAP2 POP POP JUMP JUMPDEST PUSH0 DUP2 MLOAD SWAP1 POP SWAP2 SWAP1 POP JUMP JUMPDEST PUSH0 DUP3 DUP3 MSTORE PUSH1 0x20 DUP3 ADD SWAP1 POP SWAP3 SWAP2 POP POP JUMP JUMPDEST DUP3 DUP2 DUP4 MCOPY PUSH0 DUP4 DUP4 ADD MSTORE POP POP POP JUMP JUMPDEST PUSH0 PUSH1 0x1F NOT PUSH1 0x1F DUP4 ADD AND SWAP1 POP SWAP2 SWAP1 POP JUMP JUMPDEST PUSH0 PUSH2 0x4DE DUP3 PUSH2 0x49C JUMP JUMPDEST PUSH2 0x4E8 DUP2 DUP6 PUSH2 0x4A6 JUMP JUMPDEST SWAP4 POP PUSH2 0x4F8 DUP2 DUP6 PUSH1 0x20 DUP7 ADD PUSH2 0x4B6 JUMP JUMPDEST PUSH2 0x501 DUP2 PUSH2 0x4C4 JUMP JUMPDEST DUP5 ADD SWAP2 POP POP SWAP3 SWAP2 POP POP JUMP JUMPDEST PUSH0 PUSH1 0x20 DUP3 ADD SWAP1 POP DUP2 DUP2 SUB PUSH0 DUP4 ADD MSTORE PUSH2 0x524 DUP2 DUP5 PUSH2 0x4D4 JUMP JUMPDEST SWAP1 POP SWAP3 SWAP2 POP POP JUMP JUMPDEST PUSH0 DUP1 PUSH1 0x40 DUP4 DUP6 SUB SLT ISZERO PUSH2 0x542 JUMPI PUSH2 0x541 PUSH2 0x3B9 JUMP JUMPDEST JUMPDEST PUSH0 PUSH2 0x54F DUP6 DUP3 DUP7 ADD PUSH2 0x3E0 JUMP JUMPDEST SWAP3 POP POP PUSH1 0x20 PUSH2 0x560 DUP6 DUP3 DUP7 ADD PUSH2 0x3E0 JUMP JUMPDEST SWAP2 POP POP SWAP3 POP SWAP3 SWAP1 POP JUMP JUMPDEST PUSH0 DUP1 REVERT JUMPDEST PUSH0 DUP1 REVERT JUMPDEST PUSH32 0x4E487B7100000000000000000000000000000000000000000000000000000000 PUSH0 MSTORE PUSH1 0x41 PUSH1 0x4 MSTORE PUSH1 0x24 PUSH0 REVERT JUMPDEST PUSH2 0x5A8 DUP3 PUSH2 0x4C4 JUMP JUMPDEST DUP2 ADD DUP2 DUP2 LT PUSH8 0xFFFFFFFFFFFFFFFF DUP3 GT OR ISZERO PUSH2 0x5C7 JUMPI PUSH2 0x5C6 PUSH2 0x572 JUMP JUMPDEST JUMPDEST DUP1 PUSH1 0x40 MSTORE POP POP POP JUMP JUMPDEST PUSH0 PUSH2 0x5D9 PUSH2 0x3B0 JUMP JUMPDEST SWAP1 POP PUSH2 0x5E5 DUP3 DUP3 PUSH2 0x59F JUMP JUMPDEST SWAP2 SWAP1 POP JUMP JUMPDEST PUSH0 PUSH8 0xFFFFFFFFFFFFFFFF DUP3 GT ISZERO PUSH2 0x604 JUMPI PUSH2 0x603 PUSH2 0x572 JUMP JUMPDEST JUMPDEST PUSH2 0x60D DUP3 PUSH2 0x4C4 JUMP JUMPDEST SWAP1 POP PUSH1 0x20 DUP2 ADD SWAP1 POP SWAP2 SWAP1 POP JUMP JUMPDEST DUP3 DUP2 DUP4 CALLDATACOPY PUSH0 DUP4 DUP4 ADD MSTORE POP POP POP JUMP JUMPDEST PUSH0 PUSH2 0x63A PUSH2 0x635 DUP5 PUSH2 0x5EA JUMP JUMPDEST PUSH2 0x5D0 JUMP JUMPDEST SWAP1 POP DUP3 DUP2 MSTORE PUSH1 0x20 DUP2 ADD DUP5 DUP5 DUP5 ADD GT ISZERO PUSH2 0x656 JUMPI PUSH2 0x655 PUSH2 0x56E JUMP JUMPDEST JUMPDEST PUSH2 0x661 DUP5 DUP3 DUP6 PUSH2 0x61A JUMP JUMPDEST POP SWAP4 SWAP3 POP POP POP JUMP JUMPDEST PUSH0 DUP3 PUSH1 0x1F DUP4 ADD SLT PUSH2 0x67D JUMPI PUSH2 0x67C PUSH2 0x56A JUMP JUMPDEST JUMPDEST DUP2 CALLDATALOAD PUSH2 0x68D DUP5 DUP3 PUSH1 0x20 DUP7 ADD PUSH2 0x628 JUMP JUMPDEST SWAP2 POP POP SWAP3 SWAP2 POP POP JUMP JUMPDEST PUSH0 PUSH1 0x20 DUP3 DUP5 SUB SLT ISZERO PUSH2 0x6AB JUMPI PUSH2 0x6AA PUSH2 0x3B9 JUMP JUMPDEST JUMPDEST PUSH0 DUP3 ADD CALLDATALOAD PUSH8 0xFFFFFFFFFFFFFFFF DUP2 GT ISZERO PUSH2 0x6C8 JUMPI PUSH2 0x6C7 PUSH2 0x3BD JUMP JUMPDEST JUMPDEST PUSH2 0x6D4 DUP5 DUP3 DUP6 ADD PUSH2 0x669 JUMP JUMPDEST SWAP2 POP POP SWAP3 SWAP2 POP POP JUMP JUMPDEST PUSH32 0x4E487B7100000000000000000000000000000000000000000000000000000000 PUSH0 MSTORE PUSH1 0x32 PUSH1 0x4 MSTORE PUSH1 0x24 PUSH0 REVERT JUMPDEST PUSH32 0x4E487B7100000000000000000000000000000000000000000000000000000000 PUSH0 MSTORE PUSH1 0x22 PUSH1 0x4 MSTORE PUSH1 0x24 PUSH0 REVERT JUMPDEST PUSH0 PUSH1 0x2 DUP3 DIV SWAP1 POP PUSH1 0x1 DUP3 AND DUP1 PUSH2 0x74E JUMPI PUSH1 0x7F DUP3 AND SWAP2 POP JUMPDEST PUSH1 0x20 DUP3 LT DUP2 SUB PUSH2 0x761 JUMPI PUSH2 0x760 PUSH2 0x70A JUMP JUMPDEST JUMPDEST POP SWAP2 SWAP1 POP JUMP JUMPDEST PUSH0 DUP2 SWAP1 POP DUP2 PUSH0 MSTORE PUSH1 0x20 PUSH0 KECCAK256 SWAP1 POP SWAP2 SWAP1 POP JUMP JUMPDEST PUSH0 PUSH1 0x20 PUSH1 0x1F DUP4 ADD DIV SWAP1 POP SWAP2 SWAP1 POP JUMP JUMPDEST PUSH0 DUP3 DUP3 SHL SWAP1 POP SWAP3 SWAP2 POP POP JUMP JUMPDEST PUSH0 PUSH1 0x8 DUP4 MUL PUSH2 0x7C3 PUSH32 0xFFFFFFFFFFFFFFFFFFFFFFFFFFFFFFFFFFFFFFFFFFFFFFFFFFFFFFFFFFFFFFFF DUP3 PUSH2 0x788 JUMP JUMPDEST PUSH2 0x7CD DUP7 DUP4 PUSH2 0x788 JUMP JUMPDEST SWAP6 POP DUP1 NOT DUP5 AND SWAP4 POP DUP1 DUP7 AND DUP5 OR SWAP3 POP POP POP SWAP4 SWAP3 POP POP POP JUMP JUMPDEST PUSH0 DUP2 SWAP1 POP SWAP2 SWAP1 POP JUMP JUMPDEST PUSH0 PUSH2 0x808 PUSH2 0x803 PUSH2 0x7FE DUP5 PUSH2 0x3C1 JUMP JUMPDEST PUSH2 0x7E5 JUMP JUMPDEST PUSH2 0x3C1 JUMP JUMPDEST SWAP1 POP SWAP2 SWAP1 POP JUMP JUMPDEST PUSH0 DUP2 SWAP1 POP SWAP2 SWAP1 POP JUMP JUMPDEST PUSH2 0x821 DUP4 PUSH2 0x7EE JUMP JUMPDEST PUSH2 0x835 PUSH2 0x82D DUP3 PUSH2 0x80F JUMP JUMPDEST DUP5 DUP5 SLOAD PUSH2 0x794 JUMP JUMPDEST DUP3 SSTORE POP POP POP POP JUMP JUMPDEST PUSH0 SWAP1 JUMP JUMPDEST PUSH2 0x849 PUSH2 0x83D JUMP JUMPDEST PUSH2 0x854 DUP2 DUP5 DUP5 PUSH2 0x818 JUMP JUMPDEST POP POP POP JUMP JUMPDEST JUMPDEST DUP2 DUP2 LT ISZERO PUSH2 0x877 JUMPI PUSH2 0x86C PUSH0 DUP3 PUSH2 0x841 JUMP JUMPDEST PUSH1 0x1 DUP2 ADD SWAP1 POP PUSH2 0x85A JUMP JUMPDEST POP POP JUMP JUMPDEST PUSH1 0x1F DUP3 GT ISZERO PUSH2 0x8BC JUMPI PUSH2 0x88D DUP2 PUSH2 0x767 JUMP JUMPDEST PUSH2 0x896 DUP5 PUSH2 0x779 JUMP JUMPDEST DUP2 ADD PUSH1 0x20 DUP6 LT ISZERO PUSH2 0x8A5 JUMPI DUP2 SWAP1 POP JUMPDEST PUSH2 0x8B9 PUSH2 0x8B1 DUP6 PUSH2 0x779 JUMP JUMPDEST DUP4 ADD DUP3 PUSH2 0x859 JUMP JUMPDEST POP POP JUMPDEST POP POP POP JUMP JUMPDEST PUSH0 DUP3 DUP3 SHR SWAP1 POP SWAP3 SWAP2 POP POP JUMP JUMPDEST PUSH0 PUSH2 0x8DC PUSH0 NOT DUP5 PUSH1 0x8 MUL PUSH2 0x8C1 JUMP JUMPDEST NOT DUP1 DUP4 AND SWAP2 POP POP SWAP3 SWAP2 POP POP JUMP JUMPDEST PUSH0 PUSH2 0x8F4 DUP4 DUP4 PUSH2 0x8CD JUMP JUMPDEST SWAP2 POP DUP3 PUSH1 0x2 MUL DUP3 OR SWAP1 POP SWAP3 SWAP2 POP POP JUMP JUMPDEST PUSH2 0x90D DUP3 PUSH2 0x49C JUMP JUMPDEST PUSH8 0xFFFFFFFFFFFFFFFF DUP2 GT ISZERO PUSH2 0x926 JUMPI PUSH2 0x925 PUSH2 0x572 JUMP JUMPDEST JUMPDEST PUSH2 0x930 DUP3 SLOAD PUSH2 0x737 JUMP JUMPDEST PUSH2 0x93B DUP3 DUP3 DUP6 PUSH2 0x87B JUMP JUMPDEST PUSH0 PUSH1 0x20 SWAP1 POP PUSH1 0x1F DUP4 GT PUSH1 0x1 DUP2 EQ PUSH2 0x96C JUMPI PUSH0 DUP5 ISZERO PUSH2 0x95A JUMPI DUP3 DUP8 ADD MLOAD SWAP1 POP JUMPDEST PUSH2 0x964 DUP6 DUP3 PUSH2 0x8E9 JUMP JUMPDEST DUP7 SSTORE POP PUSH2 0x9CB JUMP JUMPDEST PUSH1 0x1F NOT DUP5 AND PUSH2 0x97A DUP7 PUSH2 0x767 JUMP JUMPDEST PUSH0 JUMPDEST DUP3 DUP2 LT ISZERO PUSH2 0x9A1 JUMPI DUP5 DUP10 ADD MLOAD DUP3 SSTORE PUSH1 0x1 DUP3 ADD SWAP2 POP PUSH1 0x20 DUP6 ADD SWAP5 POP PUSH1 0x20 DUP2 ADD SWAP1 POP PUSH2 0x97C JUMP JUMPDEST DUP7 DUP4 LT ISZERO PUSH2 0x9BE JUMPI DUP5 DUP10 ADD MLOAD PUSH2 0x9BA PUSH1 0x1F DUP10 AND DUP3 PUSH2 0x8CD JUMP JUMPDEST DUP4 SSTORE POP JUMPDEST PUSH1 0x1 PUSH1 0x2 DUP9 MUL ADD DUP9 SSTORE POP POP POP JUMPDEST POP POP POP POP POP POP JUMP INVALID LOG2 PUSH5 0x6970667358 0x22 SLT KECCAK256 SWAP6 GAS PUSH4 0x18B5F756 0xA8 DUP4 0xC4 CODECOPY PUSH16 0x55DB78CA1FC3595CE60A742B5F8EC3C9 NUMBER 0x27 JUMPI ISZERO PUSH5 0x736F6C6343 STOP ADDMOD BYTE STOP CALLER "
				},
				"gasEstimates": {
					"creation": {
						"codeDepositCost": "513800",
						"executionCost": "547",
						"totalCost": "514347"
					},
					"external": {
						"getAddress()": "357",
						"getArr(uint256)": "infinite",
						"getName(address)": "infinite",
						"names(address)": "infinite",
						"setArr(uint256,uint256)": "infinite",
						"setName(string)": "infinite"
					}
				},
				"methodIdentifiers": {
					"getAddress()": "38cc4831",
					"getArr(uint256)": "4308cf35",
					"getName(address)": "5fd4b08a",
					"names(address)": "5cf3d346",
					"setArr(uint256,uint256)": "7ff04d48",
					"setName(string)": "c47f0027"
				}
			},
			"storageLayout": {
				"storage": [
					{
						"astId": 5,
						"contract": "contracts/NameRegistry.sol:NameRegistry",
						"label": "names",
						"offset": 0,
						"slot": "0",
						"type": "t_mapping(t_address,t_string_storage)"
					},
					{
						"astId": 9,
						"contract": "contracts/NameRegistry.sol:NameRegistry",
						"label": "arr",
						"offset": 0,
						"slot": "1",
						"type": "t_array(t_uint256)3_storage"
					}
				],
				"types": {
					"t_address": {
						"encoding": "inplace",
						"label": "address",
						"numberOfBytes": "20"
					},
					"t_array(t_uint256)3_storage": {
						"base": "t_uint256",
						"encoding": "inplace",
						"label": "uint256[3]",
						"numberOfBytes": "96"
					},
					"t_mapping(t_address,t_string_storage)": {
						"encoding": "mapping",
						"key": "t_address",
						"label": "mapping(address => string)",
						"numberOfBytes": "32",
						"value": "t_string_storage"
					},
					"t_string_storage": {
						"encoding": "bytes",
						"label": "string",
						"numberOfBytes": "32"
					},
					"t_uint256": {
						"encoding": "inplace",
						"label": "uint256",
						"numberOfBytes": "32"
					}
				}
			},
			"userdoc": {
				"kind": "user",
				"methods": {},
				"version": 1
			}
		}
	}
}