{
	"contracts/WillPayable.sol": {
		"WillPayable": {
			"abi": [
				{
					"inputs": [
						{
							"internalType": "address payable",
							"name": "_recipientAddress",
							"type": "address"
						}
					],
					"stateMutability": "nonpayable",
					"type": "constructor"
				},
				{
					"inputs": [
						{
							"internalType": "address payable",
							"name": "_recipientAddress",
							"type": "address"
						}
					],
					"name": "changeRecipientAddress",
					"outputs": [],
					"stateMutability": "nonpayable",
					"type": "function"
				},
				{
					"inputs": [],
					"name": "depositMoney",
					"outputs": [],
					"stateMutability": "payable",
					"type": "function"
				},
				{
					"inputs": [],
					"name": "ownerAddress",
					"outputs": [
						{
							"internalType": "address",
							"name": "",
							"type": "address"
						}
					],
					"stateMutability": "view",
					"type": "function"
				},
				{
					"inputs": [],
					"name": "passedTime",
					"outputs": [
						{
							"internalType": "uint256",
							"name": "",
							"type": "uint256"
						}
					],
					"stateMutability": "view",
					"type": "function"
				},
				{
					"inputs": [],
					"name": "ping",
					"outputs": [
						{
							"internalType": "string",
							"name": "",
							"type": "string"
						}
					],
					"stateMutability": "nonpayable",
					"type": "function"
				},
				{
					"inputs": [],
					"name": "recipientAddress",
					"outputs": [
						{
							"internalType": "address",
							"name": "",
							"type": "address"
						}
					],
					"stateMutability": "view",
					"type": "function"
				},
				{
					"inputs": [],
					"name": "totalMoney",
					"outputs": [
						{
							"internalType": "uint256",
							"name": "",
							"type": "uint256"
						}
					],
					"stateMutability": "view",
					"type": "function"
				},
				{
					"inputs": [],
					"name": "withdrawMoney",
					"outputs": [],
					"stateMutability": "nonpayable",
					"type": "function"
				}
			],
			"devdoc": {
				"kind": "dev",
				"methods": {},
				"version": 1
			},
			"evm": {
				"assembly": "    /* \"contracts/WillPayable.sol\":118:1320  contract WillPayable {... */\n  mstore(0x40, 0x80)\n    /* \"contracts/WillPayable.sol\":275:406  constructor(address payable _recipientAddress){... */\n  callvalue\n  dup1\n  iszero\n  tag_1\n  jumpi\n  0x00\n  dup1\n  revert\ntag_1:\n  pop\n  mload(0x40)\n  sub(codesize, bytecodeSize)\n  dup1\n  bytecodeSize\n  dup4\n  codecopy\n  dup2\n  dup2\n  add\n  0x40\n  mstore\n  dup2\n  add\n  swap1\n  tag_2\n  swap2\n  swap1\n  tag_3\n  jump\t// in\ntag_2:\n    /* \"contracts/WillPayable.sol\":344:354  msg.sender */\n  caller\n    /* \"contracts/WillPayable.sol\":331:343  ownerAddress */\n  0x00\n  dup1\n    /* \"contracts/WillPayable.sol\":331:354  ownerAddress=msg.sender */\n  0x0100\n  exp\n  dup2\n  sload\n  dup2\n  0xffffffffffffffffffffffffffffffffffffffff\n  mul\n  not\n  and\n  swap1\n  dup4\n  0xffffffffffffffffffffffffffffffffffffffff\n  and\n  mul\n  or\n  swap1\n  sstore\n  pop\n    /* \"contracts/WillPayable.sol\":381:398  _recipientAddress */\n  dup1\n    /* \"contracts/WillPayable.sol\":364:380  recipientAddress */\n  0x01\n  0x00\n    /* \"contracts/WillPayable.sol\":364:398  recipientAddress=_recipientAddress */\n  0x0100\n  exp\n  dup2\n  sload\n  dup2\n  0xffffffffffffffffffffffffffffffffffffffff\n  mul\n  not\n  and\n  swap1\n  dup4\n  0xffffffffffffffffffffffffffffffffffffffff\n  and\n  mul\n  or\n  swap1\n  sstore\n  pop\n    /* \"contracts/WillPayable.sol\":275:406  constructor(address payable _recipientAddress){... */\n  pop\n    /* \"contracts/WillPayable.sol\":118:1320  contract WillPayable {... */\n  jump(tag_6)\n    /* \"#utility.yul\":88:205   */\ntag_8:\n    /* \"#utility.yul\":197:198   */\n  0x00\n    /* \"#utility.yul\":194:195   */\n  dup1\n    /* \"#utility.yul\":187:199   */\n  revert\n    /* \"#utility.yul\":334:460   */\ntag_10:\n    /* \"#utility.yul\":371:378   */\n  0x00\n    /* \"#utility.yul\":411:453   */\n  0xffffffffffffffffffffffffffffffffffffffff\n    /* \"#utility.yul\":404:409   */\n  dup3\n    /* \"#utility.yul\":400:454   */\n  and\n    /* \"#utility.yul\":389:454   */\n  swap1\n  pop\n    /* \"#utility.yul\":334:460   */\n  swap2\n  swap1\n  pop\n  jump\t// out\n    /* \"#utility.yul\":466:570   */\ntag_11:\n    /* \"#utility.yul\":511:518   */\n  0x00\n    /* \"#utility.yul\":540:564   */\n  tag_20\n    /* \"#utility.yul\":558:563   */\n  dup3\n    /* \"#utility.yul\":540:564   */\n  tag_10\n  jump\t// in\ntag_20:\n    /* \"#utility.yul\":529:564   */\n  swap1\n  pop\n    /* \"#utility.yul\":466:570   */\n  swap2\n  swap1\n  pop\n  jump\t// out\n    /* \"#utility.yul\":576:714   */\ntag_12:\n    /* \"#utility.yul\":657:689   */\n  tag_22\n    /* \"#utility.yul\":683:688   */\n  dup2\n    /* \"#utility.yul\":657:689   */\n  tag_11\n  jump\t// in\ntag_22:\n    /* \"#utility.yul\":650:655   */\n  dup2\n    /* \"#utility.yul\":647:690   */\n  eq\n    /* \"#utility.yul\":637:708   */\n  tag_23\n  jumpi\n    /* \"#utility.yul\":704:705   */\n  0x00\n    /* \"#utility.yul\":701:702   */\n  dup1\n    /* \"#utility.yul\":694:706   */\n  revert\n    /* \"#utility.yul\":637:708   */\ntag_23:\n    /* \"#utility.yul\":576:714   */\n  pop\n  jump\t// out\n    /* \"#utility.yul\":720:879   */\ntag_13:\n    /* \"#utility.yul\":785:790   */\n  0x00\n    /* \"#utility.yul\":816:822   */\n  dup2\n    /* \"#utility.yul\":810:823   */\n  mload\n    /* \"#utility.yul\":801:823   */\n  swap1\n  pop\n    /* \"#utility.yul\":832:873   */\n  tag_25\n    /* \"#utility.yul\":867:872   */\n  dup2\n    /* \"#utility.yul\":832:873   */\n  tag_12\n  jump\t// in\ntag_25:\n    /* \"#utility.yul\":720:879   */\n  swap3\n  swap2\n  pop\n  pop\n  jump\t// out\n    /* \"#utility.yul\":885:1252   */\ntag_3:\n    /* \"#utility.yul\":963:969   */\n  0x00\n    /* \"#utility.yul\":1012:1014   */\n  0x20\n    /* \"#utility.yul\":1000:1009   */\n  dup3\n    /* \"#utility.yul\":991:998   */\n  dup5\n    /* \"#utility.yul\":987:1010   */\n  sub\n    /* \"#utility.yul\":983:1015   */\n  slt\n    /* \"#utility.yul\":980:1099   */\n  iszero\n  tag_27\n  jumpi\n    /* \"#utility.yul\":1018:1097   */\n  tag_28\n  tag_8\n  jump\t// in\ntag_28:\n    /* \"#utility.yul\":980:1099   */\ntag_27:\n    /* \"#utility.yul\":1138:1139   */\n  0x00\n    /* \"#utility.yul\":1163:1235   */\n  tag_29\n    /* \"#utility.yul\":1227:1234   */\n  dup5\n    /* \"#utility.yul\":1218:1224   */\n  dup3\n    /* \"#utility.yul\":1207:1216   */\n  dup6\n    /* \"#utility.yul\":1203:1225   */\n  add\n    /* \"#utility.yul\":1163:1235   */\n  tag_13\n  jump\t// in\ntag_29:\n    /* \"#utility.yul\":1153:1235   */\n  swap2\n  pop\n    /* \"#utility.yul\":1109:1245   */\n  pop\n    /* \"#utility.yul\":885:1252   */\n  swap3\n  swap2\n  pop\n  pop\n  jump\t// out\n    /* \"contracts/WillPayable.sol\":118:1320  contract WillPayable {... */\ntag_6:\n  dataSize(sub_0)\n  dup1\n  dataOffset(sub_0)\n  0x00\n  codecopy\n  0x00\n  return\nstop\n\nsub_0: assembly {\n        /* \"contracts/WillPayable.sol\":118:1320  contract WillPayable {... */\n      mstore(0x40, 0x80)\n      jumpi(tag_1, lt(calldatasize, 0x04))\n      shr(0xe0, calldataload(0x00))\n      dup1\n      0x5c36b186\n      gt\n      tag_10\n      jumpi\n      dup1\n      0x5c36b186\n      eq\n      tag_6\n      jumpi\n      dup1\n      0x87da21e3\n      eq\n      tag_7\n      jumpi\n      dup1\n      0x8f84aa09\n      eq\n      tag_8\n      jumpi\n      dup1\n      0xac446002\n      eq\n      tag_9\n      jumpi\n      jump(tag_1)\n    tag_10:\n      dup1\n      0x11f74313\n      eq\n      tag_2\n      jumpi\n      dup1\n      0x16c05aa2\n      eq\n      tag_3\n      jumpi\n      dup1\n      0x4bf9407f\n      eq\n      tag_4\n      jumpi\n      dup1\n      0x5aff5999\n      eq\n      tag_5\n      jumpi\n    tag_1:\n      0x00\n      dup1\n      revert\n        /* \"contracts/WillPayable.sol\":245:267  uint public passedTime */\n    tag_2:\n      callvalue\n      dup1\n      iszero\n      tag_11\n      jumpi\n      0x00\n      dup1\n      revert\n    tag_11:\n      pop\n      tag_12\n      tag_13\n      jump\t// in\n    tag_12:\n      mload(0x40)\n      tag_14\n      swap2\n      swap1\n      tag_15\n      jump\t// in\n    tag_14:\n      mload(0x40)\n      dup1\n      swap2\n      sub\n      swap1\n      return\n        /* \"contracts/WillPayable.sol\":801:886  function depositMoney() public payable onlyOwner{... */\n    tag_3:\n      tag_16\n      tag_17\n      jump\t// in\n    tag_16:\n      stop\n        /* \"contracts/WillPayable.sol\":522:657  function changeRecipientAddress(address payable _recipientAddress) public onlyOwner{... */\n    tag_4:\n      callvalue\n      dup1\n      iszero\n      tag_18\n      jumpi\n      0x00\n      dup1\n      revert\n    tag_18:\n      pop\n      tag_19\n      0x04\n      dup1\n      calldatasize\n      sub\n      dup2\n      add\n      swap1\n      tag_20\n      swap2\n      swap1\n      tag_21\n      jump\t// in\n    tag_20:\n      tag_22\n      jump\t// in\n    tag_19:\n      stop\n        /* \"contracts/WillPayable.sol\":179:210  address public recipientAddress */\n    tag_5:\n      callvalue\n      dup1\n      iszero\n      tag_23\n      jumpi\n      0x00\n      dup1\n      revert\n    tag_23:\n      pop\n      tag_24\n      tag_25\n      jump\t// in\n    tag_24:\n      mload(0x40)\n      tag_26\n      swap2\n      swap1\n      tag_27\n      jump\t// in\n    tag_26:\n      mload(0x40)\n      dup1\n      swap2\n      sub\n      swap1\n      return\n        /* \"contracts/WillPayable.sol\":664:794  function ping() public onlyOwner returns (string memory) {... */\n    tag_6:\n      callvalue\n      dup1\n      iszero\n      tag_28\n      jumpi\n      0x00\n      dup1\n      revert\n    tag_28:\n      pop\n      tag_29\n      tag_30\n      jump\t// in\n    tag_29:\n      mload(0x40)\n      tag_31\n      swap2\n      swap1\n      tag_32\n      jump\t// in\n    tag_31:\n      mload(0x40)\n      dup1\n      swap2\n      sub\n      swap1\n      return\n        /* \"contracts/WillPayable.sol\":216:239  uint public  totalMoney */\n    tag_7:\n      callvalue\n      dup1\n      iszero\n      tag_33\n      jumpi\n      0x00\n      dup1\n      revert\n    tag_33:\n      pop\n      tag_34\n      tag_35\n      jump\t// in\n    tag_34:\n      mload(0x40)\n      tag_36\n      swap2\n      swap1\n      tag_15\n      jump\t// in\n    tag_36:\n      mload(0x40)\n      dup1\n      swap2\n      sub\n      swap1\n      return\n        /* \"contracts/WillPayable.sol\":146:173  address public ownerAddress */\n    tag_8:\n      callvalue\n      dup1\n      iszero\n      tag_37\n      jumpi\n      0x00\n      dup1\n      revert\n    tag_37:\n      pop\n      tag_38\n      tag_39\n      jump\t// in\n    tag_38:\n      mload(0x40)\n      tag_40\n      swap2\n      swap1\n      tag_27\n      jump\t// in\n    tag_40:\n      mload(0x40)\n      dup1\n      swap2\n      sub\n      swap1\n      return\n        /* \"contracts/WillPayable.sol\":893:1317  function withdrawMoney() public  {... */\n    tag_9:\n      callvalue\n      dup1\n      iszero\n      tag_41\n      jumpi\n      0x00\n      dup1\n      revert\n    tag_41:\n      pop\n      tag_42\n      tag_43\n      jump\t// in\n    tag_42:\n      stop\n        /* \"contracts/WillPayable.sol\":245:267  uint public passedTime */\n    tag_13:\n      sload(0x03)\n      dup2\n      jump\t// out\n        /* \"contracts/WillPayable.sol\":801:886  function depositMoney() public payable onlyOwner{... */\n    tag_17:\n        /* \"contracts/WillPayable.sol\":463:475  ownerAddress */\n      0x00\n      dup1\n      sload\n      swap1\n      0x0100\n      exp\n      swap1\n      div\n      0xffffffffffffffffffffffffffffffffffffffff\n      and\n        /* \"contracts/WillPayable.sol\":451:475  msg.sender==ownerAddress */\n      0xffffffffffffffffffffffffffffffffffffffff\n      and\n        /* \"contracts/WillPayable.sol\":451:461  msg.sender */\n      caller\n        /* \"contracts/WillPayable.sol\":451:475  msg.sender==ownerAddress */\n      0xffffffffffffffffffffffffffffffffffffffff\n      and\n      eq\n        /* \"contracts/WillPayable.sol\":443:496  require(msg.sender==ownerAddress,\"You are not owner\") */\n      tag_45\n      jumpi\n      mload(0x40)\n      0x08c379a000000000000000000000000000000000000000000000000000000000\n      dup2\n      mstore\n      0x04\n      add\n      tag_46\n      swap1\n      tag_47\n      jump\t// in\n    tag_46:\n      mload(0x40)\n      dup1\n      swap2\n      sub\n      swap1\n      revert\n    tag_45:\n        /* \"contracts/WillPayable.sol\":869:878  msg.value */\n      callvalue\n        /* \"contracts/WillPayable.sol\":857:867  totalMoney */\n      0x02\n      0x00\n        /* \"contracts/WillPayable.sol\":857:878  totalMoney+=msg.value */\n      dup3\n      dup3\n      sload\n      tag_49\n      swap2\n      swap1\n      tag_50\n      jump\t// in\n    tag_49:\n      swap3\n      pop\n      pop\n      dup2\n      swap1\n      sstore\n      pop\n        /* \"contracts/WillPayable.sol\":801:886  function depositMoney() public payable onlyOwner{... */\n      jump\t// out\n        /* \"contracts/WillPayable.sol\":522:657  function changeRecipientAddress(address payable _recipientAddress) public onlyOwner{... */\n    tag_22:\n        /* \"contracts/WillPayable.sol\":463:475  ownerAddress */\n      0x00\n      dup1\n      sload\n      swap1\n      0x0100\n      exp\n      swap1\n      div\n      0xffffffffffffffffffffffffffffffffffffffff\n      and\n        /* \"contracts/WillPayable.sol\":451:475  msg.sender==ownerAddress */\n      0xffffffffffffffffffffffffffffffffffffffff\n      and\n        /* \"contracts/WillPayable.sol\":451:461  msg.sender */\n      caller\n        /* \"contracts/WillPayable.sol\":451:475  msg.sender==ownerAddress */\n      0xffffffffffffffffffffffffffffffffffffffff\n      and\n      eq\n        /* \"contracts/WillPayable.sol\":443:496  require(msg.sender==ownerAddress,\"You are not owner\") */\n      tag_52\n      jumpi\n      mload(0x40)\n      0x08c379a000000000000000000000000000000000000000000000000000000000\n      dup2\n      mstore\n      0x04\n      add\n      tag_53\n      swap1\n      tag_47\n      jump\t// in\n    tag_53:\n      mload(0x40)\n      dup1\n      swap2\n      sub\n      swap1\n      revert\n    tag_52:\n        /* \"contracts/WillPayable.sol\":632:649  _recipientAddress */\n      dup1\n        /* \"contracts/WillPayable.sol\":615:631  recipientAddress */\n      0x01\n      0x00\n        /* \"contracts/WillPayable.sol\":615:649  recipientAddress=_recipientAddress */\n      0x0100\n      exp\n      dup2\n      sload\n      dup2\n      0xffffffffffffffffffffffffffffffffffffffff\n      mul\n      not\n      and\n      swap1\n      dup4\n      0xffffffffffffffffffffffffffffffffffffffff\n      and\n      mul\n      or\n      swap1\n      sstore\n      pop\n        /* \"contracts/WillPayable.sol\":522:657  function changeRecipientAddress(address payable _recipientAddress) public onlyOwner{... */\n      pop\n      jump\t// out\n        /* \"contracts/WillPayable.sol\":179:210  address public recipientAddress */\n    tag_25:\n      0x01\n      0x00\n      swap1\n      sload\n      swap1\n      0x0100\n      exp\n      swap1\n      div\n      0xffffffffffffffffffffffffffffffffffffffff\n      and\n      dup2\n      jump\t// out\n        /* \"contracts/WillPayable.sol\":664:794  function ping() public onlyOwner returns (string memory) {... */\n    tag_30:\n        /* \"contracts/WillPayable.sol\":706:719  string memory */\n      0x60\n        /* \"contracts/WillPayable.sol\":463:475  ownerAddress */\n      0x00\n      dup1\n      sload\n      swap1\n      0x0100\n      exp\n      swap1\n      div\n      0xffffffffffffffffffffffffffffffffffffffff\n      and\n        /* \"contracts/WillPayable.sol\":451:475  msg.sender==ownerAddress */\n      0xffffffffffffffffffffffffffffffffffffffff\n      and\n        /* \"contracts/WillPayable.sol\":451:461  msg.sender */\n      caller\n        /* \"contracts/WillPayable.sol\":451:475  msg.sender==ownerAddress */\n      0xffffffffffffffffffffffffffffffffffffffff\n      and\n      eq\n        /* \"contracts/WillPayable.sol\":443:496  require(msg.sender==ownerAddress,\"You are not owner\") */\n      tag_56\n      jumpi\n      mload(0x40)\n      0x08c379a000000000000000000000000000000000000000000000000000000000\n      dup2\n      mstore\n      0x04\n      add\n      tag_57\n      swap1\n      tag_47\n      jump\t// in\n    tag_57:\n      mload(0x40)\n      dup1\n      swap2\n      sub\n      swap1\n      revert\n    tag_56:\n        /* \"contracts/WillPayable.sol\":741:756  block.timestamp */\n      timestamp\n        /* \"contracts/WillPayable.sol\":730:740  passedTime */\n      0x03\n        /* \"contracts/WillPayable.sol\":730:756  passedTime=block.timestamp */\n      dup2\n      swap1\n      sstore\n      pop\n        /* \"contracts/WillPayable.sol\":765:786  return \"Admin pinged\" */\n      mload(0x40)\n      dup1\n      0x40\n      add\n      0x40\n      mstore\n      dup1\n      0x0c\n      dup2\n      mstore\n      0x20\n      add\n      0x41646d696e2070696e6765640000000000000000000000000000000000000000\n      dup2\n      mstore\n      pop\n      swap1\n      pop\n        /* \"contracts/WillPayable.sol\":664:794  function ping() public onlyOwner returns (string memory) {... */\n      swap1\n      jump\t// out\n        /* \"contracts/WillPayable.sol\":216:239  uint public  totalMoney */\n    tag_35:\n      sload(0x02)\n      dup2\n      jump\t// out\n        /* \"contracts/WillPayable.sol\":146:173  address public ownerAddress */\n    tag_39:\n      0x00\n      dup1\n      sload\n      swap1\n      0x0100\n      exp\n      swap1\n      div\n      0xffffffffffffffffffffffffffffffffffffffff\n      and\n      dup2\n      jump\t// out\n        /* \"contracts/WillPayable.sol\":893:1317  function withdrawMoney() public  {... */\n    tag_43:\n        /* \"contracts/WillPayable.sol\":935:953  uint passedOneHour */\n      0x00\n        /* \"contracts/WillPayable.sol\":954:961  1 hours */\n      0x0e10\n        /* \"contracts/WillPayable.sol\":935:961  uint passedOneHour=1 hours */\n      swap1\n      pop\n        /* \"contracts/WillPayable.sol\":970:984  uint totalTime */\n      0x00\n        /* \"contracts/WillPayable.sol\":1001:1011  passedTime */\n      sload(0x03)\n        /* \"contracts/WillPayable.sol\":985:1000  block.timestamp */\n      timestamp\n        /* \"contracts/WillPayable.sol\":985:1011  block.timestamp-passedTime */\n      tag_60\n      swap2\n      swap1\n      tag_61\n      jump\t// in\n    tag_60:\n        /* \"contracts/WillPayable.sol\":970:1011  uint totalTime=block.timestamp-passedTime */\n      swap1\n      pop\n        /* \"contracts/WillPayable.sol\":1094:1115  string memory message */\n      0x00\n        /* \"contracts/WillPayable.sol\":1156:1183  Strings.toString(totalTime) */\n      tag_62\n        /* \"contracts/WillPayable.sol\":1173:1182  totalTime */\n      dup3\n        /* \"contracts/WillPayable.sol\":1156:1172  Strings.toString */\n      tag_63\n        /* \"contracts/WillPayable.sol\":1156:1183  Strings.toString(totalTime) */\n      jump\t// in\n    tag_62:\n        /* \"contracts/WillPayable.sol\":1116:1184  string.concat(\"Time passed : (in sec) \",Strings.toString(totalTime)) */\n      add(0x20, mload(0x40))\n      tag_64\n      swap2\n      swap1\n      tag_65\n      jump\t// in\n    tag_64:\n      mload(0x40)\n      0x20\n      dup2\n      dup4\n      sub\n      sub\n      dup2\n      mstore\n      swap1\n      0x40\n      mstore\n        /* \"contracts/WillPayable.sol\":1094:1184  string memory message=string.concat(\"Time passed : (in sec) \",Strings.toString(totalTime)) */\n      swap1\n      pop\n        /* \"contracts/WillPayable.sol\":1211:1224  passedOneHour */\n      dup3\n        /* \"contracts/WillPayable.sol\":1201:1210  totalTime */\n      dup3\n        /* \"contracts/WillPayable.sol\":1201:1224  totalTime>passedOneHour */\n      gt\n        /* \"contracts/WillPayable.sol\":1225:1232  message */\n      dup2\n        /* \"contracts/WillPayable.sol\":1193:1233  require(totalTime>passedOneHour,message) */\n      swap1\n      tag_66\n      jumpi\n      mload(0x40)\n      0x08c379a000000000000000000000000000000000000000000000000000000000\n      dup2\n      mstore\n      0x04\n      add\n      tag_67\n      swap2\n      swap1\n      tag_32\n      jump\t// in\n    tag_67:\n      mload(0x40)\n      dup1\n      swap2\n      sub\n      swap1\n      revert\n    tag_66:\n      pop\n        /* \"contracts/WillPayable.sol\":1250:1266  recipientAddress */\n      0x01\n      0x00\n      swap1\n      sload\n      swap1\n      0x0100\n      exp\n      swap1\n      div\n      0xffffffffffffffffffffffffffffffffffffffff\n      and\n        /* \"contracts/WillPayable.sol\":1242:1276  payable(recipientAddress).transfer */\n      0xffffffffffffffffffffffffffffffffffffffff\n      and\n        /* \"contracts/WillPayable.sol\":1242:1288  payable(recipientAddress).transfer(totalMoney) */\n      0x08fc\n        /* \"contracts/WillPayable.sol\":1277:1287  totalMoney */\n      sload(0x02)\n        /* \"contracts/WillPayable.sol\":1242:1288  payable(recipientAddress).transfer(totalMoney) */\n      swap1\n      dup2\n      iszero\n      mul\n      swap1\n      mload(0x40)\n      0x00\n      mload(0x40)\n      dup1\n      dup4\n      sub\n      dup2\n      dup6\n      dup9\n      dup9\n      call\n      swap4\n      pop\n      pop\n      pop\n      pop\n      iszero\n      dup1\n      iszero\n      tag_69\n      jumpi\n      returndatasize\n      0x00\n      dup1\n      returndatacopy\n      revert(0x00, returndatasize)\n    tag_69:\n      pop\n        /* \"contracts/WillPayable.sol\":1308:1309  0 */\n      0x00\n        /* \"contracts/WillPayable.sol\":1297:1307  totalMoney */\n      0x02\n        /* \"contracts/WillPayable.sol\":1297:1309  totalMoney=0 */\n      dup2\n      swap1\n      sstore\n      pop\n        /* \"contracts/WillPayable.sol\":926:1317  {... */\n      pop\n      pop\n      pop\n        /* \"contracts/WillPayable.sol\":893:1317  function withdrawMoney() public  {... */\n      jump\t// out\n        /* \"@openzeppelin/contracts/utils/Strings.sol\":637:1269  function toString(uint256 value) internal pure returns (string memory) {... */\n    tag_63:\n        /* \"@openzeppelin/contracts/utils/Strings.sol\":693:706  string memory */\n      0x60\n        /* \"@openzeppelin/contracts/utils/Strings.sol\":742:756  uint256 length */\n      0x00\n        /* \"@openzeppelin/contracts/utils/Strings.sol\":779:780  1 */\n      0x01\n        /* \"@openzeppelin/contracts/utils/Strings.sol\":759:776  Math.log10(value) */\n      tag_71\n        /* \"@openzeppelin/contracts/utils/Strings.sol\":770:775  value */\n      dup5\n        /* \"@openzeppelin/contracts/utils/Strings.sol\":759:769  Math.log10 */\n      tag_72\n        /* \"@openzeppelin/contracts/utils/Strings.sol\":759:776  Math.log10(value) */\n      jump\t// in\n    tag_71:\n        /* \"@openzeppelin/contracts/utils/Strings.sol\":759:780  Math.log10(value) + 1 */\n      add\n        /* \"@openzeppelin/contracts/utils/Strings.sol\":742:780  uint256 length = Math.log10(value) + 1 */\n      swap1\n      pop\n        /* \"@openzeppelin/contracts/utils/Strings.sol\":794:814  string memory buffer */\n      0x00\n        /* \"@openzeppelin/contracts/utils/Strings.sol\":828:834  length */\n      dup2\n        /* \"@openzeppelin/contracts/utils/Strings.sol\":817:835  new string(length) */\n      0xffffffffffffffff\n      dup2\n      gt\n      iszero\n      tag_73\n      jumpi\n      tag_74\n      tag_75\n      jump\t// in\n    tag_74:\n    tag_73:\n      mload(0x40)\n      swap1\n      dup1\n      dup3\n      mstore\n      dup1\n      0x1f\n      add\n      not(0x1f)\n      and\n      0x20\n      add\n      dup3\n      add\n      0x40\n      mstore\n      dup1\n      iszero\n      tag_76\n      jumpi\n      dup2\n      0x20\n      add\n      0x01\n      dup3\n      mul\n      dup1\n      calldatasize\n      dup4\n      calldatacopy\n      dup1\n      dup3\n      add\n      swap2\n      pop\n      pop\n      swap1\n      pop\n    tag_76:\n      pop\n        /* \"@openzeppelin/contracts/utils/Strings.sol\":794:835  string memory buffer = new string(length) */\n      swap1\n      pop\n        /* \"@openzeppelin/contracts/utils/Strings.sol\":849:860  uint256 ptr */\n      0x00\n        /* \"@openzeppelin/contracts/utils/Strings.sol\":944:950  length */\n      dup3\n        /* \"@openzeppelin/contracts/utils/Strings.sol\":940:942  32 */\n      0x20\n        /* \"@openzeppelin/contracts/utils/Strings.sol\":936:951  add(32, length) */\n      add\n        /* \"@openzeppelin/contracts/utils/Strings.sol\":928:934  buffer */\n      dup3\n        /* \"@openzeppelin/contracts/utils/Strings.sol\":924:952  add(buffer, add(32, length)) */\n      add\n        /* \"@openzeppelin/contracts/utils/Strings.sol\":917:952  ptr := add(buffer, add(32, length)) */\n      swap1\n      pop\n        /* \"@openzeppelin/contracts/utils/Strings.sol\":979:1226  while (true) {... */\n    tag_77:\n        /* \"@openzeppelin/contracts/utils/Strings.sol\":986:990  true */\n      0x01\n        /* \"@openzeppelin/contracts/utils/Strings.sol\":979:1226  while (true) {... */\n      iszero\n      tag_78\n      jumpi\n        /* \"@openzeppelin/contracts/utils/Strings.sol\":1010:1015  ptr-- */\n      dup1\n      dup1\n      0x01\n      swap1\n      sub\n      swap2\n      pop\n      pop\n        /* \"@openzeppelin/contracts/utils/Strings.sol\":1114:1124  HEX_DIGITS */\n      0x3031323334353637383961626364656600000000000000000000000000000000\n        /* \"@openzeppelin/contracts/utils/Strings.sol\":1109:1111  10 */\n      0x0a\n        /* \"@openzeppelin/contracts/utils/Strings.sol\":1102:1107  value */\n      dup7\n        /* \"@openzeppelin/contracts/utils/Strings.sol\":1098:1112  mod(value, 10) */\n      mod\n        /* \"@openzeppelin/contracts/utils/Strings.sol\":1093:1125  byte(mod(value, 10), HEX_DIGITS) */\n      byte\n        /* \"@openzeppelin/contracts/utils/Strings.sol\":1088:1091  ptr */\n      dup2\n        /* \"@openzeppelin/contracts/utils/Strings.sol\":1080:1126  mstore8(ptr, byte(mod(value, 10), HEX_DIGITS)) */\n      mstore8\n        /* \"@openzeppelin/contracts/utils/Strings.sol\":1170:1172  10 */\n      0x0a\n        /* \"@openzeppelin/contracts/utils/Strings.sol\":1161:1172  value /= 10 */\n      dup6\n      dup2\n      tag_79\n      jumpi\n      tag_80\n      tag_81\n      jump\t// in\n    tag_80:\n    tag_79:\n      div\n      swap5\n      pop\n        /* \"@openzeppelin/contracts/utils/Strings.sol\":1203:1204  0 */\n      0x00\n        /* \"@openzeppelin/contracts/utils/Strings.sol\":1194:1199  value */\n      dup6\n        /* \"@openzeppelin/contracts/utils/Strings.sol\":1194:1204  value == 0 */\n      sub\n        /* \"@openzeppelin/contracts/utils/Strings.sol\":979:1226  while (true) {... */\n      tag_77\n        /* \"@openzeppelin/contracts/utils/Strings.sol\":1190:1211  if (value == 0) break */\n      jumpi\n        /* \"@openzeppelin/contracts/utils/Strings.sol\":979:1226  while (true) {... */\n    tag_78:\n        /* \"@openzeppelin/contracts/utils/Strings.sol\":1246:1252  buffer */\n      dup2\n        /* \"@openzeppelin/contracts/utils/Strings.sol\":1239:1252  return buffer */\n      swap4\n      pop\n      pop\n      pop\n      pop\n        /* \"@openzeppelin/contracts/utils/Strings.sol\":637:1269  function toString(uint256 value) internal pure returns (string memory) {... */\n      swap2\n      swap1\n      pop\n      jump\t// out\n        /* \"@openzeppelin/contracts/utils/math/Math.sol\":25316:26232  function log10(uint256 value) internal pure returns (uint256) {... */\n    tag_72:\n        /* \"@openzeppelin/contracts/utils/math/Math.sol\":25369:25376  uint256 */\n      0x00\n        /* \"@openzeppelin/contracts/utils/math/Math.sol\":25388:25402  uint256 result */\n      dup1\n        /* \"@openzeppelin/contracts/utils/math/Math.sol\":25405:25406  0 */\n      0x00\n        /* \"@openzeppelin/contracts/utils/math/Math.sol\":25388:25406  uint256 result = 0 */\n      swap1\n      pop\n        /* \"@openzeppelin/contracts/utils/math/Math.sol\":25453:25461  10 ** 64 */\n      0x184f03e93ff9f4daa797ed6e38ed64bf6a1f010000000000000000\n        /* \"@openzeppelin/contracts/utils/math/Math.sol\":25444:25449  value */\n      dup4\n        /* \"@openzeppelin/contracts/utils/math/Math.sol\":25444:25461  value >= 10 ** 64 */\n      lt\n        /* \"@openzeppelin/contracts/utils/math/Math.sol\":25440:25543  if (value >= 10 ** 64) {... */\n      tag_84\n      jumpi\n        /* \"@openzeppelin/contracts/utils/math/Math.sol\":25490:25498  10 ** 64 */\n      0x184f03e93ff9f4daa797ed6e38ed64bf6a1f010000000000000000\n        /* \"@openzeppelin/contracts/utils/math/Math.sol\":25481:25498  value /= 10 ** 64 */\n      dup4\n      dup2\n      tag_85\n      jumpi\n      tag_86\n      tag_81\n      jump\t// in\n    tag_86:\n    tag_85:\n      div\n      swap3\n      pop\n        /* \"@openzeppelin/contracts/utils/math/Math.sol\":25526:25528  64 */\n      0x40\n        /* \"@openzeppelin/contracts/utils/math/Math.sol\":25516:25528  result += 64 */\n      dup2\n      add\n      swap1\n      pop\n        /* \"@openzeppelin/contracts/utils/math/Math.sol\":25440:25543  if (value >= 10 ** 64) {... */\n    tag_84:\n        /* \"@openzeppelin/contracts/utils/math/Math.sol\":25569:25577  10 ** 32 */\n      0x04ee2d6d415b85acef8100000000\n        /* \"@openzeppelin/contracts/utils/math/Math.sol\":25560:25565  value */\n      dup4\n        /* \"@openzeppelin/contracts/utils/math/Math.sol\":25560:25577  value >= 10 ** 32 */\n      lt\n        /* \"@openzeppelin/contracts/utils/math/Math.sol\":25556:25659  if (value >= 10 ** 32) {... */\n      tag_87\n      jumpi\n        /* \"@openzeppelin/contracts/utils/math/Math.sol\":25606:25614  10 ** 32 */\n      0x04ee2d6d415b85acef8100000000\n        /* \"@openzeppelin/contracts/utils/math/Math.sol\":25597:25614  value /= 10 ** 32 */\n      dup4\n      dup2\n      tag_88\n      jumpi\n      tag_89\n      tag_81\n      jump\t// in\n    tag_89:\n    tag_88:\n      div\n      swap3\n      pop\n        /* \"@openzeppelin/contracts/utils/math/Math.sol\":25642:25644  32 */\n      0x20\n        /* \"@openzeppelin/contracts/utils/math/Math.sol\":25632:25644  result += 32 */\n      dup2\n      add\n      swap1\n      pop\n        /* \"@openzeppelin/contracts/utils/math/Math.sol\":25556:25659  if (value >= 10 ** 32) {... */\n    tag_87:\n        /* \"@openzeppelin/contracts/utils/math/Math.sol\":25685:25693  10 ** 16 */\n      0x2386f26fc10000\n        /* \"@openzeppelin/contracts/utils/math/Math.sol\":25676:25681  value */\n      dup4\n        /* \"@openzeppelin/contracts/utils/math/Math.sol\":25676:25693  value >= 10 ** 16 */\n      lt\n        /* \"@openzeppelin/contracts/utils/math/Math.sol\":25672:25775  if (value >= 10 ** 16) {... */\n      tag_90\n      jumpi\n        /* \"@openzeppelin/contracts/utils/math/Math.sol\":25722:25730  10 ** 16 */\n      0x2386f26fc10000\n        /* \"@openzeppelin/contracts/utils/math/Math.sol\":25713:25730  value /= 10 ** 16 */\n      dup4\n      dup2\n      tag_91\n      jumpi\n      tag_92\n      tag_81\n      jump\t// in\n    tag_92:\n    tag_91:\n      div\n      swap3\n      pop\n        /* \"@openzeppelin/contracts/utils/math/Math.sol\":25758:25760  16 */\n      0x10\n        /* \"@openzeppelin/contracts/utils/math/Math.sol\":25748:25760  result += 16 */\n      dup2\n      add\n      swap1\n      pop\n        /* \"@openzeppelin/contracts/utils/math/Math.sol\":25672:25775  if (value >= 10 ** 16) {... */\n    tag_90:\n        /* \"@openzeppelin/contracts/utils/math/Math.sol\":25801:25808  10 ** 8 */\n      0x05f5e100\n        /* \"@openzeppelin/contracts/utils/math/Math.sol\":25792:25797  value */\n      dup4\n        /* \"@openzeppelin/contracts/utils/math/Math.sol\":25792:25808  value >= 10 ** 8 */\n      lt\n        /* \"@openzeppelin/contracts/utils/math/Math.sol\":25788:25888  if (value >= 10 ** 8) {... */\n      tag_93\n      jumpi\n        /* \"@openzeppelin/contracts/utils/math/Math.sol\":25837:25844  10 ** 8 */\n      0x05f5e100\n        /* \"@openzeppelin/contracts/utils/math/Math.sol\":25828:25844  value /= 10 ** 8 */\n      dup4\n      dup2\n      tag_94\n      jumpi\n      tag_95\n      tag_81\n      jump\t// in\n    tag_95:\n    tag_94:\n      div\n      swap3\n      pop\n        /* \"@openzeppelin/contracts/utils/math/Math.sol\":25872:25873  8 */\n      0x08\n        /* \"@openzeppelin/contracts/utils/math/Math.sol\":25862:25873  result += 8 */\n      dup2\n      add\n      swap1\n      pop\n        /* \"@openzeppelin/contracts/utils/math/Math.sol\":25788:25888  if (value >= 10 ** 8) {... */\n    tag_93:\n        /* \"@openzeppelin/contracts/utils/math/Math.sol\":25914:25921  10 ** 4 */\n      0x2710\n        /* \"@openzeppelin/contracts/utils/math/Math.sol\":25905:25910  value */\n      dup4\n        /* \"@openzeppelin/contracts/utils/math/Math.sol\":25905:25921  value >= 10 ** 4 */\n      lt\n        /* \"@openzeppelin/contracts/utils/math/Math.sol\":25901:26001  if (value >= 10 ** 4) {... */\n      tag_96\n      jumpi\n        /* \"@openzeppelin/contracts/utils/math/Math.sol\":25950:25957  10 ** 4 */\n      0x2710\n        /* \"@openzeppelin/contracts/utils/math/Math.sol\":25941:25957  value /= 10 ** 4 */\n      dup4\n      dup2\n      tag_97\n      jumpi\n      tag_98\n      tag_81\n      jump\t// in\n    tag_98:\n    tag_97:\n      div\n      swap3\n      pop\n        /* \"@openzeppelin/contracts/utils/math/Math.sol\":25985:25986  4 */\n      0x04\n        /* \"@openzeppelin/contracts/utils/math/Math.sol\":25975:25986  result += 4 */\n      dup2\n      add\n      swap1\n      pop\n        /* \"@openzeppelin/contracts/utils/math/Math.sol\":25901:26001  if (value >= 10 ** 4) {... */\n    tag_96:\n        /* \"@openzeppelin/contracts/utils/math/Math.sol\":26027:26034  10 ** 2 */\n      0x64\n        /* \"@openzeppelin/contracts/utils/math/Math.sol\":26018:26023  value */\n      dup4\n        /* \"@openzeppelin/contracts/utils/math/Math.sol\":26018:26034  value >= 10 ** 2 */\n      lt\n        /* \"@openzeppelin/contracts/utils/math/Math.sol\":26014:26114  if (value >= 10 ** 2) {... */\n      tag_99\n      jumpi\n        /* \"@openzeppelin/contracts/utils/math/Math.sol\":26063:26070  10 ** 2 */\n      0x64\n        /* \"@openzeppelin/contracts/utils/math/Math.sol\":26054:26070  value /= 10 ** 2 */\n      dup4\n      dup2\n      tag_100\n      jumpi\n      tag_101\n      tag_81\n      jump\t// in\n    tag_101:\n    tag_100:\n      div\n      swap3\n      pop\n        /* \"@openzeppelin/contracts/utils/math/Math.sol\":26098:26099  2 */\n      0x02\n        /* \"@openzeppelin/contracts/utils/math/Math.sol\":26088:26099  result += 2 */\n      dup2\n      add\n      swap1\n      pop\n        /* \"@openzeppelin/contracts/utils/math/Math.sol\":26014:26114  if (value >= 10 ** 2) {... */\n    tag_99:\n        /* \"@openzeppelin/contracts/utils/math/Math.sol\":26140:26147  10 ** 1 */\n      0x0a\n        /* \"@openzeppelin/contracts/utils/math/Math.sol\":26131:26136  value */\n      dup4\n        /* \"@openzeppelin/contracts/utils/math/Math.sol\":26131:26147  value >= 10 ** 1 */\n      lt\n        /* \"@openzeppelin/contracts/utils/math/Math.sol\":26127:26193  if (value >= 10 ** 1) {... */\n      tag_102\n      jumpi\n        /* \"@openzeppelin/contracts/utils/math/Math.sol\":26177:26178  1 */\n      0x01\n        /* \"@openzeppelin/contracts/utils/math/Math.sol\":26167:26178  result += 1 */\n      dup2\n      add\n      swap1\n      pop\n        /* \"@openzeppelin/contracts/utils/math/Math.sol\":26127:26193  if (value >= 10 ** 1) {... */\n    tag_102:\n        /* \"@openzeppelin/contracts/utils/math/Math.sol\":26219:26225  result */\n      dup1\n        /* \"@openzeppelin/contracts/utils/math/Math.sol\":26212:26225  return result */\n      swap2\n      pop\n      pop\n        /* \"@openzeppelin/contracts/utils/math/Math.sol\":25316:26232  function log10(uint256 value) internal pure returns (uint256) {... */\n      swap2\n      swap1\n      pop\n      jump\t// out\n        /* \"#utility.yul\":7:84   */\n    tag_103:\n        /* \"#utility.yul\":44:51   */\n      0x00\n        /* \"#utility.yul\":73:78   */\n      dup2\n        /* \"#utility.yul\":62:78   */\n      swap1\n      pop\n        /* \"#utility.yul\":7:84   */\n      swap2\n      swap1\n      pop\n      jump\t// out\n        /* \"#utility.yul\":90:208   */\n    tag_104:\n        /* \"#utility.yul\":177:201   */\n      tag_128\n        /* \"#utility.yul\":195:200   */\n      dup2\n        /* \"#utility.yul\":177:201   */\n      tag_103\n      jump\t// in\n    tag_128:\n        /* \"#utility.yul\":172:175   */\n      dup3\n        /* \"#utility.yul\":165:202   */\n      mstore\n        /* \"#utility.yul\":90:208   */\n      pop\n      pop\n      jump\t// out\n        /* \"#utility.yul\":214:436   */\n    tag_15:\n        /* \"#utility.yul\":307:311   */\n      0x00\n        /* \"#utility.yul\":345:347   */\n      0x20\n        /* \"#utility.yul\":334:343   */\n      dup3\n        /* \"#utility.yul\":330:348   */\n      add\n        /* \"#utility.yul\":322:348   */\n      swap1\n      pop\n        /* \"#utility.yul\":358:429   */\n      tag_130\n        /* \"#utility.yul\":426:427   */\n      0x00\n        /* \"#utility.yul\":415:424   */\n      dup4\n        /* \"#utility.yul\":411:428   */\n      add\n        /* \"#utility.yul\":402:408   */\n      dup5\n        /* \"#utility.yul\":358:429   */\n      tag_104\n      jump\t// in\n    tag_130:\n        /* \"#utility.yul\":214:436   */\n      swap3\n      swap2\n      pop\n      pop\n      jump\t// out\n        /* \"#utility.yul\":523:640   */\n    tag_106:\n        /* \"#utility.yul\":632:633   */\n      0x00\n        /* \"#utility.yul\":629:630   */\n      dup1\n        /* \"#utility.yul\":622:634   */\n      revert\n        /* \"#utility.yul\":769:895   */\n    tag_108:\n        /* \"#utility.yul\":806:813   */\n      0x00\n        /* \"#utility.yul\":846:888   */\n      0xffffffffffffffffffffffffffffffffffffffff\n        /* \"#utility.yul\":839:844   */\n      dup3\n        /* \"#utility.yul\":835:889   */\n      and\n        /* \"#utility.yul\":824:889   */\n      swap1\n      pop\n        /* \"#utility.yul\":769:895   */\n      swap2\n      swap1\n      pop\n      jump\t// out\n        /* \"#utility.yul\":901:1005   */\n    tag_109:\n        /* \"#utility.yul\":946:953   */\n      0x00\n        /* \"#utility.yul\":975:999   */\n      tag_136\n        /* \"#utility.yul\":993:998   */\n      dup3\n        /* \"#utility.yul\":975:999   */\n      tag_108\n      jump\t// in\n    tag_136:\n        /* \"#utility.yul\":964:999   */\n      swap1\n      pop\n        /* \"#utility.yul\":901:1005   */\n      swap2\n      swap1\n      pop\n      jump\t// out\n        /* \"#utility.yul\":1011:1149   */\n    tag_110:\n        /* \"#utility.yul\":1092:1124   */\n      tag_138\n        /* \"#utility.yul\":1118:1123   */\n      dup2\n        /* \"#utility.yul\":1092:1124   */\n      tag_109\n      jump\t// in\n    tag_138:\n        /* \"#utility.yul\":1085:1090   */\n      dup2\n        /* \"#utility.yul\":1082:1125   */\n      eq\n        /* \"#utility.yul\":1072:1143   */\n      tag_139\n      jumpi\n        /* \"#utility.yul\":1139:1140   */\n      0x00\n        /* \"#utility.yul\":1136:1137   */\n      dup1\n        /* \"#utility.yul\":1129:1141   */\n      revert\n        /* \"#utility.yul\":1072:1143   */\n    tag_139:\n        /* \"#utility.yul\":1011:1149   */\n      pop\n      jump\t// out\n        /* \"#utility.yul\":1155:1310   */\n    tag_111:\n        /* \"#utility.yul\":1209:1214   */\n      0x00\n        /* \"#utility.yul\":1247:1253   */\n      dup2\n        /* \"#utility.yul\":1234:1254   */\n      calldataload\n        /* \"#utility.yul\":1225:1254   */\n      swap1\n      pop\n        /* \"#utility.yul\":1263:1304   */\n      tag_141\n        /* \"#utility.yul\":1298:1303   */\n      dup2\n        /* \"#utility.yul\":1263:1304   */\n      tag_110\n      jump\t// in\n    tag_141:\n        /* \"#utility.yul\":1155:1310   */\n      swap3\n      swap2\n      pop\n      pop\n      jump\t// out\n        /* \"#utility.yul\":1316:1661   */\n    tag_21:\n        /* \"#utility.yul\":1383:1389   */\n      0x00\n        /* \"#utility.yul\":1432:1434   */\n      0x20\n        /* \"#utility.yul\":1420:1429   */\n      dup3\n        /* \"#utility.yul\":1411:1418   */\n      dup5\n        /* \"#utility.yul\":1407:1430   */\n      sub\n        /* \"#utility.yul\":1403:1435   */\n      slt\n        /* \"#utility.yul\":1400:1519   */\n      iszero\n      tag_143\n      jumpi\n        /* \"#utility.yul\":1438:1517   */\n      tag_144\n      tag_106\n      jump\t// in\n    tag_144:\n        /* \"#utility.yul\":1400:1519   */\n    tag_143:\n        /* \"#utility.yul\":1558:1559   */\n      0x00\n        /* \"#utility.yul\":1583:1644   */\n      tag_145\n        /* \"#utility.yul\":1636:1643   */\n      dup5\n        /* \"#utility.yul\":1627:1633   */\n      dup3\n        /* \"#utility.yul\":1616:1625   */\n      dup6\n        /* \"#utility.yul\":1612:1634   */\n      add\n        /* \"#utility.yul\":1583:1644   */\n      tag_111\n      jump\t// in\n    tag_145:\n        /* \"#utility.yul\":1573:1644   */\n      swap2\n      pop\n        /* \"#utility.yul\":1529:1654   */\n      pop\n        /* \"#utility.yul\":1316:1661   */\n      swap3\n      swap2\n      pop\n      pop\n      jump\t// out\n        /* \"#utility.yul\":1667:1763   */\n    tag_112:\n        /* \"#utility.yul\":1704:1711   */\n      0x00\n        /* \"#utility.yul\":1733:1757   */\n      tag_147\n        /* \"#utility.yul\":1751:1756   */\n      dup3\n        /* \"#utility.yul\":1733:1757   */\n      tag_108\n      jump\t// in\n    tag_147:\n        /* \"#utility.yul\":1722:1757   */\n      swap1\n      pop\n        /* \"#utility.yul\":1667:1763   */\n      swap2\n      swap1\n      pop\n      jump\t// out\n        /* \"#utility.yul\":1769:1887   */\n    tag_113:\n        /* \"#utility.yul\":1856:1880   */\n      tag_149\n        /* \"#utility.yul\":1874:1879   */\n      dup2\n        /* \"#utility.yul\":1856:1880   */\n      tag_112\n      jump\t// in\n    tag_149:\n        /* \"#utility.yul\":1851:1854   */\n      dup3\n        /* \"#utility.yul\":1844:1881   */\n      mstore\n        /* \"#utility.yul\":1769:1887   */\n      pop\n      pop\n      jump\t// out\n        /* \"#utility.yul\":1893:2115   */\n    tag_27:\n        /* \"#utility.yul\":1986:1990   */\n      0x00\n        /* \"#utility.yul\":2024:2026   */\n      0x20\n        /* \"#utility.yul\":2013:2022   */\n      dup3\n        /* \"#utility.yul\":2009:2027   */\n      add\n        /* \"#utility.yul\":2001:2027   */\n      swap1\n      pop\n        /* \"#utility.yul\":2037:2108   */\n      tag_151\n        /* \"#utility.yul\":2105:2106   */\n      0x00\n        /* \"#utility.yul\":2094:2103   */\n      dup4\n        /* \"#utility.yul\":2090:2107   */\n      add\n        /* \"#utility.yul\":2081:2087   */\n      dup5\n        /* \"#utility.yul\":2037:2108   */\n      tag_113\n      jump\t// in\n    tag_151:\n        /* \"#utility.yul\":1893:2115   */\n      swap3\n      swap2\n      pop\n      pop\n      jump\t// out\n        /* \"#utility.yul\":2121:2220   */\n    tag_114:\n        /* \"#utility.yul\":2173:2179   */\n      0x00\n        /* \"#utility.yul\":2207:2212   */\n      dup2\n        /* \"#utility.yul\":2201:2213   */\n      mload\n        /* \"#utility.yul\":2191:2213   */\n      swap1\n      pop\n        /* \"#utility.yul\":2121:2220   */\n      swap2\n      swap1\n      pop\n      jump\t// out\n        /* \"#utility.yul\":2226:2395   */\n    tag_115:\n        /* \"#utility.yul\":2310:2321   */\n      0x00\n        /* \"#utility.yul\":2344:2350   */\n      dup3\n        /* \"#utility.yul\":2339:2342   */\n      dup3\n        /* \"#utility.yul\":2332:2351   */\n      mstore\n        /* \"#utility.yul\":2384:2388   */\n      0x20\n        /* \"#utility.yul\":2379:2382   */\n      dup3\n        /* \"#utility.yul\":2375:2389   */\n      add\n        /* \"#utility.yul\":2360:2389   */\n      swap1\n      pop\n        /* \"#utility.yul\":2226:2395   */\n      swap3\n      swap2\n      pop\n      pop\n      jump\t// out\n        /* \"#utility.yul\":2401:2540   */\n    tag_116:\n        /* \"#utility.yul\":2490:2496   */\n      dup3\n        /* \"#utility.yul\":2485:2488   */\n      dup2\n        /* \"#utility.yul\":2480:2483   */\n      dup4\n        /* \"#utility.yul\":2474:2497   */\n      mcopy\n        /* \"#utility.yul\":2531:2532   */\n      0x00\n        /* \"#utility.yul\":2522:2528   */\n      dup4\n        /* \"#utility.yul\":2517:2520   */\n      dup4\n        /* \"#utility.yul\":2513:2529   */\n      add\n        /* \"#utility.yul\":2506:2533   */\n      mstore\n        /* \"#utility.yul\":2401:2540   */\n      pop\n      pop\n      pop\n      jump\t// out\n        /* \"#utility.yul\":2546:2648   */\n    tag_117:\n        /* \"#utility.yul\":2587:2593   */\n      0x00\n        /* \"#utility.yul\":2638:2640   */\n      0x1f\n        /* \"#utility.yul\":2634:2641   */\n      not\n        /* \"#utility.yul\":2629:2631   */\n      0x1f\n        /* \"#utility.yul\":2622:2627   */\n      dup4\n        /* \"#utility.yul\":2618:2632   */\n      add\n        /* \"#utility.yul\":2614:2642   */\n      and\n        /* \"#utility.yul\":2604:2642   */\n      swap1\n      pop\n        /* \"#utility.yul\":2546:2648   */\n      swap2\n      swap1\n      pop\n      jump\t// out\n        /* \"#utility.yul\":2654:3031   */\n    tag_118:\n        /* \"#utility.yul\":2742:2745   */\n      0x00\n        /* \"#utility.yul\":2770:2809   */\n      tag_157\n        /* \"#utility.yul\":2803:2808   */\n      dup3\n        /* \"#utility.yul\":2770:2809   */\n      tag_114\n      jump\t// in\n    tag_157:\n        /* \"#utility.yul\":2825:2896   */\n      tag_158\n        /* \"#utility.yul\":2889:2895   */\n      dup2\n        /* \"#utility.yul\":2884:2887   */\n      dup6\n        /* \"#utility.yul\":2825:2896   */\n      tag_115\n      jump\t// in\n    tag_158:\n        /* \"#utility.yul\":2818:2896   */\n      swap4\n      pop\n        /* \"#utility.yul\":2905:2970   */\n      tag_159\n        /* \"#utility.yul\":2963:2969   */\n      dup2\n        /* \"#utility.yul\":2958:2961   */\n      dup6\n        /* \"#utility.yul\":2951:2955   */\n      0x20\n        /* \"#utility.yul\":2944:2949   */\n      dup7\n        /* \"#utility.yul\":2940:2956   */\n      add\n        /* \"#utility.yul\":2905:2970   */\n      tag_116\n      jump\t// in\n    tag_159:\n        /* \"#utility.yul\":2995:3024   */\n      tag_160\n        /* \"#utility.yul\":3017:3023   */\n      dup2\n        /* \"#utility.yul\":2995:3024   */\n      tag_117\n      jump\t// in\n    tag_160:\n        /* \"#utility.yul\":2990:2993   */\n      dup5\n        /* \"#utility.yul\":2986:3025   */\n      add\n        /* \"#utility.yul\":2979:3025   */\n      swap2\n      pop\n        /* \"#utility.yul\":2746:3031   */\n      pop\n        /* \"#utility.yul\":2654:3031   */\n      swap3\n      swap2\n      pop\n      pop\n      jump\t// out\n        /* \"#utility.yul\":3037:3350   */\n    tag_32:\n        /* \"#utility.yul\":3150:3154   */\n      0x00\n        /* \"#utility.yul\":3188:3190   */\n      0x20\n        /* \"#utility.yul\":3177:3186   */\n      dup3\n        /* \"#utility.yul\":3173:3191   */\n      add\n        /* \"#utility.yul\":3165:3191   */\n      swap1\n      pop\n        /* \"#utility.yul\":3237:3246   */\n      dup2\n        /* \"#utility.yul\":3231:3235   */\n      dup2\n        /* \"#utility.yul\":3227:3247   */\n      sub\n        /* \"#utility.yul\":3223:3224   */\n      0x00\n        /* \"#utility.yul\":3212:3221   */\n      dup4\n        /* \"#utility.yul\":3208:3225   */\n      add\n        /* \"#utility.yul\":3201:3248   */\n      mstore\n        /* \"#utility.yul\":3265:3343   */\n      tag_162\n        /* \"#utility.yul\":3338:3342   */\n      dup2\n        /* \"#utility.yul\":3329:3335   */\n      dup5\n        /* \"#utility.yul\":3265:3343   */\n      tag_118\n      jump\t// in\n    tag_162:\n        /* \"#utility.yul\":3257:3343   */\n      swap1\n      pop\n        /* \"#utility.yul\":3037:3350   */\n      swap3\n      swap2\n      pop\n      pop\n      jump\t// out\n        /* \"#utility.yul\":3356:3523   */\n    tag_119:\n        /* \"#utility.yul\":3496:3515   */\n      0x596f7520617265206e6f74206f776e6572000000000000000000000000000000\n        /* \"#utility.yul\":3492:3493   */\n      0x00\n        /* \"#utility.yul\":3484:3490   */\n      dup3\n        /* \"#utility.yul\":3480:3494   */\n      add\n        /* \"#utility.yul\":3473:3516   */\n      mstore\n        /* \"#utility.yul\":3356:3523   */\n      pop\n      jump\t// out\n        /* \"#utility.yul\":3529:3895   */\n    tag_120:\n        /* \"#utility.yul\":3671:3674   */\n      0x00\n        /* \"#utility.yul\":3692:3759   */\n      tag_165\n        /* \"#utility.yul\":3756:3758   */\n      0x11\n        /* \"#utility.yul\":3751:3754   */\n      dup4\n        /* \"#utility.yul\":3692:3759   */\n      tag_115\n      jump\t// in\n    tag_165:\n        /* \"#utility.yul\":3685:3759   */\n      swap2\n      pop\n        /* \"#utility.yul\":3768:3861   */\n      tag_166\n        /* \"#utility.yul\":3857:3860   */\n      dup3\n        /* \"#utility.yul\":3768:3861   */\n      tag_119\n      jump\t// in\n    tag_166:\n        /* \"#utility.yul\":3886:3888   */\n      0x20\n        /* \"#utility.yul\":3881:3884   */\n      dup3\n        /* \"#utility.yul\":3877:3889   */\n      add\n        /* \"#utility.yul\":3870:3889   */\n      swap1\n      pop\n        /* \"#utility.yul\":3529:3895   */\n      swap2\n      swap1\n      pop\n      jump\t// out\n        /* \"#utility.yul\":3901:4320   */\n    tag_47:\n        /* \"#utility.yul\":4067:4071   */\n      0x00\n        /* \"#utility.yul\":4105:4107   */\n      0x20\n        /* \"#utility.yul\":4094:4103   */\n      dup3\n        /* \"#utility.yul\":4090:4108   */\n      add\n        /* \"#utility.yul\":4082:4108   */\n      swap1\n      pop\n        /* \"#utility.yul\":4154:4163   */\n      dup2\n        /* \"#utility.yul\":4148:4152   */\n      dup2\n        /* \"#utility.yul\":4144:4164   */\n      sub\n        /* \"#utility.yul\":4140:4141   */\n      0x00\n        /* \"#utility.yul\":4129:4138   */\n      dup4\n        /* \"#utility.yul\":4125:4142   */\n      add\n        /* \"#utility.yul\":4118:4165   */\n      mstore\n        /* \"#utility.yul\":4182:4313   */\n      tag_168\n        /* \"#utility.yul\":4308:4312   */\n      dup2\n        /* \"#utility.yul\":4182:4313   */\n      tag_120\n      jump\t// in\n    tag_168:\n        /* \"#utility.yul\":4174:4313   */\n      swap1\n      pop\n        /* \"#utility.yul\":3901:4320   */\n      swap2\n      swap1\n      pop\n      jump\t// out\n        /* \"#utility.yul\":4326:4506   */\n    tag_121:\n        /* \"#utility.yul\":4374:4451   */\n      0x4e487b7100000000000000000000000000000000000000000000000000000000\n        /* \"#utility.yul\":4371:4372   */\n      0x00\n        /* \"#utility.yul\":4364:4452   */\n      mstore\n        /* \"#utility.yul\":4471:4475   */\n      0x11\n        /* \"#utility.yul\":4468:4469   */\n      0x04\n        /* \"#utility.yul\":4461:4476   */\n      mstore\n        /* \"#utility.yul\":4495:4499   */\n      0x24\n        /* \"#utility.yul\":4492:4493   */\n      0x00\n        /* \"#utility.yul\":4485:4500   */\n      revert\n        /* \"#utility.yul\":4512:4703   */\n    tag_50:\n        /* \"#utility.yul\":4552:4555   */\n      0x00\n        /* \"#utility.yul\":4571:4591   */\n      tag_171\n        /* \"#utility.yul\":4589:4590   */\n      dup3\n        /* \"#utility.yul\":4571:4591   */\n      tag_103\n      jump\t// in\n    tag_171:\n        /* \"#utility.yul\":4566:4591   */\n      swap2\n      pop\n        /* \"#utility.yul\":4605:4625   */\n      tag_172\n        /* \"#utility.yul\":4623:4624   */\n      dup4\n        /* \"#utility.yul\":4605:4625   */\n      tag_103\n      jump\t// in\n    tag_172:\n        /* \"#utility.yul\":4600:4625   */\n      swap3\n      pop\n        /* \"#utility.yul\":4648:4649   */\n      dup3\n        /* \"#utility.yul\":4645:4646   */\n      dup3\n        /* \"#utility.yul\":4641:4650   */\n      add\n        /* \"#utility.yul\":4634:4650   */\n      swap1\n      pop\n        /* \"#utility.yul\":4669:4672   */\n      dup1\n        /* \"#utility.yul\":4666:4667   */\n      dup3\n        /* \"#utility.yul\":4663:4673   */\n      gt\n        /* \"#utility.yul\":4660:4696   */\n      iszero\n      tag_173\n      jumpi\n        /* \"#utility.yul\":4676:4694   */\n      tag_174\n      tag_121\n      jump\t// in\n    tag_174:\n        /* \"#utility.yul\":4660:4696   */\n    tag_173:\n        /* \"#utility.yul\":4512:4703   */\n      swap3\n      swap2\n      pop\n      pop\n      jump\t// out\n        /* \"#utility.yul\":4709:4903   */\n    tag_61:\n        /* \"#utility.yul\":4749:4753   */\n      0x00\n        /* \"#utility.yul\":4769:4789   */\n      tag_176\n        /* \"#utility.yul\":4787:4788   */\n      dup3\n        /* \"#utility.yul\":4769:4789   */\n      tag_103\n      jump\t// in\n    tag_176:\n        /* \"#utility.yul\":4764:4789   */\n      swap2\n      pop\n        /* \"#utility.yul\":4803:4823   */\n      tag_177\n        /* \"#utility.yul\":4821:4822   */\n      dup4\n        /* \"#utility.yul\":4803:4823   */\n      tag_103\n      jump\t// in\n    tag_177:\n        /* \"#utility.yul\":4798:4823   */\n      swap3\n      pop\n        /* \"#utility.yul\":4847:4848   */\n      dup3\n        /* \"#utility.yul\":4844:4845   */\n      dup3\n        /* \"#utility.yul\":4840:4849   */\n      sub\n        /* \"#utility.yul\":4832:4849   */\n      swap1\n      pop\n        /* \"#utility.yul\":4871:4872   */\n      dup2\n        /* \"#utility.yul\":4865:4869   */\n      dup2\n        /* \"#utility.yul\":4862:4873   */\n      gt\n        /* \"#utility.yul\":4859:4896   */\n      iszero\n      tag_178\n      jumpi\n        /* \"#utility.yul\":4876:4894   */\n      tag_179\n      tag_121\n      jump\t// in\n    tag_179:\n        /* \"#utility.yul\":4859:4896   */\n    tag_178:\n        /* \"#utility.yul\":4709:4903   */\n      swap3\n      swap2\n      pop\n      pop\n      jump\t// out\n        /* \"#utility.yul\":4909:5110   */\n    tag_122:\n        /* \"#utility.yul\":5078:5103   */\n      0x54696d6520706173736564203a2028696e207365632920000000000000000000\n        /* \"#utility.yul\":5073:5076   */\n      dup2\n        /* \"#utility.yul\":5066:5104   */\n      mstore\n        /* \"#utility.yul\":4909:5110   */\n      pop\n      jump\t// out\n        /* \"#utility.yul\":5116:5264   */\n    tag_123:\n        /* \"#utility.yul\":5218:5229   */\n      0x00\n        /* \"#utility.yul\":5255:5258   */\n      dup2\n        /* \"#utility.yul\":5240:5258   */\n      swap1\n      pop\n        /* \"#utility.yul\":5116:5264   */\n      swap3\n      swap2\n      pop\n      pop\n      jump\t// out\n        /* \"#utility.yul\":5270:5660   */\n    tag_124:\n        /* \"#utility.yul\":5376:5379   */\n      0x00\n        /* \"#utility.yul\":5404:5443   */\n      tag_183\n        /* \"#utility.yul\":5437:5442   */\n      dup3\n        /* \"#utility.yul\":5404:5443   */\n      tag_114\n      jump\t// in\n    tag_183:\n        /* \"#utility.yul\":5459:5548   */\n      tag_184\n        /* \"#utility.yul\":5541:5547   */\n      dup2\n        /* \"#utility.yul\":5536:5539   */\n      dup6\n        /* \"#utility.yul\":5459:5548   */\n      tag_123\n      jump\t// in\n    tag_184:\n        /* \"#utility.yul\":5452:5548   */\n      swap4\n      pop\n        /* \"#utility.yul\":5557:5622   */\n      tag_185\n        /* \"#utility.yul\":5615:5621   */\n      dup2\n        /* \"#utility.yul\":5610:5613   */\n      dup6\n        /* \"#utility.yul\":5603:5607   */\n      0x20\n        /* \"#utility.yul\":5596:5601   */\n      dup7\n        /* \"#utility.yul\":5592:5608   */\n      add\n        /* \"#utility.yul\":5557:5622   */\n      tag_116\n      jump\t// in\n    tag_185:\n        /* \"#utility.yul\":5647:5653   */\n      dup1\n        /* \"#utility.yul\":5642:5645   */\n      dup5\n        /* \"#utility.yul\":5638:5654   */\n      add\n        /* \"#utility.yul\":5631:5654   */\n      swap2\n      pop\n        /* \"#utility.yul\":5380:5660   */\n      pop\n        /* \"#utility.yul\":5270:5660   */\n      swap3\n      swap2\n      pop\n      pop\n      jump\t// out\n        /* \"#utility.yul\":5666:6208   */\n    tag_65:\n        /* \"#utility.yul\":5889:5892   */\n      0x00\n        /* \"#utility.yul\":5904:6042   */\n      tag_187\n        /* \"#utility.yul\":6038:6041   */\n      dup3\n        /* \"#utility.yul\":5904:6042   */\n      tag_122\n      jump\t// in\n    tag_187:\n        /* \"#utility.yul\":6067:6069   */\n      0x17\n        /* \"#utility.yul\":6062:6065   */\n      dup3\n        /* \"#utility.yul\":6058:6070   */\n      add\n        /* \"#utility.yul\":6051:6070   */\n      swap2\n      pop\n        /* \"#utility.yul\":6087:6182   */\n      tag_188\n        /* \"#utility.yul\":6178:6181   */\n      dup3\n        /* \"#utility.yul\":6169:6175   */\n      dup5\n        /* \"#utility.yul\":6087:6182   */\n      tag_124\n      jump\t// in\n    tag_188:\n        /* \"#utility.yul\":6080:6182   */\n      swap2\n      pop\n        /* \"#utility.yul\":6199:6202   */\n      dup2\n        /* \"#utility.yul\":6192:6202   */\n      swap1\n      pop\n        /* \"#utility.yul\":5666:6208   */\n      swap3\n      swap2\n      pop\n      pop\n      jump\t// out\n        /* \"#utility.yul\":6214:6394   */\n    tag_75:\n        /* \"#utility.yul\":6262:6339   */\n      0x4e487b7100000000000000000000000000000000000000000000000000000000\n        /* \"#utility.yul\":6259:6260   */\n      0x00\n        /* \"#utility.yul\":6252:6340   */\n      mstore\n        /* \"#utility.yul\":6359:6363   */\n      0x41\n        /* \"#utility.yul\":6356:6357   */\n      0x04\n        /* \"#utility.yul\":6349:6364   */\n      mstore\n        /* \"#utility.yul\":6383:6387   */\n      0x24\n        /* \"#utility.yul\":6380:6381   */\n      0x00\n        /* \"#utility.yul\":6373:6388   */\n      revert\n        /* \"#utility.yul\":6400:6580   */\n    tag_81:\n        /* \"#utility.yul\":6448:6525   */\n      0x4e487b7100000000000000000000000000000000000000000000000000000000\n        /* \"#utility.yul\":6445:6446   */\n      0x00\n        /* \"#utility.yul\":6438:6526   */\n      mstore\n        /* \"#utility.yul\":6545:6549   */\n      0x12\n        /* \"#utility.yul\":6542:6543   */\n      0x04\n        /* \"#utility.yul\":6535:6550   */\n      mstore\n        /* \"#utility.yul\":6569:6573   */\n      0x24\n        /* \"#utility.yul\":6566:6567   */\n      0x00\n        /* \"#utility.yul\":6559:6574   */\n      revert\n\n    auxdata: 0xa2646970667358221220467927c1864853f9576d71824c5850804b324eca962745bead591672ddaefe6464736f6c634300081a0033\n}\n",
				"bytecode": {
					"linkReferences": {},
					"object": "608060405234801561000f575f80fd5b50604051610c29380380610c2983398181016040528101906100319190610114565b335f806101000a81548173ffffffffffffffffffffffffffffffffffffffff021916908373ffffffffffffffffffffffffffffffffffffffff1602179055508060015f6101000a81548173ffffffffffffffffffffffffffffffffffffffff021916908373ffffffffffffffffffffffffffffffffffffffff1602179055505061013f565b5f80fd5b5f73ffffffffffffffffffffffffffffffffffffffff82169050919050565b5f6100e3826100ba565b9050919050565b6100f3816100d9565b81146100fd575f80fd5b50565b5f8151905061010e816100ea565b92915050565b5f60208284031215610129576101286100b6565b5b5f61013684828501610100565b91505092915050565b610add8061014c5f395ff3fe60806040526004361061007a575f3560e01c80635c36b1861161004d5780635c36b1861461010457806387da21e31461012e5780638f84aa0914610158578063ac446002146101825761007a565b806311f743131461007e57806316c05aa2146100a85780634bf9407f146100b25780635aff5999146100da575b5f80fd5b348015610089575f80fd5b50610092610198565b60405161009f9190610762565b60405180910390f35b6100b061019e565b005b3480156100bd575f80fd5b506100d860048036038101906100d391906107d9565b610245565b005b3480156100e5575f80fd5b506100ee610315565b6040516100fb9190610824565b60405180910390f35b34801561010f575f80fd5b5061011861033a565b60405161012591906108ad565b60405180910390f35b348015610139575f80fd5b5061014261040b565b60405161014f9190610762565b60405180910390f35b348015610163575f80fd5b5061016c610411565b6040516101799190610824565b60405180910390f35b34801561018d575f80fd5b50610196610434565b005b60035481565b5f8054906101000a900473ffffffffffffffffffffffffffffffffffffffff1673ffffffffffffffffffffffffffffffffffffffff163373ffffffffffffffffffffffffffffffffffffffff161461022b576040517f08c379a000000000000000000000000000000000000000000000000000000000815260040161022290610917565b60405180910390fd5b3460025f82825461023c9190610962565b92505081905550565b5f8054906101000a900473ffffffffffffffffffffffffffffffffffffffff1673ffffffffffffffffffffffffffffffffffffffff163373ffffffffffffffffffffffffffffffffffffffff16146102d2576040517f08c379a00000000000000000000000000000000000000000000000000000000081526004016102c990610917565b60405180910390fd5b8060015f6101000a81548173ffffffffffffffffffffffffffffffffffffffff021916908373ffffffffffffffffffffffffffffffffffffffff16021790555050565b60015f9054906101000a900473ffffffffffffffffffffffffffffffffffffffff1681565b60605f8054906101000a900473ffffffffffffffffffffffffffffffffffffffff1673ffffffffffffffffffffffffffffffffffffffff163373ffffffffffffffffffffffffffffffffffffffff16146103c9576040517f08c379a00000000000000000000000000000000000000000000000000000000081526004016103c090610917565b60405180910390fd5b426003819055506040518060400160405280600c81526020017f41646d696e2070696e6765640000000000000000000000000000000000000000815250905090565b60025481565b5f8054906101000a900473ffffffffffffffffffffffffffffffffffffffff1681565b5f610e1090505f600354426104499190610995565b90505f6104558261052f565b6040516020016104659190610a28565b604051602081830303815290604052905082821181906104bb576040517f08c379a00000000000000000000000000000000000000000000000000000000081526004016104b291906108ad565b60405180910390fd5b5060015f9054906101000a900473ffffffffffffffffffffffffffffffffffffffff1673ffffffffffffffffffffffffffffffffffffffff166108fc60025490811502906040515f60405180830381858888f19350505050158015610522573d5f803e3d5ffd5b505f600281905550505050565b60605f600161053d846105f9565b0190505f8167ffffffffffffffff81111561055b5761055a610a4d565b5b6040519080825280601f01601f19166020018201604052801561058d5781602001600182028036833780820191505090505b5090505f82602001820190505b6001156105ee578080600190039150507f3031323334353637383961626364656600000000000000000000000000000000600a86061a8153600a85816105e3576105e2610a7a565b5b0494505f850361059a575b819350505050919050565b5f805f90507a184f03e93ff9f4daa797ed6e38ed64bf6a1f0100000000000000008310610655577a184f03e93ff9f4daa797ed6e38ed64bf6a1f010000000000000000838161064b5761064a610a7a565b5b0492506040810190505b6d04ee2d6d415b85acef81000000008310610692576d04ee2d6d415b85acef8100000000838161068857610687610a7a565b5b0492506020810190505b662386f26fc1000083106106c157662386f26fc1000083816106b7576106b6610a7a565b5b0492506010810190505b6305f5e10083106106ea576305f5e10083816106e0576106df610a7a565b5b0492506008810190505b612710831061070f57612710838161070557610704610a7a565b5b0492506004810190505b60648310610732576064838161072857610727610a7a565b5b0492506002810190505b600a8310610741576001810190505b80915050919050565b5f819050919050565b61075c8161074a565b82525050565b5f6020820190506107755f830184610753565b92915050565b5f80fd5b5f73ffffffffffffffffffffffffffffffffffffffff82169050919050565b5f6107a88261077f565b9050919050565b6107b88161079e565b81146107c2575f80fd5b50565b5f813590506107d3816107af565b92915050565b5f602082840312156107ee576107ed61077b565b5b5f6107fb848285016107c5565b91505092915050565b5f61080e8261077f565b9050919050565b61081e81610804565b82525050565b5f6020820190506108375f830184610815565b92915050565b5f81519050919050565b5f82825260208201905092915050565b8281835e5f83830152505050565b5f601f19601f8301169050919050565b5f61087f8261083d565b6108898185610847565b9350610899818560208601610857565b6108a281610865565b840191505092915050565b5f6020820190508181035f8301526108c58184610875565b905092915050565b7f596f7520617265206e6f74206f776e65720000000000000000000000000000005f82015250565b5f610901601183610847565b915061090c826108cd565b602082019050919050565b5f6020820190508181035f83015261092e816108f5565b9050919050565b7f4e487b71000000000000000000000000000000000000000000000000000000005f52601160045260245ffd5b5f61096c8261074a565b91506109778361074a565b925082820190508082111561098f5761098e610935565b5b92915050565b5f61099f8261074a565b91506109aa8361074a565b92508282039050818111156109c2576109c1610935565b5b92915050565b7f54696d6520706173736564203a2028696e207365632920000000000000000000815250565b5f81905092915050565b5f610a028261083d565b610a0c81856109ee565b9350610a1c818560208601610857565b80840191505092915050565b5f610a32826109c8565b601782019150610a4282846109f8565b915081905092915050565b7f4e487b71000000000000000000000000000000000000000000000000000000005f52604160045260245ffd5b7f4e487b71000000000000000000000000000000000000000000000000000000005f52601260045260245ffdfea2646970667358221220467927c1864853f9576d71824c5850804b324eca962745bead591672ddaefe6464736f6c634300081a0033",
					"opcodes": "PUSH1 0x80 PUSH1 0x40 MSTORE CALLVALUE DUP1 ISZERO PUSH2 0xF JUMPI PUSH0 DUP1 REVERT JUMPDEST POP PUSH1 0x40 MLOAD PUSH2 0xC29 CODESIZE SUB DUP1 PUSH2 0xC29 DUP4 CODECOPY DUP2 DUP2 ADD PUSH1 0x40 MSTORE DUP2 ADD SWAP1 PUSH2 0x31 SWAP2 SWAP1 PUSH2 0x114 JUMP JUMPDEST CALLER PUSH0 DUP1 PUSH2 0x100 EXP DUP2 SLOAD DUP2 PUSH20 0xFFFFFFFFFFFFFFFFFFFFFFFFFFFFFFFFFFFFFFFF MUL NOT AND SWAP1 DUP4 PUSH20 0xFFFFFFFFFFFFFFFFFFFFFFFFFFFFFFFFFFFFFFFF AND MUL OR SWAP1 SSTORE POP DUP1 PUSH1 0x1 PUSH0 PUSH2 0x100 EXP DUP2 SLOAD DUP2 PUSH20 0xFFFFFFFFFFFFFFFFFFFFFFFFFFFFFFFFFFFFFFFF MUL NOT AND SWAP1 DUP4 PUSH20 0xFFFFFFFFFFFFFFFFFFFFFFFFFFFFFFFFFFFFFFFF AND MUL OR SWAP1 SSTORE POP POP PUSH2 0x13F JUMP JUMPDEST PUSH0 DUP1 REVERT JUMPDEST PUSH0 PUSH20 0xFFFFFFFFFFFFFFFFFFFFFFFFFFFFFFFFFFFFFFFF DUP3 AND SWAP1 POP SWAP2 SWAP1 POP JUMP JUMPDEST PUSH0 PUSH2 0xE3 DUP3 PUSH2 0xBA JUMP JUMPDEST SWAP1 POP SWAP2 SWAP1 POP JUMP JUMPDEST PUSH2 0xF3 DUP2 PUSH2 0xD9 JUMP JUMPDEST DUP2 EQ PUSH2 0xFD JUMPI PUSH0 DUP1 REVERT JUMPDEST POP JUMP JUMPDEST PUSH0 DUP2 MLOAD SWAP1 POP PUSH2 0x10E DUP2 PUSH2 0xEA JUMP JUMPDEST SWAP3 SWAP2 POP POP JUMP JUMPDEST PUSH0 PUSH1 0x20 DUP3 DUP5 SUB SLT ISZERO PUSH2 0x129 JUMPI PUSH2 0x128 PUSH2 0xB6 JUMP JUMPDEST JUMPDEST PUSH0 PUSH2 0x136 DUP5 DUP3 DUP6 ADD PUSH2 0x100 JUMP JUMPDEST SWAP2 POP POP SWAP3 SWAP2 POP POP JUMP JUMPDEST PUSH2 0xADD DUP1 PUSH2 0x14C PUSH0 CODECOPY PUSH0 RETURN INVALID PUSH1 0x80 PUSH1 0x40 MSTORE PUSH1 0x4 CALLDATASIZE LT PUSH2 0x7A JUMPI PUSH0 CALLDATALOAD PUSH1 0xE0 SHR DUP1 PUSH4 0x5C36B186 GT PUSH2 0x4D JUMPI DUP1 PUSH4 0x5C36B186 EQ PUSH2 0x104 JUMPI DUP1 PUSH4 0x87DA21E3 EQ PUSH2 0x12E JUMPI DUP1 PUSH4 0x8F84AA09 EQ PUSH2 0x158 JUMPI DUP1 PUSH4 0xAC446002 EQ PUSH2 0x182 JUMPI PUSH2 0x7A JUMP JUMPDEST DUP1 PUSH4 0x11F74313 EQ PUSH2 0x7E JUMPI DUP1 PUSH4 0x16C05AA2 EQ PUSH2 0xA8 JUMPI DUP1 PUSH4 0x4BF9407F EQ PUSH2 0xB2 JUMPI DUP1 PUSH4 0x5AFF5999 EQ PUSH2 0xDA JUMPI JUMPDEST PUSH0 DUP1 REVERT JUMPDEST CALLVALUE DUP1 ISZERO PUSH2 0x89 JUMPI PUSH0 DUP1 REVERT JUMPDEST POP PUSH2 0x92 PUSH2 0x198 JUMP JUMPDEST PUSH1 0x40 MLOAD PUSH2 0x9F SWAP2 SWAP1 PUSH2 0x762 JUMP JUMPDEST PUSH1 0x40 MLOAD DUP1 SWAP2 SUB SWAP1 RETURN JUMPDEST PUSH2 0xB0 PUSH2 0x19E JUMP JUMPDEST STOP JUMPDEST CALLVALUE DUP1 ISZERO PUSH2 0xBD JUMPI PUSH0 DUP1 REVERT JUMPDEST POP PUSH2 0xD8 PUSH1 0x4 DUP1 CALLDATASIZE SUB DUP2 ADD SWAP1 PUSH2 0xD3 SWAP2 SWAP1 PUSH2 0x7D9 JUMP JUMPDEST PUSH2 0x245 JUMP JUMPDEST STOP JUMPDEST CALLVALUE DUP1 ISZERO PUSH2 0xE5 JUMPI PUSH0 DUP1 REVERT JUMPDEST POP PUSH2 0xEE PUSH2 0x315 JUMP JUMPDEST PUSH1 0x40 MLOAD PUSH2 0xFB SWAP2 SWAP1 PUSH2 0x824 JUMP JUMPDEST PUSH1 0x40 MLOAD DUP1 SWAP2 SUB SWAP1 RETURN JUMPDEST CALLVALUE DUP1 ISZERO PUSH2 0x10F JUMPI PUSH0 DUP1 REVERT JUMPDEST POP PUSH2 0x118 PUSH2 0x33A JUMP JUMPDEST PUSH1 0x40 MLOAD PUSH2 0x125 SWAP2 SWAP1 PUSH2 0x8AD JUMP JUMPDEST PUSH1 0x40 MLOAD DUP1 SWAP2 SUB SWAP1 RETURN JUMPDEST CALLVALUE DUP1 ISZERO PUSH2 0x139 JUMPI PUSH0 DUP1 REVERT JUMPDEST POP PUSH2 0x142 PUSH2 0x40B JUMP JUMPDEST PUSH1 0x40 MLOAD PUSH2 0x14F SWAP2 SWAP1 PUSH2 0x762 JUMP JUMPDEST PUSH1 0x40 MLOAD DUP1 SWAP2 SUB SWAP1 RETURN JUMPDEST CALLVALUE DUP1 ISZERO PUSH2 0x163 JUMPI PUSH0 DUP1 REVERT JUMPDEST POP PUSH2 0x16C PUSH2 0x411 JUMP JUMPDEST PUSH1 0x40 MLOAD PUSH2 0x179 SWAP2 SWAP1 PUSH2 0x824 JUMP JUMPDEST PUSH1 0x40 MLOAD DUP1 SWAP2 SUB SWAP1 RETURN JUMPDEST CALLVALUE DUP1 ISZERO PUSH2 0x18D JUMPI PUSH0 DUP1 REVERT JUMPDEST POP PUSH2 0x196 PUSH2 0x434 JUMP JUMPDEST STOP JUMPDEST PUSH1 0x3 SLOAD DUP2 JUMP JUMPDEST PUSH0 DUP1 SLOAD SWAP1 PUSH2 0x100 EXP SWAP1 DIV PUSH20 0xFFFFFFFFFFFFFFFFFFFFFFFFFFFFFFFFFFFFFFFF AND PUSH20 0xFFFFFFFFFFFFFFFFFFFFFFFFFFFFFFFFFFFFFFFF AND CALLER PUSH20 0xFFFFFFFFFFFFFFFFFFFFFFFFFFFFFFFFFFFFFFFF AND EQ PUSH2 0x22B JUMPI PUSH1 0x40 MLOAD PUSH32 0x8C379A000000000000000000000000000000000000000000000000000000000 DUP2 MSTORE PUSH1 0x4 ADD PUSH2 0x222 SWAP1 PUSH2 0x917 JUMP JUMPDEST PUSH1 0x40 MLOAD DUP1 SWAP2 SUB SWAP1 REVERT JUMPDEST CALLVALUE PUSH1 0x2 PUSH0 DUP3 DUP3 SLOAD PUSH2 0x23C SWAP2 SWAP1 PUSH2 0x962 JUMP JUMPDEST SWAP3 POP POP DUP2 SWAP1 SSTORE POP JUMP JUMPDEST PUSH0 DUP1 SLOAD SWAP1 PUSH2 0x100 EXP SWAP1 DIV PUSH20 0xFFFFFFFFFFFFFFFFFFFFFFFFFFFFFFFFFFFFFFFF AND PUSH20 0xFFFFFFFFFFFFFFFFFFFFFFFFFFFFFFFFFFFFFFFF AND CALLER PUSH20 0xFFFFFFFFFFFFFFFFFFFFFFFFFFFFFFFFFFFFFFFF AND EQ PUSH2 0x2D2 JUMPI PUSH1 0x40 MLOAD PUSH32 0x8C379A000000000000000000000000000000000000000000000000000000000 DUP2 MSTORE PUSH1 0x4 ADD PUSH2 0x2C9 SWAP1 PUSH2 0x917 JUMP JUMPDEST PUSH1 0x40 MLOAD DUP1 SWAP2 SUB SWAP1 REVERT JUMPDEST DUP1 PUSH1 0x1 PUSH0 PUSH2 0x100 EXP DUP2 SLOAD DUP2 PUSH20 0xFFFFFFFFFFFFFFFFFFFFFFFFFFFFFFFFFFFFFFFF MUL NOT AND SWAP1 DUP4 PUSH20 0xFFFFFFFFFFFFFFFFFFFFFFFFFFFFFFFFFFFFFFFF AND MUL OR SWAP1 SSTORE POP POP JUMP JUMPDEST PUSH1 0x1 PUSH0 SWAP1 SLOAD SWAP1 PUSH2 0x100 EXP SWAP1 DIV PUSH20 0xFFFFFFFFFFFFFFFFFFFFFFFFFFFFFFFFFFFFFFFF AND DUP2 JUMP JUMPDEST PUSH1 0x60 PUSH0 DUP1 SLOAD SWAP1 PUSH2 0x100 EXP SWAP1 DIV PUSH20 0xFFFFFFFFFFFFFFFFFFFFFFFFFFFFFFFFFFFFFFFF AND PUSH20 0xFFFFFFFFFFFFFFFFFFFFFFFFFFFFFFFFFFFFFFFF AND CALLER PUSH20 0xFFFFFFFFFFFFFFFFFFFFFFFFFFFFFFFFFFFFFFFF AND EQ PUSH2 0x3C9 JUMPI PUSH1 0x40 MLOAD PUSH32 0x8C379A000000000000000000000000000000000000000000000000000000000 DUP2 MSTORE PUSH1 0x4 ADD PUSH2 0x3C0 SWAP1 PUSH2 0x917 JUMP JUMPDEST PUSH1 0x40 MLOAD DUP1 SWAP2 SUB SWAP1 REVERT JUMPDEST TIMESTAMP PUSH1 0x3 DUP2 SWAP1 SSTORE POP PUSH1 0x40 MLOAD DUP1 PUSH1 0x40 ADD PUSH1 0x40 MSTORE DUP1 PUSH1 0xC DUP2 MSTORE PUSH1 0x20 ADD PUSH32 0x41646D696E2070696E6765640000000000000000000000000000000000000000 DUP2 MSTORE POP SWAP1 POP SWAP1 JUMP JUMPDEST PUSH1 0x2 SLOAD DUP2 JUMP JUMPDEST PUSH0 DUP1 SLOAD SWAP1 PUSH2 0x100 EXP SWAP1 DIV PUSH20 0xFFFFFFFFFFFFFFFFFFFFFFFFFFFFFFFFFFFFFFFF AND DUP2 JUMP JUMPDEST PUSH0 PUSH2 0xE10 SWAP1 POP PUSH0 PUSH1 0x3 SLOAD TIMESTAMP PUSH2 0x449 SWAP2 SWAP1 PUSH2 0x995 JUMP JUMPDEST SWAP1 POP PUSH0 PUSH2 0x455 DUP3 PUSH2 0x52F JUMP JUMPDEST PUSH1 0x40 MLOAD PUSH1 0x20 ADD PUSH2 0x465 SWAP2 SWAP1 PUSH2 0xA28 JUMP JUMPDEST PUSH1 0x40 MLOAD PUSH1 0x20 DUP2 DUP4 SUB SUB DUP2 MSTORE SWAP1 PUSH1 0x40 MSTORE SWAP1 POP DUP3 DUP3 GT DUP2 SWAP1 PUSH2 0x4BB JUMPI PUSH1 0x40 MLOAD PUSH32 0x8C379A000000000000000000000000000000000000000000000000000000000 DUP2 MSTORE PUSH1 0x4 ADD PUSH2 0x4B2 SWAP2 SWAP1 PUSH2 0x8AD JUMP JUMPDEST PUSH1 0x40 MLOAD DUP1 SWAP2 SUB SWAP1 REVERT JUMPDEST POP PUSH1 0x1 PUSH0 SWAP1 SLOAD SWAP1 PUSH2 0x100 EXP SWAP1 DIV PUSH20 0xFFFFFFFFFFFFFFFFFFFFFFFFFFFFFFFFFFFFFFFF AND PUSH20 0xFFFFFFFFFFFFFFFFFFFFFFFFFFFFFFFFFFFFFFFF AND PUSH2 0x8FC PUSH1 0x2 SLOAD SWAP1 DUP2 ISZERO MUL SWAP1 PUSH1 0x40 MLOAD PUSH0 PUSH1 0x40 MLOAD DUP1 DUP4 SUB DUP2 DUP6 DUP9 DUP9 CALL SWAP4 POP POP POP POP ISZERO DUP1 ISZERO PUSH2 0x522 JUMPI RETURNDATASIZE PUSH0 DUP1 RETURNDATACOPY RETURNDATASIZE PUSH0 REVERT JUMPDEST POP PUSH0 PUSH1 0x2 DUP2 SWAP1 SSTORE POP POP POP POP JUMP JUMPDEST PUSH1 0x60 PUSH0 PUSH1 0x1 PUSH2 0x53D DUP5 PUSH2 0x5F9 JUMP JUMPDEST ADD SWAP1 POP PUSH0 DUP2 PUSH8 0xFFFFFFFFFFFFFFFF DUP2 GT ISZERO PUSH2 0x55B JUMPI PUSH2 0x55A PUSH2 0xA4D JUMP JUMPDEST JUMPDEST PUSH1 0x40 MLOAD SWAP1 DUP1 DUP3 MSTORE DUP1 PUSH1 0x1F ADD PUSH1 0x1F NOT AND PUSH1 0x20 ADD DUP3 ADD PUSH1 0x40 MSTORE DUP1 ISZERO PUSH2 0x58D JUMPI DUP2 PUSH1 0x20 ADD PUSH1 0x1 DUP3 MUL DUP1 CALLDATASIZE DUP4 CALLDATACOPY DUP1 DUP3 ADD SWAP2 POP POP SWAP1 POP JUMPDEST POP SWAP1 POP PUSH0 DUP3 PUSH1 0x20 ADD DUP3 ADD SWAP1 POP JUMPDEST PUSH1 0x1 ISZERO PUSH2 0x5EE JUMPI DUP1 DUP1 PUSH1 0x1 SWAP1 SUB SWAP2 POP POP PUSH32 0x3031323334353637383961626364656600000000000000000000000000000000 PUSH1 0xA DUP7 MOD BYTE DUP2 MSTORE8 PUSH1 0xA DUP6 DUP2 PUSH2 0x5E3 JUMPI PUSH2 0x5E2 PUSH2 0xA7A JUMP JUMPDEST JUMPDEST DIV SWAP5 POP PUSH0 DUP6 SUB PUSH2 0x59A JUMPI JUMPDEST DUP2 SWAP4 POP POP POP POP SWAP2 SWAP1 POP JUMP JUMPDEST PUSH0 DUP1 PUSH0 SWAP1 POP PUSH27 0x184F03E93FF9F4DAA797ED6E38ED64BF6A1F010000000000000000 DUP4 LT PUSH2 0x655 JUMPI PUSH27 0x184F03E93FF9F4DAA797ED6E38ED64BF6A1F010000000000000000 DUP4 DUP2 PUSH2 0x64B JUMPI PUSH2 0x64A PUSH2 0xA7A JUMP JUMPDEST JUMPDEST DIV SWAP3 POP PUSH1 0x40 DUP2 ADD SWAP1 POP JUMPDEST PUSH14 0x4EE2D6D415B85ACEF8100000000 DUP4 LT PUSH2 0x692 JUMPI PUSH14 0x4EE2D6D415B85ACEF8100000000 DUP4 DUP2 PUSH2 0x688 JUMPI PUSH2 0x687 PUSH2 0xA7A JUMP JUMPDEST JUMPDEST DIV SWAP3 POP PUSH1 0x20 DUP2 ADD SWAP1 POP JUMPDEST PUSH7 0x2386F26FC10000 DUP4 LT PUSH2 0x6C1 JUMPI PUSH7 0x2386F26FC10000 DUP4 DUP2 PUSH2 0x6B7 JUMPI PUSH2 0x6B6 PUSH2 0xA7A JUMP JUMPDEST JUMPDEST DIV SWAP3 POP PUSH1 0x10 DUP2 ADD SWAP1 POP JUMPDEST PUSH4 0x5F5E100 DUP4 LT PUSH2 0x6EA JUMPI PUSH4 0x5F5E100 DUP4 DUP2 PUSH2 0x6E0 JUMPI PUSH2 0x6DF PUSH2 0xA7A JUMP JUMPDEST JUMPDEST DIV SWAP3 POP PUSH1 0x8 DUP2 ADD SWAP1 POP JUMPDEST PUSH2 0x2710 DUP4 LT PUSH2 0x70F JUMPI PUSH2 0x2710 DUP4 DUP2 PUSH2 0x705 JUMPI PUSH2 0x704 PUSH2 0xA7A JUMP JUMPDEST JUMPDEST DIV SWAP3 POP PUSH1 0x4 DUP2 ADD SWAP1 POP JUMPDEST PUSH1 0x64 DUP4 LT PUSH2 0x732 JUMPI PUSH1 0x64 DUP4 DUP2 PUSH2 0x728 JUMPI PUSH2 0x727 PUSH2 0xA7A JUMP JUMPDEST JUMPDEST DIV SWAP3 POP PUSH1 0x2 DUP2 ADD SWAP1 POP JUMPDEST PUSH1 0xA DUP4 LT PUSH2 0x741 JUMPI PUSH1 0x1 DUP2 ADD SWAP1 POP JUMPDEST DUP1 SWAP2 POP POP SWAP2 SWAP1 POP JUMP JUMPDEST PUSH0 DUP2 SWAP1 POP SWAP2 SWAP1 POP JUMP JUMPDEST PUSH2 0x75C DUP2 PUSH2 0x74A JUMP JUMPDEST DUP3 MSTORE POP POP JUMP JUMPDEST PUSH0 PUSH1 0x20 DUP3 ADD SWAP1 POP PUSH2 0x775 PUSH0 DUP4 ADD DUP5 PUSH2 0x753 JUMP JUMPDEST SWAP3 SWAP2 POP POP JUMP JUMPDEST PUSH0 DUP1 REVERT JUMPDEST PUSH0 PUSH20 0xFFFFFFFFFFFFFFFFFFFFFFFFFFFFFFFFFFFFFFFF DUP3 AND SWAP1 POP SWAP2 SWAP1 POP JUMP JUMPDEST PUSH0 PUSH2 0x7A8 DUP3 PUSH2 0x77F JUMP JUMPDEST SWAP1 POP SWAP2 SWAP1 POP JUMP JUMPDEST PUSH2 0x7B8 DUP2 PUSH2 0x79E JUMP JUMPDEST DUP2 EQ PUSH2 0x7C2 JUMPI PUSH0 DUP1 REVERT JUMPDEST POP JUMP JUMPDEST PUSH0 DUP2 CALLDATALOAD SWAP1 POP PUSH2 0x7D3 DUP2 PUSH2 0x7AF JUMP JUMPDEST SWAP3 SWAP2 POP POP JUMP JUMPDEST PUSH0 PUSH1 0x20 DUP3 DUP5 SUB SLT ISZERO PUSH2 0x7EE JUMPI PUSH2 0x7ED PUSH2 0x77B JUMP JUMPDEST JUMPDEST PUSH0 PUSH2 0x7FB DUP5 DUP3 DUP6 ADD PUSH2 0x7C5 JUMP JUMPDEST SWAP2 POP POP SWAP3 SWAP2 POP POP JUMP JUMPDEST PUSH0 PUSH2 0x80E DUP3 PUSH2 0x77F JUMP JUMPDEST SWAP1 POP SWAP2 SWAP1 POP JUMP JUMPDEST PUSH2 0x81E DUP2 PUSH2 0x804 JUMP JUMPDEST DUP3 MSTORE POP POP JUMP JUMPDEST PUSH0 PUSH1 0x20 DUP3 ADD SWAP1 POP PUSH2 0x837 PUSH0 DUP4 ADD DUP5 PUSH2 0x815 JUMP JUMPDEST SWAP3 SWAP2 POP POP JUMP JUMPDEST PUSH0 DUP2 MLOAD SWAP1 POP SWAP2 SWAP1 POP JUMP JUMPDEST PUSH0 DUP3 DUP3 MSTORE PUSH1 0x20 DUP3 ADD SWAP1 POP SWAP3 SWAP2 POP POP JUMP JUMPDEST DUP3 DUP2 DUP4 MCOPY PUSH0 DUP4 DUP4 ADD MSTORE POP POP POP JUMP JUMPDEST PUSH0 PUSH1 0x1F NOT PUSH1 0x1F DUP4 ADD AND SWAP1 POP SWAP2 SWAP1 POP JUMP JUMPDEST PUSH0 PUSH2 0x87F DUP3 PUSH2 0x83D JUMP JUMPDEST PUSH2 0x889 DUP2 DUP6 PUSH2 0x847 JUMP JUMPDEST SWAP4 POP PUSH2 0x899 DUP2 DUP6 PUSH1 0x20 DUP7 ADD PUSH2 0x857 JUMP JUMPDEST PUSH2 0x8A2 DUP2 PUSH2 0x865 JUMP JUMPDEST DUP5 ADD SWAP2 POP POP SWAP3 SWAP2 POP POP JUMP JUMPDEST PUSH0 PUSH1 0x20 DUP3 ADD SWAP1 POP DUP2 DUP2 SUB PUSH0 DUP4 ADD MSTORE PUSH2 0x8C5 DUP2 DUP5 PUSH2 0x875 JUMP JUMPDEST SWAP1 POP SWAP3 SWAP2 POP POP JUMP JUMPDEST PUSH32 0x596F7520617265206E6F74206F776E6572000000000000000000000000000000 PUSH0 DUP3 ADD MSTORE POP JUMP JUMPDEST PUSH0 PUSH2 0x901 PUSH1 0x11 DUP4 PUSH2 0x847 JUMP JUMPDEST SWAP2 POP PUSH2 0x90C DUP3 PUSH2 0x8CD JUMP JUMPDEST PUSH1 0x20 DUP3 ADD SWAP1 POP SWAP2 SWAP1 POP JUMP JUMPDEST PUSH0 PUSH1 0x20 DUP3 ADD SWAP1 POP DUP2 DUP2 SUB PUSH0 DUP4 ADD MSTORE PUSH2 0x92E DUP2 PUSH2 0x8F5 JUMP JUMPDEST SWAP1 POP SWAP2 SWAP1 POP JUMP JUMPDEST PUSH32 0x4E487B7100000000000000000000000000000000000000000000000000000000 PUSH0 MSTORE PUSH1 0x11 PUSH1 0x4 MSTORE PUSH1 0x24 PUSH0 REVERT JUMPDEST PUSH0 PUSH2 0x96C DUP3 PUSH2 0x74A JUMP JUMPDEST SWAP2 POP PUSH2 0x977 DUP4 PUSH2 0x74A JUMP JUMPDEST SWAP3 POP DUP3 DUP3 ADD SWAP1 POP DUP1 DUP3 GT ISZERO PUSH2 0x98F JUMPI PUSH2 0x98E PUSH2 0x935 JUMP JUMPDEST JUMPDEST SWAP3 SWAP2 POP POP JUMP JUMPDEST PUSH0 PUSH2 0x99F DUP3 PUSH2 0x74A JUMP JUMPDEST SWAP2 POP PUSH2 0x9AA DUP4 PUSH2 0x74A JUMP JUMPDEST SWAP3 POP DUP3 DUP3 SUB SWAP1 POP DUP2 DUP2 GT ISZERO PUSH2 0x9C2 JUMPI PUSH2 0x9C1 PUSH2 0x935 JUMP JUMPDEST JUMPDEST SWAP3 SWAP2 POP POP JUMP JUMPDEST PUSH32 0x54696D6520706173736564203A2028696E207365632920000000000000000000 DUP2 MSTORE POP JUMP JUMPDEST PUSH0 DUP2 SWAP1 POP SWAP3 SWAP2 POP POP JUMP JUMPDEST PUSH0 PUSH2 0xA02 DUP3 PUSH2 0x83D JUMP JUMPDEST PUSH2 0xA0C DUP2 DUP6 PUSH2 0x9EE JUMP JUMPDEST SWAP4 POP PUSH2 0xA1C DUP2 DUP6 PUSH1 0x20 DUP7 ADD PUSH2 0x857 JUMP JUMPDEST DUP1 DUP5 ADD SWAP2 POP POP SWAP3 SWAP2 POP POP JUMP JUMPDEST PUSH0 PUSH2 0xA32 DUP3 PUSH2 0x9C8 JUMP JUMPDEST PUSH1 0x17 DUP3 ADD SWAP2 POP PUSH2 0xA42 DUP3 DUP5 PUSH2 0x9F8 JUMP JUMPDEST SWAP2 POP DUP2 SWAP1 POP SWAP3 SWAP2 POP POP JUMP JUMPDEST PUSH32 0x4E487B7100000000000000000000000000000000000000000000000000000000 PUSH0 MSTORE PUSH1 0x41 PUSH1 0x4 MSTORE PUSH1 0x24 PUSH0 REVERT JUMPDEST PUSH32 0x4E487B7100000000000000000000000000000000000000000000000000000000 PUSH0 MSTORE PUSH1 0x12 PUSH1 0x4 MSTORE PUSH1 0x24 PUSH0 REVERT INVALID LOG2 PUSH5 0x6970667358 0x22 SLT KECCAK256 CHAINID PUSH26 0x27C1864853F9576D71824C5850804B324ECA962745BEAD591672 0xDD 0xAE INVALID PUSH5 0x64736F6C63 NUMBER STOP ADDMOD BYTE STOP CALLER "
				},
				"gasEstimates": {
					"creation": {
						"codeDepositCost": "556200",
						"executionCost": "infinite",
						"totalCost": "infinite"
					},
					"external": {
						"changeRecipientAddress(address)": "26926",
						"depositMoney()": "infinite",
						"ownerAddress()": "2549",
						"passedTime()": "2426",
						"ping()": "infinite",
						"recipientAddress()": "2575",
						"totalMoney()": "2447",
						"withdrawMoney()": "infinite"
					}
				},
				"methodIdentifiers": {
					"changeRecipientAddress(address)": "4bf9407f",
					"depositMoney()": "16c05aa2",
					"ownerAddress()": "8f84aa09",
					"passedTime()": "11f74313",
					"ping()": "5c36b186",
					"recipientAddress()": "5aff5999",
					"totalMoney()": "87da21e3",
					"withdrawMoney()": "ac446002"
				}
			},
			"storageLayout": {
				"storage": [
					{
						"astId": 3891,
						"contract": "contracts/WillPayable.sol:WillPayable",
						"label": "ownerAddress",
						"offset": 0,
						"slot": "0",
						"type": "t_address"
					},
					{
						"astId": 3893,
						"contract": "contracts/WillPayable.sol:WillPayable",
						"label": "recipientAddress",
						"offset": 0,
						"slot": "1",
						"type": "t_address"
					},
					{
						"astId": 3895,
						"contract": "contracts/WillPayable.sol:WillPayable",
						"label": "totalMoney",
						"offset": 0,
						"slot": "2",
						"type": "t_uint256"
					},
					{
						"astId": 3897,
						"contract": "contracts/WillPayable.sol:WillPayable",
						"label": "passedTime",
						"offset": 0,
						"slot": "3",
						"type": "t_uint256"
					}
				],
				"types": {
					"t_address": {
						"encoding": "inplace",
						"label": "address",
						"numberOfBytes": "20"
					},
					"t_uint256": {
						"encoding": "inplace",
						"label": "uint256",
						"numberOfBytes": "32"
					}
				}
			},
			"userdoc": {
				"kind": "user",
				"methods": {},
				"version": 1
			}
		}
	}
}