{
	"data": {
		"bytecode": {
			"linkReferences": {},
			"object": "60806040525f5f553480156011575f5ffd5b506040516107b33803806107b3833981810160405281019060319190606e565b805f81905550506094565b5f5ffd5b5f819050919050565b6050816040565b81146059575f5ffd5b50565b5f815190506068816049565b92915050565b5f60208284031215608057607f603c565b5b5f608b84828501605c565b91505092915050565b610712806100a15f395ff3fe608060405234801561000f575f5ffd5b5060043610610060575f3560e01c80631003e2d2146100645780631dc05f1714610080578063209652551461009c5780633e823f79146100ba5780635b8e0d96146100d65780638642e8ba146100f2575b5f5ffd5b61007e60048036038101906100799190610290565b610122565b005b61009a60048036038101906100959190610290565b61013c565b005b6100a4610156565b6040516100b191906102ca565b60405180910390f35b6100d460048036038101906100cf9190610290565b610167565b005b6100f060048036038101906100eb9190610290565b6101c3565b005b61010c6004803603810190610107919061041f565b6101dd565b60405161011991906104c6565b60405180910390f35b805f5f8282546101329190610513565b9250508190555050565b805f5f82825461014c9190610546565b9250508190555050565b5f61015f61020f565b505f54905090565b5f81036101a9576040517f08c379a00000000000000000000000000000000000000000000000000000000081526004016101a0906105c3565b60405180910390fd5b805f5f8282546101b9919061060e565b9250508190555050565b805f5f8282546101d3919061063e565b9250508190555050565b60606101e761020f565b826040516020016101f99291906106b9565b6040516020818303038152906040529050919050565b60606040518060400160405280600b81526020017f68656c6c6f20776f726c64000000000000000000000000000000000000000000815250905090565b5f604051905090565b5f5ffd5b5f5ffd5b5f819050919050565b61026f8161025d565b8114610279575f5ffd5b50565b5f8135905061028a81610266565b92915050565b5f602082840312156102a5576102a4610255565b5b5f6102b28482850161027c565b91505092915050565b6102c48161025d565b82525050565b5f6020820190506102dd5f8301846102bb565b92915050565b5f5ffd5b5f5ffd5b5f601f19601f8301169050919050565b7f4e487b71000000000000000000000000000000000000000000000000000000005f52604160045260245ffd5b610331826102eb565b810181811067ffffffffffffffff821117156103505761034f6102fb565b5b80604052505050565b5f61036261024c565b905061036e8282610328565b919050565b5f67ffffffffffffffff82111561038d5761038c6102fb565b5b610396826102eb565b9050602081019050919050565b828183375f83830152505050565b5f6103c36103be84610373565b610359565b9050828152602081018484840111156103df576103de6102e7565b5b6103ea8482856103a3565b509392505050565b5f82601f830112610406576104056102e3565b5b81356104168482602086016103b1565b91505092915050565b5f6020828403121561043457610433610255565b5b5f82013567ffffffffffffffff81111561045157610450610259565b5b61045d848285016103f2565b91505092915050565b5f81519050919050565b5f82825260208201905092915050565b8281835e5f83830152505050565b5f61049882610466565b6104a28185610470565b93506104b2818560208601610480565b6104bb816102eb565b840191505092915050565b5f6020820190508181035f8301526104de818461048e565b905092915050565b7f4e487b71000000000000000000000000000000000000000000000000000000005f52601160045260245ffd5b5f61051d8261025d565b91506105288361025d565b92508282019050808211156105405761053f6104e6565b5b92915050565b5f6105508261025d565b915061055b8361025d565b9250828203905081811115610573576105726104e6565b5b92915050565b7f76616c75652063616e27742062652030000000000000000000000000000000005f82015250565b5f6105ad601083610470565b91506105b882610579565b602082019050919050565b5f6020820190508181035f8301526105da816105a1565b9050919050565b7f4e487b71000000000000000000000000000000000000000000000000000000005f52601260045260245ffd5b5f6106188261025d565b91506106238361025d565b925082610633576106326105e1565b5b828204905092915050565b5f6106488261025d565b91506106538361025d565b92508282026106618161025d565b91508282048414831517610678576106776104e6565b5b5092915050565b5f81905092915050565b5f61069382610466565b61069d818561067f565b93506106ad818560208601610480565b80840191505092915050565b5f6106c48285610689565b91506106d08284610689565b9150819050939250505056fea26469706673582212208f7f6d5b3d6eee7c5e826947d4079604df30bfd012de1cba5afb88c2c158b03264736f6c634300081e0033",
			"opcodes": "PUSH1 0x80 PUSH1 0x40 MSTORE PUSH0 PUSH0 SSTORE CALLVALUE DUP1 ISZERO PUSH1 0x11 JUMPI PUSH0 PUSH0 REVERT JUMPDEST POP PUSH1 0x40 MLOAD PUSH2 0x7B3 CODESIZE SUB DUP1 PUSH2 0x7B3 DUP4 CODECOPY DUP2 DUP2 ADD PUSH1 0x40 MSTORE DUP2 ADD SWAP1 PUSH1 0x31 SWAP2 SWAP1 PUSH1 0x6E JUMP JUMPDEST DUP1 PUSH0 DUP2 SWAP1 SSTORE POP POP PUSH1 0x94 JUMP JUMPDEST PUSH0 PUSH0 REVERT JUMPDEST PUSH0 DUP2 SWAP1 POP SWAP2 SWAP1 POP JUMP JUMPDEST PUSH1 0x50 DUP2 PUSH1 0x40 JUMP JUMPDEST DUP2 EQ PUSH1 0x59 JUMPI PUSH0 PUSH0 REVERT JUMPDEST POP JUMP JUMPDEST PUSH0 DUP2 MLOAD SWAP1 POP PUSH1 0x68 DUP2 PUSH1 0x49 JUMP JUMPDEST SWAP3 SWAP2 POP POP JUMP JUMPDEST PUSH0 PUSH1 0x20 DUP3 DUP5 SUB SLT ISZERO PUSH1 0x80 JUMPI PUSH1 0x7F PUSH1 0x3C JUMP JUMPDEST JUMPDEST PUSH0 PUSH1 0x8B DUP5 DUP3 DUP6 ADD PUSH1 0x5C JUMP JUMPDEST SWAP2 POP POP SWAP3 SWAP2 POP POP JUMP JUMPDEST PUSH2 0x712 DUP1 PUSH2 0xA1 PUSH0 CODECOPY PUSH0 RETURN INVALID PUSH1 0x80 PUSH1 0x40 MSTORE CALLVALUE DUP1 ISZERO PUSH2 0xF JUMPI PUSH0 PUSH0 REVERT JUMPDEST POP PUSH1 0x4 CALLDATASIZE LT PUSH2 0x60 JUMPI PUSH0 CALLDATALOAD PUSH1 0xE0 SHR DUP1 PUSH4 0x1003E2D2 EQ PUSH2 0x64 JUMPI DUP1 PUSH4 0x1DC05F17 EQ PUSH2 0x80 JUMPI DUP1 PUSH4 0x20965255 EQ PUSH2 0x9C JUMPI DUP1 PUSH4 0x3E823F79 EQ PUSH2 0xBA JUMPI DUP1 PUSH4 0x5B8E0D96 EQ PUSH2 0xD6 JUMPI DUP1 PUSH4 0x8642E8BA EQ PUSH2 0xF2 JUMPI JUMPDEST PUSH0 PUSH0 REVERT JUMPDEST PUSH2 0x7E PUSH1 0x4 DUP1 CALLDATASIZE SUB DUP2 ADD SWAP1 PUSH2 0x79 SWAP2 SWAP1 PUSH2 0x290 JUMP JUMPDEST PUSH2 0x122 JUMP JUMPDEST STOP JUMPDEST PUSH2 0x9A PUSH1 0x4 DUP1 CALLDATASIZE SUB DUP2 ADD SWAP1 PUSH2 0x95 SWAP2 SWAP1 PUSH2 0x290 JUMP JUMPDEST PUSH2 0x13C JUMP JUMPDEST STOP JUMPDEST PUSH2 0xA4 PUSH2 0x156 JUMP JUMPDEST PUSH1 0x40 MLOAD PUSH2 0xB1 SWAP2 SWAP1 PUSH2 0x2CA JUMP JUMPDEST PUSH1 0x40 MLOAD DUP1 SWAP2 SUB SWAP1 RETURN JUMPDEST PUSH2 0xD4 PUSH1 0x4 DUP1 CALLDATASIZE SUB DUP2 ADD SWAP1 PUSH2 0xCF SWAP2 SWAP1 PUSH2 0x290 JUMP JUMPDEST PUSH2 0x167 JUMP JUMPDEST STOP JUMPDEST PUSH2 0xF0 PUSH1 0x4 DUP1 CALLDATASIZE SUB DUP2 ADD SWAP1 PUSH2 0xEB SWAP2 SWAP1 PUSH2 0x290 JUMP JUMPDEST PUSH2 0x1C3 JUMP JUMPDEST STOP JUMPDEST PUSH2 0x10C PUSH1 0x4 DUP1 CALLDATASIZE SUB DUP2 ADD SWAP1 PUSH2 0x107 SWAP2 SWAP1 PUSH2 0x41F JUMP JUMPDEST PUSH2 0x1DD JUMP JUMPDEST PUSH1 0x40 MLOAD PUSH2 0x119 SWAP2 SWAP1 PUSH2 0x4C6 JUMP JUMPDEST PUSH1 0x40 MLOAD DUP1 SWAP2 SUB SWAP1 RETURN JUMPDEST DUP1 PUSH0 PUSH0 DUP3 DUP3 SLOAD PUSH2 0x132 SWAP2 SWAP1 PUSH2 0x513 JUMP JUMPDEST SWAP3 POP POP DUP2 SWAP1 SSTORE POP POP JUMP JUMPDEST DUP1 PUSH0 PUSH0 DUP3 DUP3 SLOAD PUSH2 0x14C SWAP2 SWAP1 PUSH2 0x546 JUMP JUMPDEST SWAP3 POP POP DUP2 SWAP1 SSTORE POP POP JUMP JUMPDEST PUSH0 PUSH2 0x15F PUSH2 0x20F JUMP JUMPDEST POP PUSH0 SLOAD SWAP1 POP SWAP1 JUMP JUMPDEST PUSH0 DUP2 SUB PUSH2 0x1A9 JUMPI PUSH1 0x40 MLOAD PUSH32 0x8C379A000000000000000000000000000000000000000000000000000000000 DUP2 MSTORE PUSH1 0x4 ADD PUSH2 0x1A0 SWAP1 PUSH2 0x5C3 JUMP JUMPDEST PUSH1 0x40 MLOAD DUP1 SWAP2 SUB SWAP1 REVERT JUMPDEST DUP1 PUSH0 PUSH0 DUP3 DUP3 SLOAD PUSH2 0x1B9 SWAP2 SWAP1 PUSH2 0x60E JUMP JUMPDEST SWAP3 POP POP DUP2 SWAP1 SSTORE POP POP JUMP JUMPDEST DUP1 PUSH0 PUSH0 DUP3 DUP3 SLOAD PUSH2 0x1D3 SWAP2 SWAP1 PUSH2 0x63E JUMP JUMPDEST SWAP3 POP POP DUP2 SWAP1 SSTORE POP POP JUMP JUMPDEST PUSH1 0x60 PUSH2 0x1E7 PUSH2 0x20F JUMP JUMPDEST DUP3 PUSH1 0x40 MLOAD PUSH1 0x20 ADD PUSH2 0x1F9 SWAP3 SWAP2 SWAP1 PUSH2 0x6B9 JUMP JUMPDEST PUSH1 0x40 MLOAD PUSH1 0x20 DUP2 DUP4 SUB SUB DUP2 MSTORE SWAP1 PUSH1 0x40 MSTORE SWAP1 POP SWAP2 SWAP1 POP JUMP JUMPDEST PUSH1 0x60 PUSH1 0x40 MLOAD DUP1 PUSH1 0x40 ADD PUSH1 0x40 MSTORE DUP1 PUSH1 0xB DUP2 MSTORE PUSH1 0x20 ADD PUSH32 0x68656C6C6F20776F726C64000000000000000000000000000000000000000000 DUP2 MSTORE POP SWAP1 POP SWAP1 JUMP JUMPDEST PUSH0 PUSH1 0x40 MLOAD SWAP1 POP SWAP1 JUMP JUMPDEST PUSH0 PUSH0 REVERT JUMPDEST PUSH0 PUSH0 REVERT JUMPDEST PUSH0 DUP2 SWAP1 POP SWAP2 SWAP1 POP JUMP JUMPDEST PUSH2 0x26F DUP2 PUSH2 0x25D JUMP JUMPDEST DUP2 EQ PUSH2 0x279 JUMPI PUSH0 PUSH0 REVERT JUMPDEST POP JUMP JUMPDEST PUSH0 DUP2 CALLDATALOAD SWAP1 POP PUSH2 0x28A DUP2 PUSH2 0x266 JUMP JUMPDEST SWAP3 SWAP2 POP POP JUMP JUMPDEST PUSH0 PUSH1 0x20 DUP3 DUP5 SUB SLT ISZERO PUSH2 0x2A5 JUMPI PUSH2 0x2A4 PUSH2 0x255 JUMP JUMPDEST JUMPDEST PUSH0 PUSH2 0x2B2 DUP5 DUP3 DUP6 ADD PUSH2 0x27C JUMP JUMPDEST SWAP2 POP POP SWAP3 SWAP2 POP POP JUMP JUMPDEST PUSH2 0x2C4 DUP2 PUSH2 0x25D JUMP JUMPDEST DUP3 MSTORE POP POP JUMP JUMPDEST PUSH0 PUSH1 0x20 DUP3 ADD SWAP1 POP PUSH2 0x2DD PUSH0 DUP4 ADD DUP5 PUSH2 0x2BB JUMP JUMPDEST SWAP3 SWAP2 POP POP JUMP JUMPDEST PUSH0 PUSH0 REVERT JUMPDEST PUSH0 PUSH0 REVERT JUMPDEST PUSH0 PUSH1 0x1F NOT PUSH1 0x1F DUP4 ADD AND SWAP1 POP SWAP2 SWAP1 POP JUMP JUMPDEST PUSH32 0x4E487B7100000000000000000000000000000000000000000000000000000000 PUSH0 MSTORE PUSH1 0x41 PUSH1 0x4 MSTORE PUSH1 0x24 PUSH0 REVERT JUMPDEST PUSH2 0x331 DUP3 PUSH2 0x2EB JUMP JUMPDEST DUP2 ADD DUP2 DUP2 LT PUSH8 0xFFFFFFFFFFFFFFFF DUP3 GT OR ISZERO PUSH2 0x350 JUMPI PUSH2 0x34F PUSH2 0x2FB JUMP JUMPDEST JUMPDEST DUP1 PUSH1 0x40 MSTORE POP POP POP JUMP JUMPDEST PUSH0 PUSH2 0x362 PUSH2 0x24C JUMP JUMPDEST SWAP1 POP PUSH2 0x36E DUP3 DUP3 PUSH2 0x328 JUMP JUMPDEST SWAP2 SWAP1 POP JUMP JUMPDEST PUSH0 PUSH8 0xFFFFFFFFFFFFFFFF DUP3 GT ISZERO PUSH2 0x38D JUMPI PUSH2 0x38C PUSH2 0x2FB JUMP JUMPDEST JUMPDEST PUSH2 0x396 DUP3 PUSH2 0x2EB JUMP JUMPDEST SWAP1 POP PUSH1 0x20 DUP2 ADD SWAP1 POP SWAP2 SWAP1 POP JUMP JUMPDEST DUP3 DUP2 DUP4 CALLDATACOPY PUSH0 DUP4 DUP4 ADD MSTORE POP POP POP JUMP JUMPDEST PUSH0 PUSH2 0x3C3 PUSH2 0x3BE DUP5 PUSH2 0x373 JUMP JUMPDEST PUSH2 0x359 JUMP JUMPDEST SWAP1 POP DUP3 DUP2 MSTORE PUSH1 0x20 DUP2 ADD DUP5 DUP5 DUP5 ADD GT ISZERO PUSH2 0x3DF JUMPI PUSH2 0x3DE PUSH2 0x2E7 JUMP JUMPDEST JUMPDEST PUSH2 0x3EA DUP5 DUP3 DUP6 PUSH2 0x3A3 JUMP JUMPDEST POP SWAP4 SWAP3 POP POP POP JUMP JUMPDEST PUSH0 DUP3 PUSH1 0x1F DUP4 ADD SLT PUSH2 0x406 JUMPI PUSH2 0x405 PUSH2 0x2E3 JUMP JUMPDEST JUMPDEST DUP2 CALLDATALOAD PUSH2 0x416 DUP5 DUP3 PUSH1 0x20 DUP7 ADD PUSH2 0x3B1 JUMP JUMPDEST SWAP2 POP POP SWAP3 SWAP2 POP POP JUMP JUMPDEST PUSH0 PUSH1 0x20 DUP3 DUP5 SUB SLT ISZERO PUSH2 0x434 JUMPI PUSH2 0x433 PUSH2 0x255 JUMP JUMPDEST JUMPDEST PUSH0 DUP3 ADD CALLDATALOAD PUSH8 0xFFFFFFFFFFFFFFFF DUP2 GT ISZERO PUSH2 0x451 JUMPI PUSH2 0x450 PUSH2 0x259 JUMP JUMPDEST JUMPDEST PUSH2 0x45D DUP5 DUP3 DUP6 ADD PUSH2 0x3F2 JUMP JUMPDEST SWAP2 POP POP SWAP3 SWAP2 POP POP JUMP JUMPDEST PUSH0 DUP2 MLOAD SWAP1 POP SWAP2 SWAP1 POP JUMP JUMPDEST PUSH0 DUP3 DUP3 MSTORE PUSH1 0x20 DUP3 ADD SWAP1 POP SWAP3 SWAP2 POP POP JUMP JUMPDEST DUP3 DUP2 DUP4 MCOPY PUSH0 DUP4 DUP4 ADD MSTORE POP POP POP JUMP JUMPDEST PUSH0 PUSH2 0x498 DUP3 PUSH2 0x466 JUMP JUMPDEST PUSH2 0x4A2 DUP2 DUP6 PUSH2 0x470 JUMP JUMPDEST SWAP4 POP PUSH2 0x4B2 DUP2 DUP6 PUSH1 0x20 DUP7 ADD PUSH2 0x480 JUMP JUMPDEST PUSH2 0x4BB DUP2 PUSH2 0x2EB JUMP JUMPDEST DUP5 ADD SWAP2 POP POP SWAP3 SWAP2 POP POP JUMP JUMPDEST PUSH0 PUSH1 0x20 DUP3 ADD SWAP1 POP DUP2 DUP2 SUB PUSH0 DUP4 ADD MSTORE PUSH2 0x4DE DUP2 DUP5 PUSH2 0x48E JUMP JUMPDEST SWAP1 POP SWAP3 SWAP2 POP POP JUMP JUMPDEST PUSH32 0x4E487B7100000000000000000000000000000000000000000000000000000000 PUSH0 MSTORE PUSH1 0x11 PUSH1 0x4 MSTORE PUSH1 0x24 PUSH0 REVERT JUMPDEST PUSH0 PUSH2 0x51D DUP3 PUSH2 0x25D JUMP JUMPDEST SWAP2 POP PUSH2 0x528 DUP4 PUSH2 0x25D JUMP JUMPDEST SWAP3 POP DUP3 DUP3 ADD SWAP1 POP DUP1 DUP3 GT ISZERO PUSH2 0x540 JUMPI PUSH2 0x53F PUSH2 0x4E6 JUMP JUMPDEST JUMPDEST SWAP3 SWAP2 POP POP JUMP JUMPDEST PUSH0 PUSH2 0x550 DUP3 PUSH2 0x25D JUMP JUMPDEST SWAP2 POP PUSH2 0x55B DUP4 PUSH2 0x25D JUMP JUMPDEST SWAP3 POP DUP3 DUP3 SUB SWAP1 POP DUP2 DUP2 GT ISZERO PUSH2 0x573 JUMPI PUSH2 0x572 PUSH2 0x4E6 JUMP JUMPDEST JUMPDEST SWAP3 SWAP2 POP POP JUMP JUMPDEST PUSH32 0x76616C75652063616E2774206265203000000000000000000000000000000000 PUSH0 DUP3 ADD MSTORE POP JUMP JUMPDEST PUSH0 PUSH2 0x5AD PUSH1 0x10 DUP4 PUSH2 0x470 JUMP JUMPDEST SWAP2 POP PUSH2 0x5B8 DUP3 PUSH2 0x579 JUMP JUMPDEST PUSH1 0x20 DUP3 ADD SWAP1 POP SWAP2 SWAP1 POP JUMP JUMPDEST PUSH0 PUSH1 0x20 DUP3 ADD SWAP1 POP DUP2 DUP2 SUB PUSH0 DUP4 ADD MSTORE PUSH2 0x5DA DUP2 PUSH2 0x5A1 JUMP JUMPDEST SWAP1 POP SWAP2 SWAP1 POP JUMP JUMPDEST PUSH32 0x4E487B7100000000000000000000000000000000000000000000000000000000 PUSH0 MSTORE PUSH1 0x12 PUSH1 0x4 MSTORE PUSH1 0x24 PUSH0 REVERT JUMPDEST PUSH0 PUSH2 0x618 DUP3 PUSH2 0x25D JUMP JUMPDEST SWAP2 POP PUSH2 0x623 DUP4 PUSH2 0x25D JUMP JUMPDEST SWAP3 POP DUP3 PUSH2 0x633 JUMPI PUSH2 0x632 PUSH2 0x5E1 JUMP JUMPDEST JUMPDEST DUP3 DUP3 DIV SWAP1 POP SWAP3 SWAP2 POP POP JUMP JUMPDEST PUSH0 PUSH2 0x648 DUP3 PUSH2 0x25D JUMP JUMPDEST SWAP2 POP PUSH2 0x653 DUP4 PUSH2 0x25D JUMP JUMPDEST SWAP3 POP DUP3 DUP3 MUL PUSH2 0x661 DUP2 PUSH2 0x25D JUMP JUMPDEST SWAP2 POP DUP3 DUP3 DIV DUP5 EQ DUP4 ISZERO OR PUSH2 0x678 JUMPI PUSH2 0x677 PUSH2 0x4E6 JUMP JUMPDEST JUMPDEST POP SWAP3 SWAP2 POP POP JUMP JUMPDEST PUSH0 DUP2 SWAP1 POP SWAP3 SWAP2 POP POP JUMP JUMPDEST PUSH0 PUSH2 0x693 DUP3 PUSH2 0x466 JUMP JUMPDEST PUSH2 0x69D DUP2 DUP6 PUSH2 0x67F JUMP JUMPDEST SWAP4 POP PUSH2 0x6AD DUP2 DUP6 PUSH1 0x20 DUP7 ADD PUSH2 0x480 JUMP JUMPDEST DUP1 DUP5 ADD SWAP2 POP POP SWAP3 SWAP2 POP POP JUMP JUMPDEST PUSH0 PUSH2 0x6C4 DUP3 DUP6 PUSH2 0x689 JUMP JUMPDEST SWAP2 POP PUSH2 0x6D0 DUP3 DUP5 PUSH2 0x689 JUMP JUMPDEST SWAP2 POP DUP2 SWAP1 POP SWAP4 SWAP3 POP POP POP JUMP INVALID LOG2 PUSH5 0x6970667358 0x22 SLT KECCAK256 DUP16 PUSH32 0x6D5B3D6EEE7C5E826947D4079604DF30BFD012DE1CBA5AFB88C2C158B0326473 PUSH16 0x6C634300081E00330000000000000000 "
		},
		"gasEstimates": {
			"creation": {
				"codeDepositCost": "362000",
				"executionCost": "infinite",
				"totalCost": "infinite"
			},
			"external": {
				"add(uint256)": "infinite",
				"callYourName(string)": "infinite",
				"divide(uint256)": "infinite",
				"getValue()": "2546",
				"muliply(uint256)": "infinite",
				"subtract(uint256)": "infinite"
			},
			"internal": {
				"hello()": "infinite"
			}
		},
		"methodIdentifiers": {
			"add(uint256)": "1003e2d2",
			"callYourName(string)": "8642e8ba",
			"divide(uint256)": "3e823f79",
			"getValue()": "20965255",
			"muliply(uint256)": "5b8e0d96",
			"subtract(uint256)": "1dc05f17"
		}
	},
	"abi": [
		{
			"inputs": [
				{
					"internalType": "uint256",
					"name": "_initialValue",
					"type": "uint256"
				}
			],
			"stateMutability": "nonpayable",
			"type": "constructor"
		},
		{
			"inputs": [
				{
					"internalType": "uint256",
					"name": "_value",
					"type": "uint256"
				}
			],
			"name": "add",
			"outputs": [],
			"stateMutability": "nonpayable",
			"type": "function"
		},
		{
			"inputs": [
				{
					"internalType": "string",
					"name": "_name",
					"type": "string"
				}
			],
			"name": "callYourName",
			"outputs": [
				{
					"internalType": "string",
					"name": "",
					"type": "string"
				}
			],
			"stateMutability": "pure",
			"type": "function"
		},
		{
			"inputs": [
				{
					"internalType": "uint256",
					"name": "_value",
					"type": "uint256"
				}
			],
			"name": "divide",
			"outputs": [],
			"stateMutability": "nonpayable",
			"type": "function"
		},
		{
			"inputs": [],
			"name": "getValue",
			"outputs": [
				{
					"internalType": "uint256",
					"name": "",
					"type": "uint256"
				}
			],
			"stateMutability": "view",
			"type": "function"
		},
		{
			"inputs": [
				{
					"internalType": "uint256",
					"name": "_value",
					"type": "uint256"
				}
			],
			"name": "muliply",
			"outputs": [],
			"stateMutability": "nonpayable",
			"type": "function"
		},
		{
			"inputs": [
				{
					"internalType": "uint256",
					"name": "_value",
					"type": "uint256"
				}
			],
			"name": "subtract",
			"outputs": [],
			"stateMutability": "nonpayable",
			"type": "function"
		}
	]
}