{
	"data": {
		"bytecode": {
			"linkReferences": {},
			"object": "6080604052348015600e575f80fd5b50610a488061001c5f395ff3fe608060405234801561000f575f80fd5b506004361061003f575f3560e01c80630f6f091514610043578063b7e4b2651461005f578063d26526b014610091575b5f80fd5b61005d600480360381019061005891906105ef565b6100c3565b005b6100796004803603810190610074919061065b565b6101b6565b60405161008893929190610704565b60405180910390f35b6100ab60048036038101906100a6919061065b565b61028d565b6040516100ba93929190610704565b60405180910390f35b60405180606001604052808481526020018360ff1681526020018273ffffffffffffffffffffffffffffffffffffffff168152505f803373ffffffffffffffffffffffffffffffffffffffff1673ffffffffffffffffffffffffffffffffffffffff1681526020019081526020015f205f820151815f0190816101469190610943565b506020820151816001015f6101000a81548160ff021916908360ff16021790555060408201518160010160016101000a81548173ffffffffffffffffffffffffffffffffffffffff021916908373ffffffffffffffffffffffffffffffffffffffff160217905550905050505050565b5f602052805f5260405f205f91509050805f0180546101d49061076d565b80601f01602080910402602001604051908101604052809291908181526020018280546102009061076d565b801561024b5780601f106102225761010080835404028352916020019161024b565b820191905f5260205f20905b81548152906001019060200180831161022e57829003601f168201915b505050505090806001015f9054906101000a900460ff16908060010160019054906101000a900473ffffffffffffffffffffffffffffffffffffffff16905083565b60605f805f808573ffffffffffffffffffffffffffffffffffffffff1673ffffffffffffffffffffffffffffffffffffffff1681526020019081526020015f205f015f808673ffffffffffffffffffffffffffffffffffffffff1673ffffffffffffffffffffffffffffffffffffffff1681526020019081526020015f206001015f9054906101000a900460ff165f808773ffffffffffffffffffffffffffffffffffffffff1673ffffffffffffffffffffffffffffffffffffffff1681526020019081526020015f2060010160019054906101000a900473ffffffffffffffffffffffffffffffffffffffff168280546103879061076d565b80601f01602080910402602001604051908101604052809291908181526020018280546103b39061076d565b80156103fe5780601f106103d5576101008083540402835291602001916103fe565b820191905f5260205f20905b8154815290600101906020018083116103e157829003601f168201915b505050505092509250925092509193909250565b5f604051905090565b5f80fd5b5f80fd5b5f80fd5b5f80fd5b5f601f19601f8301169050919050565b7f4e487b71000000000000000000000000000000000000000000000000000000005f52604160045260245ffd5b6104718261042b565b810181811067ffffffffffffffff821117156104905761048f61043b565b5b80604052505050565b5f6104a2610412565b90506104ae8282610468565b919050565b5f67ffffffffffffffff8211156104cd576104cc61043b565b5b6104d68261042b565b9050602081019050919050565b828183375f83830152505050565b5f6105036104fe846104b3565b610499565b90508281526020810184848401111561051f5761051e610427565b5b61052a8482856104e3565b509392505050565b5f82601f83011261054657610545610423565b5b81356105568482602086016104f1565b91505092915050565b5f60ff82169050919050565b6105748161055f565b811461057e575f80fd5b50565b5f8135905061058f8161056b565b92915050565b5f73ffffffffffffffffffffffffffffffffffffffff82169050919050565b5f6105be82610595565b9050919050565b6105ce816105b4565b81146105d8575f80fd5b50565b5f813590506105e9816105c5565b92915050565b5f805f606084860312156106065761060561041b565b5b5f84013567ffffffffffffffff8111156106235761062261041f565b5b61062f86828701610532565b935050602061064086828701610581565b9250506040610651868287016105db565b9150509250925092565b5f602082840312156106705761066f61041b565b5b5f61067d848285016105db565b91505092915050565b5f81519050919050565b5f82825260208201905092915050565b8281835e5f83830152505050565b5f6106b882610686565b6106c28185610690565b93506106d28185602086016106a0565b6106db8161042b565b840191505092915050565b6106ef8161055f565b82525050565b6106fe816105b4565b82525050565b5f6060820190508181035f83015261071c81866106ae565b905061072b60208301856106e6565b61073860408301846106f5565b949350505050565b7f4e487b71000000000000000000000000000000000000000000000000000000005f52602260045260245ffd5b5f600282049050600182168061078457607f821691505b60208210810361079757610796610740565b5b50919050565b5f819050815f5260205f209050919050565b5f6020601f8301049050919050565b5f82821b905092915050565b5f600883026107f97fffffffffffffffffffffffffffffffffffffffffffffffffffffffffffffffff826107be565b61080386836107be565b95508019841693508086168417925050509392505050565b5f819050919050565b5f819050919050565b5f61084761084261083d8461081b565b610824565b61081b565b9050919050565b5f819050919050565b6108608361082d565b61087461086c8261084e565b8484546107ca565b825550505050565b5f90565b61088861087c565b610893818484610857565b505050565b5b818110156108b6576108ab5f82610880565b600181019050610899565b5050565b601f8211156108fb576108cc8161079d565b6108d5846107af565b810160208510156108e4578190505b6108f86108f0856107af565b830182610898565b50505b505050565b5f82821c905092915050565b5f61091b5f1984600802610900565b1980831691505092915050565b5f610933838361090c565b9150826002028217905092915050565b61094c82610686565b67ffffffffffffffff8111156109655761096461043b565b5b61096f825461076d565b61097a8282856108ba565b5f60209050601f8311600181146109ab575f8415610999578287015190505b6109a38582610928565b865550610a0a565b601f1984166109b98661079d565b5f5b828110156109e0578489015182556001820191506020850194506020810190506109bb565b868310156109fd57848901516109f9601f89168261090c565b8355505b6001600288020188555050505b50505050505056fea2646970667358221220ad78ac3f69e7edb481f1df8f62c9811a801a07c3f7e0ca84331795a0b444efbd64736f6c634300081a0033",
			"opcodes": "PUSH1 0x80 PUSH1 0x40 MSTORE CALLVALUE DUP1 ISZERO PUSH1 0xE JUMPI PUSH0 DUP1 REVERT JUMPDEST POP PUSH2 0xA48 DUP1 PUSH2 0x1C PUSH0 CODECOPY PUSH0 RETURN INVALID PUSH1 0x80 PUSH1 0x40 MSTORE CALLVALUE DUP1 ISZERO PUSH2 0xF JUMPI PUSH0 DUP1 REVERT JUMPDEST POP PUSH1 0x4 CALLDATASIZE LT PUSH2 0x3F JUMPI PUSH0 CALLDATALOAD PUSH1 0xE0 SHR DUP1 PUSH4 0xF6F0915 EQ PUSH2 0x43 JUMPI DUP1 PUSH4 0xB7E4B265 EQ PUSH2 0x5F JUMPI DUP1 PUSH4 0xD26526B0 EQ PUSH2 0x91 JUMPI JUMPDEST PUSH0 DUP1 REVERT JUMPDEST PUSH2 0x5D PUSH1 0x4 DUP1 CALLDATASIZE SUB DUP2 ADD SWAP1 PUSH2 0x58 SWAP2 SWAP1 PUSH2 0x5EF JUMP JUMPDEST PUSH2 0xC3 JUMP JUMPDEST STOP JUMPDEST PUSH2 0x79 PUSH1 0x4 DUP1 CALLDATASIZE SUB DUP2 ADD SWAP1 PUSH2 0x74 SWAP2 SWAP1 PUSH2 0x65B JUMP JUMPDEST PUSH2 0x1B6 JUMP JUMPDEST PUSH1 0x40 MLOAD PUSH2 0x88 SWAP4 SWAP3 SWAP2 SWAP1 PUSH2 0x704 JUMP JUMPDEST PUSH1 0x40 MLOAD DUP1 SWAP2 SUB SWAP1 RETURN JUMPDEST PUSH2 0xAB PUSH1 0x4 DUP1 CALLDATASIZE SUB DUP2 ADD SWAP1 PUSH2 0xA6 SWAP2 SWAP1 PUSH2 0x65B JUMP JUMPDEST PUSH2 0x28D JUMP JUMPDEST PUSH1 0x40 MLOAD PUSH2 0xBA SWAP4 SWAP3 SWAP2 SWAP1 PUSH2 0x704 JUMP JUMPDEST PUSH1 0x40 MLOAD DUP1 SWAP2 SUB SWAP1 RETURN JUMPDEST PUSH1 0x40 MLOAD DUP1 PUSH1 0x60 ADD PUSH1 0x40 MSTORE DUP1 DUP5 DUP2 MSTORE PUSH1 0x20 ADD DUP4 PUSH1 0xFF AND DUP2 MSTORE PUSH1 0x20 ADD DUP3 PUSH20 0xFFFFFFFFFFFFFFFFFFFFFFFFFFFFFFFFFFFFFFFF AND DUP2 MSTORE POP PUSH0 DUP1 CALLER PUSH20 0xFFFFFFFFFFFFFFFFFFFFFFFFFFFFFFFFFFFFFFFF AND PUSH20 0xFFFFFFFFFFFFFFFFFFFFFFFFFFFFFFFFFFFFFFFF AND DUP2 MSTORE PUSH1 0x20 ADD SWAP1 DUP2 MSTORE PUSH1 0x20 ADD PUSH0 KECCAK256 PUSH0 DUP3 ADD MLOAD DUP2 PUSH0 ADD SWAP1 DUP2 PUSH2 0x146 SWAP2 SWAP1 PUSH2 0x943 JUMP JUMPDEST POP PUSH1 0x20 DUP3 ADD MLOAD DUP2 PUSH1 0x1 ADD PUSH0 PUSH2 0x100 EXP DUP2 SLOAD DUP2 PUSH1 0xFF MUL NOT AND SWAP1 DUP4 PUSH1 0xFF AND MUL OR SWAP1 SSTORE POP PUSH1 0x40 DUP3 ADD MLOAD DUP2 PUSH1 0x1 ADD PUSH1 0x1 PUSH2 0x100 EXP DUP2 SLOAD DUP2 PUSH20 0xFFFFFFFFFFFFFFFFFFFFFFFFFFFFFFFFFFFFFFFF MUL NOT AND SWAP1 DUP4 PUSH20 0xFFFFFFFFFFFFFFFFFFFFFFFFFFFFFFFFFFFFFFFF AND MUL OR SWAP1 SSTORE POP SWAP1 POP POP POP POP POP JUMP JUMPDEST PUSH0 PUSH1 0x20 MSTORE DUP1 PUSH0 MSTORE PUSH1 0x40 PUSH0 KECCAK256 PUSH0 SWAP2 POP SWAP1 POP DUP1 PUSH0 ADD DUP1 SLOAD PUSH2 0x1D4 SWAP1 PUSH2 0x76D JUMP JUMPDEST DUP1 PUSH1 0x1F ADD PUSH1 0x20 DUP1 SWAP2 DIV MUL PUSH1 0x20 ADD PUSH1 0x40 MLOAD SWAP1 DUP2 ADD PUSH1 0x40 MSTORE DUP1 SWAP3 SWAP2 SWAP1 DUP2 DUP2 MSTORE PUSH1 0x20 ADD DUP3 DUP1 SLOAD PUSH2 0x200 SWAP1 PUSH2 0x76D JUMP JUMPDEST DUP1 ISZERO PUSH2 0x24B JUMPI DUP1 PUSH1 0x1F LT PUSH2 0x222 JUMPI PUSH2 0x100 DUP1 DUP4 SLOAD DIV MUL DUP4 MSTORE SWAP2 PUSH1 0x20 ADD SWAP2 PUSH2 0x24B JUMP JUMPDEST DUP3 ADD SWAP2 SWAP1 PUSH0 MSTORE PUSH1 0x20 PUSH0 KECCAK256 SWAP1 JUMPDEST DUP2 SLOAD DUP2 MSTORE SWAP1 PUSH1 0x1 ADD SWAP1 PUSH1 0x20 ADD DUP1 DUP4 GT PUSH2 0x22E JUMPI DUP3 SWAP1 SUB PUSH1 0x1F AND DUP3 ADD SWAP2 JUMPDEST POP POP POP POP POP SWAP1 DUP1 PUSH1 0x1 ADD PUSH0 SWAP1 SLOAD SWAP1 PUSH2 0x100 EXP SWAP1 DIV PUSH1 0xFF AND SWAP1 DUP1 PUSH1 0x1 ADD PUSH1 0x1 SWAP1 SLOAD SWAP1 PUSH2 0x100 EXP SWAP1 DIV PUSH20 0xFFFFFFFFFFFFFFFFFFFFFFFFFFFFFFFFFFFFFFFF AND SWAP1 POP DUP4 JUMP JUMPDEST PUSH1 0x60 PUSH0 DUP1 PUSH0 DUP1 DUP6 PUSH20 0xFFFFFFFFFFFFFFFFFFFFFFFFFFFFFFFFFFFFFFFF AND PUSH20 0xFFFFFFFFFFFFFFFFFFFFFFFFFFFFFFFFFFFFFFFF AND DUP2 MSTORE PUSH1 0x20 ADD SWAP1 DUP2 MSTORE PUSH1 0x20 ADD PUSH0 KECCAK256 PUSH0 ADD PUSH0 DUP1 DUP7 PUSH20 0xFFFFFFFFFFFFFFFFFFFFFFFFFFFFFFFFFFFFFFFF AND PUSH20 0xFFFFFFFFFFFFFFFFFFFFFFFFFFFFFFFFFFFFFFFF AND DUP2 MSTORE PUSH1 0x20 ADD SWAP1 DUP2 MSTORE PUSH1 0x20 ADD PUSH0 KECCAK256 PUSH1 0x1 ADD PUSH0 SWAP1 SLOAD SWAP1 PUSH2 0x100 EXP SWAP1 DIV PUSH1 0xFF AND PUSH0 DUP1 DUP8 PUSH20 0xFFFFFFFFFFFFFFFFFFFFFFFFFFFFFFFFFFFFFFFF AND PUSH20 0xFFFFFFFFFFFFFFFFFFFFFFFFFFFFFFFFFFFFFFFF AND DUP2 MSTORE PUSH1 0x20 ADD SWAP1 DUP2 MSTORE PUSH1 0x20 ADD PUSH0 KECCAK256 PUSH1 0x1 ADD PUSH1 0x1 SWAP1 SLOAD SWAP1 PUSH2 0x100 EXP SWAP1 DIV PUSH20 0xFFFFFFFFFFFFFFFFFFFFFFFFFFFFFFFFFFFFFFFF AND DUP3 DUP1 SLOAD PUSH2 0x387 SWAP1 PUSH2 0x76D JUMP JUMPDEST DUP1 PUSH1 0x1F ADD PUSH1 0x20 DUP1 SWAP2 DIV MUL PUSH1 0x20 ADD PUSH1 0x40 MLOAD SWAP1 DUP2 ADD PUSH1 0x40 MSTORE DUP1 SWAP3 SWAP2 SWAP1 DUP2 DUP2 MSTORE PUSH1 0x20 ADD DUP3 DUP1 SLOAD PUSH2 0x3B3 SWAP1 PUSH2 0x76D JUMP JUMPDEST DUP1 ISZERO PUSH2 0x3FE JUMPI DUP1 PUSH1 0x1F LT PUSH2 0x3D5 JUMPI PUSH2 0x100 DUP1 DUP4 SLOAD DIV MUL DUP4 MSTORE SWAP2 PUSH1 0x20 ADD SWAP2 PUSH2 0x3FE JUMP JUMPDEST DUP3 ADD SWAP2 SWAP1 PUSH0 MSTORE PUSH1 0x20 PUSH0 KECCAK256 SWAP1 JUMPDEST DUP2 SLOAD DUP2 MSTORE SWAP1 PUSH1 0x1 ADD SWAP1 PUSH1 0x20 ADD DUP1 DUP4 GT PUSH2 0x3E1 JUMPI DUP3 SWAP1 SUB PUSH1 0x1F AND DUP3 ADD SWAP2 JUMPDEST POP POP POP POP POP SWAP3 POP SWAP3 POP SWAP3 POP SWAP3 POP SWAP2 SWAP4 SWAP1 SWAP3 POP JUMP JUMPDEST PUSH0 PUSH1 0x40 MLOAD SWAP1 POP SWAP1 JUMP JUMPDEST PUSH0 DUP1 REVERT JUMPDEST PUSH0 DUP1 REVERT JUMPDEST PUSH0 DUP1 REVERT JUMPDEST PUSH0 DUP1 REVERT JUMPDEST PUSH0 PUSH1 0x1F NOT PUSH1 0x1F DUP4 ADD AND SWAP1 POP SWAP2 SWAP1 POP JUMP JUMPDEST PUSH32 0x4E487B7100000000000000000000000000000000000000000000000000000000 PUSH0 MSTORE PUSH1 0x41 PUSH1 0x4 MSTORE PUSH1 0x24 PUSH0 REVERT JUMPDEST PUSH2 0x471 DUP3 PUSH2 0x42B JUMP JUMPDEST DUP2 ADD DUP2 DUP2 LT PUSH8 0xFFFFFFFFFFFFFFFF DUP3 GT OR ISZERO PUSH2 0x490 JUMPI PUSH2 0x48F PUSH2 0x43B JUMP JUMPDEST JUMPDEST DUP1 PUSH1 0x40 MSTORE POP POP POP JUMP JUMPDEST PUSH0 PUSH2 0x4A2 PUSH2 0x412 JUMP JUMPDEST SWAP1 POP PUSH2 0x4AE DUP3 DUP3 PUSH2 0x468 JUMP JUMPDEST SWAP2 SWAP1 POP JUMP JUMPDEST PUSH0 PUSH8 0xFFFFFFFFFFFFFFFF DUP3 GT ISZERO PUSH2 0x4CD JUMPI PUSH2 0x4CC PUSH2 0x43B JUMP JUMPDEST JUMPDEST PUSH2 0x4D6 DUP3 PUSH2 0x42B JUMP JUMPDEST SWAP1 POP PUSH1 0x20 DUP2 ADD SWAP1 POP SWAP2 SWAP1 POP JUMP JUMPDEST DUP3 DUP2 DUP4 CALLDATACOPY PUSH0 DUP4 DUP4 ADD MSTORE POP POP POP JUMP JUMPDEST PUSH0 PUSH2 0x503 PUSH2 0x4FE DUP5 PUSH2 0x4B3 JUMP JUMPDEST PUSH2 0x499 JUMP JUMPDEST SWAP1 POP DUP3 DUP2 MSTORE PUSH1 0x20 DUP2 ADD DUP5 DUP5 DUP5 ADD GT ISZERO PUSH2 0x51F JUMPI PUSH2 0x51E PUSH2 0x427 JUMP JUMPDEST JUMPDEST PUSH2 0x52A DUP5 DUP3 DUP6 PUSH2 0x4E3 JUMP JUMPDEST POP SWAP4 SWAP3 POP POP POP JUMP JUMPDEST PUSH0 DUP3 PUSH1 0x1F DUP4 ADD SLT PUSH2 0x546 JUMPI PUSH2 0x545 PUSH2 0x423 JUMP JUMPDEST JUMPDEST DUP2 CALLDATALOAD PUSH2 0x556 DUP5 DUP3 PUSH1 0x20 DUP7 ADD PUSH2 0x4F1 JUMP JUMPDEST SWAP2 POP POP SWAP3 SWAP2 POP POP JUMP JUMPDEST PUSH0 PUSH1 0xFF DUP3 AND SWAP1 POP SWAP2 SWAP1 POP JUMP JUMPDEST PUSH2 0x574 DUP2 PUSH2 0x55F JUMP JUMPDEST DUP2 EQ PUSH2 0x57E JUMPI PUSH0 DUP1 REVERT JUMPDEST POP JUMP JUMPDEST PUSH0 DUP2 CALLDATALOAD SWAP1 POP PUSH2 0x58F DUP2 PUSH2 0x56B JUMP JUMPDEST SWAP3 SWAP2 POP POP JUMP JUMPDEST PUSH0 PUSH20 0xFFFFFFFFFFFFFFFFFFFFFFFFFFFFFFFFFFFFFFFF DUP3 AND SWAP1 POP SWAP2 SWAP1 POP JUMP JUMPDEST PUSH0 PUSH2 0x5BE DUP3 PUSH2 0x595 JUMP JUMPDEST SWAP1 POP SWAP2 SWAP1 POP JUMP JUMPDEST PUSH2 0x5CE DUP2 PUSH2 0x5B4 JUMP JUMPDEST DUP2 EQ PUSH2 0x5D8 JUMPI PUSH0 DUP1 REVERT JUMPDEST POP JUMP JUMPDEST PUSH0 DUP2 CALLDATALOAD SWAP1 POP PUSH2 0x5E9 DUP2 PUSH2 0x5C5 JUMP JUMPDEST SWAP3 SWAP2 POP POP JUMP JUMPDEST PUSH0 DUP1 PUSH0 PUSH1 0x60 DUP5 DUP7 SUB SLT ISZERO PUSH2 0x606 JUMPI PUSH2 0x605 PUSH2 0x41B JUMP JUMPDEST JUMPDEST PUSH0 DUP5 ADD CALLDATALOAD PUSH8 0xFFFFFFFFFFFFFFFF DUP2 GT ISZERO PUSH2 0x623 JUMPI PUSH2 0x622 PUSH2 0x41F JUMP JUMPDEST JUMPDEST PUSH2 0x62F DUP7 DUP3 DUP8 ADD PUSH2 0x532 JUMP JUMPDEST SWAP4 POP POP PUSH1 0x20 PUSH2 0x640 DUP7 DUP3 DUP8 ADD PUSH2 0x581 JUMP JUMPDEST SWAP3 POP POP PUSH1 0x40 PUSH2 0x651 DUP7 DUP3 DUP8 ADD PUSH2 0x5DB JUMP JUMPDEST SWAP2 POP POP SWAP3 POP SWAP3 POP SWAP3 JUMP JUMPDEST PUSH0 PUSH1 0x20 DUP3 DUP5 SUB SLT ISZERO PUSH2 0x670 JUMPI PUSH2 0x66F PUSH2 0x41B JUMP JUMPDEST JUMPDEST PUSH0 PUSH2 0x67D DUP5 DUP3 DUP6 ADD PUSH2 0x5DB JUMP JUMPDEST SWAP2 POP POP SWAP3 SWAP2 POP POP JUMP JUMPDEST PUSH0 DUP2 MLOAD SWAP1 POP SWAP2 SWAP1 POP JUMP JUMPDEST PUSH0 DUP3 DUP3 MSTORE PUSH1 0x20 DUP3 ADD SWAP1 POP SWAP3 SWAP2 POP POP JUMP JUMPDEST DUP3 DUP2 DUP4 MCOPY PUSH0 DUP4 DUP4 ADD MSTORE POP POP POP JUMP JUMPDEST PUSH0 PUSH2 0x6B8 DUP3 PUSH2 0x686 JUMP JUMPDEST PUSH2 0x6C2 DUP2 DUP6 PUSH2 0x690 JUMP JUMPDEST SWAP4 POP PUSH2 0x6D2 DUP2 DUP6 PUSH1 0x20 DUP7 ADD PUSH2 0x6A0 JUMP JUMPDEST PUSH2 0x6DB DUP2 PUSH2 0x42B JUMP JUMPDEST DUP5 ADD SWAP2 POP POP SWAP3 SWAP2 POP POP JUMP JUMPDEST PUSH2 0x6EF DUP2 PUSH2 0x55F JUMP JUMPDEST DUP3 MSTORE POP POP JUMP JUMPDEST PUSH2 0x6FE DUP2 PUSH2 0x5B4 JUMP JUMPDEST DUP3 MSTORE POP POP JUMP JUMPDEST PUSH0 PUSH1 0x60 DUP3 ADD SWAP1 POP DUP2 DUP2 SUB PUSH0 DUP4 ADD MSTORE PUSH2 0x71C DUP2 DUP7 PUSH2 0x6AE JUMP JUMPDEST SWAP1 POP PUSH2 0x72B PUSH1 0x20 DUP4 ADD DUP6 PUSH2 0x6E6 JUMP JUMPDEST PUSH2 0x738 PUSH1 0x40 DUP4 ADD DUP5 PUSH2 0x6F5 JUMP JUMPDEST SWAP5 SWAP4 POP POP POP POP JUMP JUMPDEST PUSH32 0x4E487B7100000000000000000000000000000000000000000000000000000000 PUSH0 MSTORE PUSH1 0x22 PUSH1 0x4 MSTORE PUSH1 0x24 PUSH0 REVERT JUMPDEST PUSH0 PUSH1 0x2 DUP3 DIV SWAP1 POP PUSH1 0x1 DUP3 AND DUP1 PUSH2 0x784 JUMPI PUSH1 0x7F DUP3 AND SWAP2 POP JUMPDEST PUSH1 0x20 DUP3 LT DUP2 SUB PUSH2 0x797 JUMPI PUSH2 0x796 PUSH2 0x740 JUMP JUMPDEST JUMPDEST POP SWAP2 SWAP1 POP JUMP JUMPDEST PUSH0 DUP2 SWAP1 POP DUP2 PUSH0 MSTORE PUSH1 0x20 PUSH0 KECCAK256 SWAP1 POP SWAP2 SWAP1 POP JUMP JUMPDEST PUSH0 PUSH1 0x20 PUSH1 0x1F DUP4 ADD DIV SWAP1 POP SWAP2 SWAP1 POP JUMP JUMPDEST PUSH0 DUP3 DUP3 SHL SWAP1 POP SWAP3 SWAP2 POP POP JUMP JUMPDEST PUSH0 PUSH1 0x8 DUP4 MUL PUSH2 0x7F9 PUSH32 0xFFFFFFFFFFFFFFFFFFFFFFFFFFFFFFFFFFFFFFFFFFFFFFFFFFFFFFFFFFFFFFFF DUP3 PUSH2 0x7BE JUMP JUMPDEST PUSH2 0x803 DUP7 DUP4 PUSH2 0x7BE JUMP JUMPDEST SWAP6 POP DUP1 NOT DUP5 AND SWAP4 POP DUP1 DUP7 AND DUP5 OR SWAP3 POP POP POP SWAP4 SWAP3 POP POP POP JUMP JUMPDEST PUSH0 DUP2 SWAP1 POP SWAP2 SWAP1 POP JUMP JUMPDEST PUSH0 DUP2 SWAP1 POP SWAP2 SWAP1 POP JUMP JUMPDEST PUSH0 PUSH2 0x847 PUSH2 0x842 PUSH2 0x83D DUP5 PUSH2 0x81B JUMP JUMPDEST PUSH2 0x824 JUMP JUMPDEST PUSH2 0x81B JUMP JUMPDEST SWAP1 POP SWAP2 SWAP1 POP JUMP JUMPDEST PUSH0 DUP2 SWAP1 POP SWAP2 SWAP1 POP JUMP JUMPDEST PUSH2 0x860 DUP4 PUSH2 0x82D JUMP JUMPDEST PUSH2 0x874 PUSH2 0x86C DUP3 PUSH2 0x84E JUMP JUMPDEST DUP5 DUP5 SLOAD PUSH2 0x7CA JUMP JUMPDEST DUP3 SSTORE POP POP POP POP JUMP JUMPDEST PUSH0 SWAP1 JUMP JUMPDEST PUSH2 0x888 PUSH2 0x87C JUMP JUMPDEST PUSH2 0x893 DUP2 DUP5 DUP5 PUSH2 0x857 JUMP JUMPDEST POP POP POP JUMP JUMPDEST JUMPDEST DUP2 DUP2 LT ISZERO PUSH2 0x8B6 JUMPI PUSH2 0x8AB PUSH0 DUP3 PUSH2 0x880 JUMP JUMPDEST PUSH1 0x1 DUP2 ADD SWAP1 POP PUSH2 0x899 JUMP JUMPDEST POP POP JUMP JUMPDEST PUSH1 0x1F DUP3 GT ISZERO PUSH2 0x8FB JUMPI PUSH2 0x8CC DUP2 PUSH2 0x79D JUMP JUMPDEST PUSH2 0x8D5 DUP5 PUSH2 0x7AF JUMP JUMPDEST DUP2 ADD PUSH1 0x20 DUP6 LT ISZERO PUSH2 0x8E4 JUMPI DUP2 SWAP1 POP JUMPDEST PUSH2 0x8F8 PUSH2 0x8F0 DUP6 PUSH2 0x7AF JUMP JUMPDEST DUP4 ADD DUP3 PUSH2 0x898 JUMP JUMPDEST POP POP JUMPDEST POP POP POP JUMP JUMPDEST PUSH0 DUP3 DUP3 SHR SWAP1 POP SWAP3 SWAP2 POP POP JUMP JUMPDEST PUSH0 PUSH2 0x91B PUSH0 NOT DUP5 PUSH1 0x8 MUL PUSH2 0x900 JUMP JUMPDEST NOT DUP1 DUP4 AND SWAP2 POP POP SWAP3 SWAP2 POP POP JUMP JUMPDEST PUSH0 PUSH2 0x933 DUP4 DUP4 PUSH2 0x90C JUMP JUMPDEST SWAP2 POP DUP3 PUSH1 0x2 MUL DUP3 OR SWAP1 POP SWAP3 SWAP2 POP POP JUMP JUMPDEST PUSH2 0x94C DUP3 PUSH2 0x686 JUMP JUMPDEST PUSH8 0xFFFFFFFFFFFFFFFF DUP2 GT ISZERO PUSH2 0x965 JUMPI PUSH2 0x964 PUSH2 0x43B JUMP JUMPDEST JUMPDEST PUSH2 0x96F DUP3 SLOAD PUSH2 0x76D JUMP JUMPDEST PUSH2 0x97A DUP3 DUP3 DUP6 PUSH2 0x8BA JUMP JUMPDEST PUSH0 PUSH1 0x20 SWAP1 POP PUSH1 0x1F DUP4 GT PUSH1 0x1 DUP2 EQ PUSH2 0x9AB JUMPI PUSH0 DUP5 ISZERO PUSH2 0x999 JUMPI DUP3 DUP8 ADD MLOAD SWAP1 POP JUMPDEST PUSH2 0x9A3 DUP6 DUP3 PUSH2 0x928 JUMP JUMPDEST DUP7 SSTORE POP PUSH2 0xA0A JUMP JUMPDEST PUSH1 0x1F NOT DUP5 AND PUSH2 0x9B9 DUP7 PUSH2 0x79D JUMP JUMPDEST PUSH0 JUMPDEST DUP3 DUP2 LT ISZERO PUSH2 0x9E0 JUMPI DUP5 DUP10 ADD MLOAD DUP3 SSTORE PUSH1 0x1 DUP3 ADD SWAP2 POP PUSH1 0x20 DUP6 ADD SWAP5 POP PUSH1 0x20 DUP2 ADD SWAP1 POP PUSH2 0x9BB JUMP JUMPDEST DUP7 DUP4 LT ISZERO PUSH2 0x9FD JUMPI DUP5 DUP10 ADD MLOAD PUSH2 0x9F9 PUSH1 0x1F DUP10 AND DUP3 PUSH2 0x90C JUMP JUMPDEST DUP4 SSTORE POP JUMPDEST PUSH1 0x1 PUSH1 0x2 DUP9 MUL ADD DUP9 SSTORE POP POP POP JUMPDEST POP POP POP POP POP POP JUMP INVALID LOG2 PUSH5 0x6970667358 0x22 SLT KECCAK256 0xAD PUSH25 0xAC3F69E7EDB481F1DF8F62C9811A801A07C3F7E0CA84331795 LOG0 0xB4 PREVRANDAO 0xEF 0xBD PUSH5 0x736F6C6343 STOP ADDMOD BYTE STOP CALLER "
		},
		"gasEstimates": {
			"creation": {
				"codeDepositCost": "526400",
				"executionCost": "560",
				"totalCost": "526960"
			},
			"external": {
				"getPersonInfo(address)": "infinite",
				"person(address)": "infinite",
				"setPersonInfo(string,uint8,address)": "infinite"
			}
		},
		"methodIdentifiers": {
			"getPersonInfo(address)": "d26526b0",
			"person(address)": "b7e4b265",
			"setPersonInfo(string,uint8,address)": "0f6f0915"
		}
	},
	"abi": [
		{
			"inputs": [
				{
					"internalType": "address",
					"name": "_addr",
					"type": "address"
				}
			],
			"name": "getPersonInfo",
			"outputs": [
				{
					"internalType": "string",
					"name": "",
					"type": "string"
				},
				{
					"internalType": "uint8",
					"name": "",
					"type": "uint8"
				},
				{
					"internalType": "address",
					"name": "",
					"type": "address"
				}
			],
			"stateMutability": "view",
			"type": "function"
		},
		{
			"inputs": [
				{
					"internalType": "address",
					"name": "",
					"type": "address"
				}
			],
			"name": "person",
			"outputs": [
				{
					"internalType": "string",
					"name": "name",
					"type": "string"
				},
				{
					"internalType": "uint8",
					"name": "age",
					"type": "uint8"
				},
				{
					"internalType": "address",
					"name": "addr",
					"type": "address"
				}
			],
			"stateMutability": "view",
			"type": "function"
		},
		{
			"inputs": [
				{
					"internalType": "string",
					"name": "_name",
					"type": "string"
				},
				{
					"internalType": "uint8",
					"name": "_age",
					"type": "uint8"
				},
				{
					"internalType": "address",
					"name": "_addr",
					"type": "address"
				}
			],
			"name": "setPersonInfo",
			"outputs": [],
			"stateMutability": "nonpayable",
			"type": "function"
		}
	]
}